:020000040000FA
:060000000219FD0202EFEF
:030013000204C61E
:03001B0002008D53
:03002B000202B41A
:03005B000204D5C7
:030073000202DCAA
:100080000406080C10182030406080A0C0C2AFC227
:10009000A853E6EFC28E856B8BC0D0D2D3C0E0C030
:1000A000F0C2CAA8CCA9CDD2CAD2AF758A00C3E823
:1000B000956CF8E9956DF9C3E913F9E813F8E5666D
:1000C0006007C3E913F9E813F8E97025E8956E4075
:1000D00020956E501CE582B410177C007B007A00DE
:1000E0007908900000A86AE5667004C3E813F80177
:1000F000FA900000D2A8D2AA6199E0FDC39CC398EF
:1001000040EF98EB33FB0582E0FCC39DC39840E1D0
:1001100098EB33FB0582E0FDC39CC39840D398EB7A
:1001200033FB0582E0FCC39DC39840C598EB33FBCD
:100130000582E0FDC39CC39840B798EB33FB058272
:10014000E0FCC39DC39840A998EB33FB0582E0FD1A
:10015000C39CC398409B98EB33FB0582E0FCC39D96
:10016000C398408D98EB33FB05822175900000D237
:10017000A8D2AA6199E0FDC39CC39840EF98EA33E6
:10018000FA0582E0FCC39DC39840E198EA33FA0582
:1001900082E0FDC39CC39840D398EA33FA0582E01D
:1001A000FCC39DC39840C598EA33FA0582E0FDC3BD
:1001B0009CC39840B798EA33FA0582E0FCC39DC31C
:1001C0009840A998EA33FA0582E0FDC39CC39840A1
:1001D0009B98EA33FA0582E0FCC39DC398408D9852
:1001E000EA33FA0582EBC46B6A54F0F9EAC454F0BE
:1001F000C3996009900000D2A8D2AA6199EBF4C417
:1002000054F0F9EAF4C4540F49FAEBF4C4540FFB68
:10021000C3EAF99460FAEB9400FB5020C3E97B0039
:100220007A0079006016C3135006F9C39552600A2C
:10023000E9F552755300790080020553303A27C31F
:10024000EA94D0F8EB9407F9400BE8FAE9FB203583
:1002500009D235415A303502C235203902B235C390
:10026000EA33FAEB33FBEB2B3B3BF9C3EB13FBEA33
:1002700013FAEA29FAEB3400FB30E3047AFF7BFF40
:10028000C3EA33C4540FF8EB33C454F048F8700594
:10029000EA60027801C3EB13FBEA13FA900000D284
:1002A000A8D2AAE52260021522817D900000D2A882
:1002B000D2AA6199C0D0C0E0C2CF0541E523600257
:1002C0001523C3E554600575550041D7E555240154
:1002D000F55550037555FFD0E0D0D032C2AF53E68C
:1002E0007F7592FA7593FFC22053917FD2AF32C0CF
:1002F000E0E58A303408856B8BF0A3D0E032D0E0A3
:10030000C2AF53E6EFC0D0C0E0C0F0D2D3D2AF53FB
:1003100088EFA88AA98C758A00758C0043881030F4
:10032000331FE8C4540FFAE9C454F04AFAC3132A3D
:10033000FAC3E833F8E933F9E82AFAE93403FB6150
:100340008A30320FC3E833E933FAE82AFAE9340095
:10035000FB618A303115E875F056A4AAF0E975F012
:1003600056A42AFAC5F03400FB618AE875F02BA484
:10037000AAF0E975F02BA42AFAC5F03400C313FBE8
:10038000EA13FAC3EB13FBEA13FAC3EB940950091F
:10039000C3EA949AEB940350160522E522700215E5
:1003A00022C3E5229432500281B975540081BCE524
:1003B00022600215223036067C007D0461C9AC3112
:1003C000AD32303A04AC33AD34C3EA9CFAEB9DFB5A
:1003D0009208AE60AF61303A425007203509D235FD
:1003E00061E7303502C235303504AE62AF63203983
:1003F00002B235C3EA33FAEB33FBA208500AEAF43F
:100400002401FAEBF43400FBC3EA9428FAEB9400DD
:10041000FB501478007A007B008127A208500878EE
:10042000007A007B00817DE52554036019202A169F
:10043000E55DF9EB7007C3E99A4002E9FAE53CC4CF
:100440002AFAEB3400FBEA8EF0A4F9AAF0EB8EF066
:10045000A42AFAC5F03400FBC3EB13FDEA13F80F2E
:10046000EF146004C3E833F8C3E933EA33FAEB333B
:10047000FBDFEDEB30E20678FF7AFF7B038854D296
:1004800030E86003755500EAF4F8EBF45403F9C35F
:10049000E89428FAE99400FB50047A007B0088561F
:1004A00089578A588B5975230AD0F0D0E0D0D053A1
:1004B000F7DF43F74043E6103275230AD0F0D0E06F
:1004C000D0D043E61032C2AAD28EC2CA85CC6C8587
:1004D000CD6DD2CA32C2AFC0D0C0E0D2D3A8F9E548
:1004E0005A30E10AE5FA20E13520E03281F6E5FAFA
:1004F00030E12B20E028C3E55713F8E55613F5FB50
:1005000088FCC3E55913F8E55813F5E988EA8557DF
:100510005A53F7BFD2A8303402D2AA53E6EF53F7AA
:10052000DFD0E0D0D0D2AF327901801479038010CF
:10053000790A800C791E80087964800479C880006B
:100540007817E4D5E0FDD8FAD9F62275E8902205AF
:100550005EC3E55E9408405330EDF4A8BDA9BE75B6
:100560005E00E9FA79A0E76041EA7006E55F60188D
:10057000800CC3E8955F600EE55F5005600A14804B
:10058000070460FA8002E55FF55FC39569401B755B
:100590005BC0C394044013755B80C39404400B7527
:1005A0005B40C394044003755B0022E55B2410505C
:1005B0000274FFF55B22743279A687F0A4C5F0A21D
:1005C000F733F55D22203813C2AFC291D28775D4BC
:1005D000FF75D503D2AF759F42C1B9C2AFC291D2E8
:1005E0009375D43F75D50FD2AF759F42C1B92038EE
:1005F00013C2AFC29275D4FF75D50CD287D2AF7536
:100600009F52C1B9C2AFC28675D4FF75D50CD293C3
:10061000D2AF759F32C1B9203813C2AFC287D2930F
:1006200075D4FF75D50CD2AF759F32C1B9C2AFC2B8
:1006300093D28775D4FF75D50CD2AF759F52807950
:10064000203813C2AFC29075D43F75D50FD293D264
:10065000AF759F428063C2AFC29075D4FF75D5035A
:10066000D287D2AF759F428050203813C2AFC29359
:10067000D29175D43F75D50FD2AF759F52803AC2D3
:10068000AFC287D29175D4FF75D503D2AF759F32B3
:100690008027203813C2AFC28675D4FF75D503D228
:1006A00091D2AF759F328011C2AFC29275D43F759F
:1006B000D50FD291D2AF759F52227A147B788012D7
:1006C0007A107B8C800C7A0D7BB480067A0B7BC809
:1006D0008000E564D5E001227902E4C291D5E0FD15
:1006E000D290D5E0FDC290D5E0FDD291D5E0FDE9F4
:1006F00020E002D28630E002D292E564D5E0FDE946
:1007000020E002C28630E002C2927496D5E0FDD9A4
:10071000C9EAF8D5E0FDD8FBDBB8C29122C286C297
:1007200090C292C287C291C29375D4FF75D50F2231
:10073000788076FF0876FF0876FF0876FF0876FF58
:100740000876FF0876090876FF087601788C76012E
:100750000876FF0876FF0876FF0876FF0876FF0820
:1007600076030876FF0876FF0876FF087625087678
:10077000D00876FA0876500876040876FF087602E4
:100780000876FF08767A0876FF087607087601086B
:1007900076FF0876FF08760008760022FA75F00CDE
:1007A000A4ABF0EAC333F8740133F9E8C333F8E9D2
:1007B00033F9E8C32BF8E93400F9227888E6C394CA
:1007C00003D23A5002C23AC238E630E102D238A22D
:1007D0003892397886E6149000809378A6F6788669
:1007E000E6F53FC394025003753F02789CE6753EE0
:1007F000FFB40203753EA0B40303753E8278A0E601
:10080000F8600674282409D8FCF5697896E6120782
:100810009C88318932789EE612079C883389347827
:1008200097E612079C8835893612071D223036114B
:100830007A007B007CFF7D007E0011938B618A60D3
:1008400022303A227896E6FA7B00789EE6FC7D001C
:10085000C3EA33FAEB33FBC3EC33FCED33FD7E0A22
:1008600011938B638A627896303A02789EE6FA7B1F
:10087000007897E6FC7D007E00303A10C3EA33FA38
:10088000EB33FBC3EC33FCED33FD7E0A11938B613C
:100890008A6022C3EC9EFCED9400FDC3EC9AFCED53
:1008A0009BFDC3EC9423ED940050047C237D00C396
:1008B000EC94FFED940140047CFF7D017BFF0B7AFB
:1008C000000AEA7009C3EC33FCED33FD01BEEC8A8B
:1008D000F0A4AEF0ED8AF0A42E947C40E4EAF4603B
:1008E000DD22D236112D1205341205347A007B0038
:1008F0007C1012052CE5542AFA74003BFBDCF37CD7
:1009000004C3EB13FBEA13FADCF7FFEB60027FFF93
:10091000C236112D2278A5E6F954037000E9540C73
:100920007000E954307000E954C07000227567000F
:100930007568007597DE7597AD7581C043FF80754A
:10094000EF0675A90012071D75803F75F1C375A4E8
:10095000C075803F75D4FF75900075F20F75A50FB7
:1009600075900075D50F75A60175E34075E202120A
:10097000071DE4F8F6D8FD120730D1867898866412
:10098000753001C2AF12053C1206BA1205341206C8
:10099000C01205341206C61205343115C2AF756790
:1009A0000075680078FA79FA308007D9FBD8F70229
:1009B0001C001207BB112D7898866412071D75E480
:1009C00000758811758E0475890975C804759104C0
:1009D00075D84075D90875F781759E0375960275AF
:1009E000DA4275DB4275A82175E69075B801759BF2
:1009F00080759D0075D10C75BC5975BB1075E8806C
:100A000075B201120528D2AF753C00C23012053C08
:100A1000C231C232C233C2347552007553007522DE
:100A200000120538C3E522940A500241F5D231750F
:100A30002200120538C3E522940A500241F5C23162
:100A4000D232752200120538C3E522940A500241C1
:100A5000F575E480758851758E017589AA758C00CD
:100A6000758D00C2A9D2ABD2AA756BC0756A147518
:100A70006E50C232D23475220A120538756A10C31C
:100A8000E522940A7552007553004069758E0C7505
:100A90006B80756A28756E2875220A120538756A8A
:100AA00020C3E522940A7552007553004047758EA5
:100AB0000C756BC0756A14756E1475220A120538B0
:100AC000756A10C3E522940A7552007553004025DB
:100AD00075E400758811758E04758909D2A9C2ABB9
:100AE000C2AAC234D233752200120538C3E522945B
:100AF0000A4002219C12052C20300302099CC2AF3F
:100B00001206BA1206BA1206BAD2AF12053C203447
:100B100003303A03020BB612052C788CE6C394011D
:100B2000500261B6E530C39401500261B67567A505
:100B30007568F17F02D236112D120538C2AFC23668
:100B4000112DC3E554947FD2AF406B120528C2AF7C
:100B50001206CCD2AFDFDE11E2C3EF7897F61205B2
:100B60003CF1737F0AD236112D120538C2AFC2365E
:100B7000112DC3E554947FD2AF50E8120528C2AFBF
:100B80001206BA1205301206BAD2AFDFD811E2EF60
:100B900024037896F6F87997E7C394234003985096
:100BA00006E824237897F612053CD1CDF1A2120570
:100BB00038112D02099C756700756800120538C34D
:100BC000E55494014002610EC2AF1206CC1206CC6D
:100BD0001206CCD2AF12053C753000E4F537F5387B
:100BE0000537E537F4703F0538789AE678191460D0
:100BF00012783214600D787D14600878FA1460035E
:100C0000753800C3E53898401D12071D12052815D8
:100C10003875370078998664C2AF1206CCD2AF78A7
:100C2000988664120538120530E5237002219CC3B2
:100C3000E5549401500AC3E55294015016020BE0AA
:100C4000120538E523700302099C755200755300A4
:100C5000020DF5C3E55294017017C2AF12071D785B
:100C60009986641206BA78988664D2AF120538A1C4
:100C7000E7C3E55294027017C2AF12071D78998638
:100C8000641206C078988664D2AF120538A1E7C313
:100C9000E55294037017C2AF12071D78998664124B
:100CA00006C678988664D2AF120538A1E7C3E5522C
:100CB00094047017C2AF12071D789986641206CC8F
:100CC00078988664D2AF120538A1E7C3E55294053F
:100CD0007017C2AF12071D789986641206CC7898F7
:100CE0008664D2AF120538A1E7C3E55294077019A4
:100CF000C3E55394065002812F7401303A02740305
:100D00007888F6C238C239A1E7C3E5529408701951
:100D1000C3E55394065002812F7402303A027404E2
:100D20007888F6D238D239A1E7C3E5529409701712
:100D3000C3E55394065002812F303A0BC37888E6FE
:100D40009402F6C23AA1E7C3E552940A7016C3E5CD
:100D50005394065002812F203A0A7888E62402F63E
:100D6000D23AA1E7C3E55294147025C3E553940623
:100D70005002812FC2AF901A0B740093D2AF7888C3
:100D8000F613C238C2394002D2384002D2398057F5
:100D9000C3E55294157038C3E5539406404FC2AF73
:100DA000901A0B740093D2AFF8B801027402B80223
:100DB000027401B803027404B8040274037888F65C
:100DC00013C238C2394002D2384002D2398018C327
:100DD000E552940C70117567A57568F1C3E55394DD
:100DE00006400AD1CDD2AF75520075530075670029
:100DF000756800812FC2AF12071DE4D2AFE4F55E23
:100E0000F524F525F53D755E0812052812054B30D1
:100E1000EDFDA8BDA9BEE97001F8885F12054F7508
:100E20005E08C2AF1205B6855D5B855D5CD2AFC260
:100E300035303A03303A23203811203511C2AFD271
:100E40008775D4FF75D503D2AF800F2035EFC2AFC1
:100E5000D29375D43F75D50FD2AFC3E554940140FA
:100E600003020E348000C2AF12071D7524007525E1
:100E700000D2AF12053812071D78A4E66006D287AB
:100E8000D291D29361DB901A0D7820F106E520B45F
:100E9000550AA3F106E520B4AA0280137567A5756B
:100EA00068F1120730D1CD756700756800801D901C
:100EB0001A0378807B0AF106A308DBFA901A0F78F0
:100EC0008C7B1AF106A308DBFA901A2922C2AFF133
:100ED00049F126901A007410F10BA37407F10BA3CB
:100EE0007421F10B901A0378807B0AF10AA308DBC6
:100EF000FA901A0F788C7B1AF10AA308DBFAF15CDE
:100F0000F13A901A2922E493F622E6438F01538F97
:100F1000FDFFC3E583941C400122EF8567B7856818
:100F2000B7F0538FFE22438F02438F018567B78549
:100F300068B7901A0DF0538FFC22901A0D7455F17A
:100F40000B901A0E74AAF10B227A3079D078209087
:100F50001A40F106E520F709A3DAF7227A3079D0B2
:100F6000901A40E7F10B09A3DAF9227C0512053C3F
:100F7000DCFB22C2AF1206BA1206C01206C6120667
:100F8000CC1205301206BA1206C01206C61206CCE2
:100F90001205301206BA1206C01206C61206CCD2CC
:100FA000AF22C2AF1206CC1206C61206C01206BA93
:100FB0001205301206CC1206C61206C01206BA126C
:100FC00005301206CC1206C61206C01206BAD2AFFF
:010FD00022FE
:1019FD0002092D100721FFFFFFFFFFFF09FF01FF68
:101A0D0055AA01FFFFFFFFFF03FFFFFF25D0FA508F
:0D1A1D0004FF02FF7AFF0701FFFF0000FF3A
:101A400023435F4C5F34302320202020202020209F
:101A500023424C48454C492445464D3842313023B9
:101A60002020202020202020202020202020202076
:101C0000C2AFC2D37597DE7597AD7581C075A90057
:101C100043FF80752438752503B1DB7529A5752A26
:101C2000F143F10153A4FED28075D4FF75E3407DEA
:101C3000FA780379E67C10752200752300901DE880
:101C40007B06752498752501308002814820800824
:101C5000D8FBD9F9DCF781BA308008D8FBD9F9DC98
:101C6000F781BAB19BE493A3C39A6004DDC381BA40
:101C7000DBDBB18D600281317B08E493FAA3B16EA6
:101C8000DBF87A30B16E752200752300B18DEAFC65
:101C9000EBFDC3ED94FE400EB18D8A278B28ED300D
:101CA000E0048A828B83B18D7AC270D8C3ED94FE32
:101CB000601950CEBD0029EC600F7520007521FF22
:101CC000752900752A000200008100A827A92808AC
:101CD00009D804D90281DDB191EAF281D10D81A642
:101CE000C3ED94035051EDA2E092007AC5C3E582A2
:101CF0009400E583941C508C200010438F02438F86
:101D0000018529B7852AB7F0300027A827A9280818
:101D100009438F01538FFDD804D902A132C3E58353
:101D2000941C4003A3A117E28529B7852AB7F0A325
:101D3000A117538FFC81827AC1BD030CE493A3FAEF
:101D4000B152DCF8B14A81828184AA22AB23B16E00
:101D5000EBFAEA6222752608C3E52313F523E52290
:101D600013F52250066323A0632201D526EAB1DBD6
:101D7000B1DB75260AEAF4200102D280300102C2EA
:101D800080B1DBC3134002C201D526EB22B191EA38
:101D9000FB208002A191308002A196752608AE2416
:101DA000AF25C3EF13FFEE13FEB1DFB1DBC3EA13C0
:101DB0003080024480FA30E703632201C3E5231335
:101DC000F523E52213F52250066323A0632201D5F3
:101DD00026D9E52265236523F52222AE24AF250E00
:101DE0000FDEFEDFFCD20122424C48656C693437BD
:061DF0003164E8B10601B8
:00000001FF
