:020000040000FA
:060000000219FD0202FBE3
:03000B0002008D63
:030013000204FCE8
:03001B0002009050
:03002B000202B01E
:03005B0002050B90
:030073000202E89E
:100080000406080C10182030406080A0C0054032E3
:10009000C2AFC2A853E6EFC28E856B8BC0D0D2D35D
:1000A000C0E0C0F0C2CAA8CCA9CDD2CAD2AF758A6E
:1000B00000C3E8956CF8E9956DF9C3E913F9E81305
:1000C000F8E5666007C3E913F9E813F8E97025E875
:1000D000956E4020956E501CE582B410177C007B15
:1000E000007A007908900000A86AE5667004C3E809
:1000F00013F801FD900000D2A8D2AA61C6E0FDC3AA
:100100009CC39840EF98EB33FB0582E0FCC39DC392
:100110009840E198EB33FB0582E0FDC39CC3984017
:10012000D398EB33FB0582E0FCC39DC39840C59890
:10013000EB33FB0582E0FDC39CC39840B798EB33DB
:10014000FB0582E0FCC39DC39840A998EB33FB05F7
:1001500082E0FDC39CC398409B98EB33FB0582E093
:10016000FCC39DC398408D98EB33FB0582217890AA
:100170000000D2A8D2AA61C6E0FDC39CC39840EF9C
:1001800098EA33FA0582E0FCC39DC39840E198EAFF
:1001900033FA0582E0FDC39CC39840D398EA33FA52
:1001A0000582E0FCC39DC39840C598EA33FA0582F6
:1001B000E0FDC39CC39840B798EA33FA0582E0FC9F
:1001C000C39DC39840A998EA33FA0582E0FDC39C19
:1001D000C398409B98EA33FA0582E0FCC39DC3981C
:1001E000408D98EA33FA0582EBC46B6A54F0F9EA61
:1001F000C454F0C3996009900000D2A8D2AA61C685
:10020000EBF4C454F0F9EAF4C4540F49FAEBF4C423
:10021000540FFBC3EAF99460FAEB9400FB5020C33F
:10022000E97B007A0079006016C3135006F9C39584
:1002300052600AE9F5527553007900800205533087
:100240003A27C3EA94D0F8EB9407F9400BE8FAE9AF
:10025000FB203509D235415D303502C235203902E7
:10026000B235C3EA33FAEB33FBEB2B3B3BF9C3EB81
:1002700013FBEA13FAEA29FAEB3400FB30E3047AC1
:10028000FF7BFFC3EA33C4540FF8EB33C454F04888
:10029000F87005EA60027801900000D2A8D2AAE5C1
:1002A000226002152281B3900000D2A8D2AA61C6B2
:1002B000C0D0C0E0C2CF0541E5666009E5656005D4
:1002C00075650041E3756501E52360021523C3E50B
:1002D00054600575550041E3E5552401F55550037B
:1002E0007555FFD0E0D0D032C2AF53E67F7592FA99
:1002F0007593FFC22053917FD2AF32C0E0E58A30C0
:100300003408856B8BF0A3D0E032D0E0C2AF53E667
:10031000EFC0D0C0E0C0F0D2D3D2AF5388EFA88AEC
:10032000A98CAA40308D010A758A00758C00754031
:1003300000438810E566700AC3E833F8E933F9EA48
:1003400033FA30331FE8C4540FFAE9C454F04AFAC0
:10035000C3132AFAC3E833F8E933F9E82AFAE9348F
:1003600006FB61B730320FC3E833E933FAE82AFA03
:10037000E93400FB61B7303115E875F056A4AAF0F6
:10038000E975F056A42AFAC5F03400FB61B7C3EA58
:1003900013FAE913F9E813F8E875F056A4AAF0E99E
:1003A00075F056A42AFAC5F03400C313FBEA13FA19
:1003B000C3EB13FBEA13FAC3EB94125009C3EA949C
:1003C00034EB940750160522E52270021522C3E58E
:1003D000229432500281EF75540081F2E5226002CE
:1003E00015223036067C007D0861F6AC31AD323026
:1003F0003A04AC33AD34C3EA9CFAEB9DFB9208AEF1
:1004000060AF61303A425007203509D2358114304F
:100410003502C235303504AE62AF63203902B235E1
:10042000C3EA33FAEB33FBA208500AEAF42401FAD8
:10043000EBF43400FBC3EA9450FAEB9400FB501445
:1004400078007A007B008154A208500878007A0076
:100450007B0081B3E5255403601B202A18E55D333A
:10046000F9EB7007C3E99A4002E9FAE53CC4332A84
:10047000FAEB3400FBEA8EF0A4F9AAF0EB8EF0A4BC
:100480002AFAC5F03400FBC3EB13FDEA13F8C3ED01
:1004900013FDE813F80FEF146004C3E833F8C3E961
:1004A00033EA33FAEB33FBDFEDEB30E30678FF7A28
:1004B000FF7B078854D230E86003755500EAF4F8F2
:1004C000EBF45407F9C3E89432FAE99400FB5004C2
:1004D0007A007B00885689578A588B5975230AD031
:1004E000F0D0E0D0D053F7DF43F74043E610327549
:1004F000230AD0F0D0E0D0D043E61032C2AAD28E88
:10050000C2CA85CC6C85CD6DD2CA32C2AFC0D0C054
:10051000E0D2D3A8F9E55A30E20AE5FA20E2352024
:10052000E132A12CE5FA30E22B20E128C3E5571394
:10053000F8E55613F5FB88FCC3E55913F8E55813A5
:10054000F5E988EA85575A53F7BFD2A8303402D26A
:10055000AA53E6EF53F7DFD0E0D0D0D2AF32790123
:10056000801479038010790A800C791E80087964E0
:10057000800479C880007817E4D5E0FDD8FAD9F670
:100580002275E89022055EC3E55E9408405330ED85
:10059000F4A8BDA9BE755E00E9FA79A0E76041EA5A
:1005A0007006E55F6018800CC3E8955F600EE55F3C
:1005B0005005600A1480070460FA8002E55FF55F69
:1005C000C39569401B755BC0C394044013755B8081
:1005D000C39404400B755B40C394044003755B00F7
:1005E00022E55B2410500274FFF55B22743279A679
:1005F00087F0A4C5F0A2F733F55D22203810C2AF12
:10060000C293D29175D54FD2AF759F20C1CBC2AFE7
:10061000C293D29575D57CD2AF759F20C1CB2038BF
:1006200010C2AFC29475D573D291D2AF759F30C14D
:10063000CBC2AFC29075D573D295D2AF759F10C1A2
:10064000CB203810C2AFC291D29575D573D2AF7599
:100650009F108077C2AFC295D29175D573D2AF7516
:100660009F308067203810C2AFC29275D57CD2957A
:10067000D2AF759F208054C2AFC29275D54FD29130
:10068000D2AF759F208044203810C2AFC295D2935C
:1006900075D57CD2AF759F308031C2AFC291D293F5
:1006A00075D54FD2AF759F108021203810C2AFC2D0
:1006B0009075D54FD293D2AF759F10800EC2AFC246
:1006C0009475D57CD293D2AF759F30227A147B7803
:1006D00080127A107B8C800C7A0D7BB480067A0BAA
:1006E0007BC88000E564D5E001227902E4C293D59D
:1006F000E0FDD292D5E0FDC292D5E0FDD293D5E0E7
:10070000FDE920E002D29030E002D294E564D5E029
:10071000FDE920E002C29030E002C2947496D5E078
:10072000FDD9C9EAF8D5E0FDD8FBDBB8C29322C2F7
:1007300090C292C294C291C293C29575D57F22781D
:100740008076FF0876FF0876FF0876FF0876FF08B8
:1007500076FF0876090876FF087601788C7601081E
:1007600076FF0876FF0876FF0876FF0876FF0876A2
:10077000030876FF0876FF0876FF0876250876D00E
:100780000876FA0876500876040876FF087602089C
:1007900076FF08767A0876FF0876070876010876ED
:1007A000FF0876FF08760008760022FA75F00CA4A0
:1007B000ABF0EAC333F8740133F9E8C333F8E93333
:1007C000F9E8C32BF8E93400F9E8C333F8E933F961
:1007D000227888E6C39403D23A5002C23AC238E67D
:1007E00030E102D238A23892397886E6149000803F
:1007F0009378A6F67886E6F53FC394025003753FDA
:1008000002789CE6753EFFB40203753EA0B4030374
:10081000753E8278A0E6F8600674282409D8FCF5B5
:10082000697896E61207AB88318932789EE612071E
:10083000AB883389347897E61207AB88358936124E
:10084000072F223036117A007B007CFF7D007E006E
:1008500011A98B618A6022303A227896E6FA7B00F1
:10086000789EE6FC7D00C3EA33FAEB33FBC3EC333E
:10087000FCED33FD7E0A11A98B638A627896303ACB
:1008800002789EE6FA7B007897E6FC7D007E0030D9
:100890003A10C3EA33FAEB33FBC3EC33FCED33FD20
:1008A0007E0A11A98B618A6022C3EC9EFCED940044
:1008B000FDC3EC9AFCED9BFDC3EC9423ED9400503A
:1008C000047C237D00C3EC94FFED940140047CFF85
:1008D0007D017BFF0B7A000AEA7009C3EC33FCED63
:1008E00033FD01D4EC8AF0A4AEF0ED8AF0A42E948E
:1008F0007C40E4EAF460DD22D236114312056A122C
:10090000056A7A007B007C10120562E5542AFA74AD
:10091000003BFBDCF37C04C3EB13FBEA13FADCF7CC
:10092000FFEB60027FFFC23611432278A5E6F9543F
:1009300003D2867002C286E9540CD2877002C28745
:10094000E95430D2967002C296E954C07000227504
:1009500067007568007597DE7597AD7581C043FFB8
:100960008075EF0675A90012072F75803F75F1F0AD
:1009700075A4C075803F75D4FF75900075F27F75C2
:10098000A57F75900075D57F75A60175E34075E26A
:1009900002C290C292C29412056ED291D293D295A5
:1009A00012055EC291C293C29512072FE4F8F6D8E1
:1009B000FD12073FD1E978988664753001C2AF1205
:1009C00005721206CC12056A1206D212056A1206C8
:1009D000D812056A312BC2AF75670075680078FAC6
:1009E00079FA308507D9FBD8F7021C001207D1111C
:1009F000437898866412072F75A91375A71075C1DF
:100A00000075A70075660075E405758811758E047C
:100A100075890975C80475910475D84075D908752C
:100A2000F782759E0375960275DA4275DB4275A8EA
:100A30002375E69075B801759B80759D0075D10C86
:100A400075BCB975BB1075E88075B20112055ED230
:100A5000AF753C00C230120572C231C232C233C21D
:100A60003475520075530075220012056EC3E522DD
:100A7000940A5002613ED23175220012056EC3E520
:100A800022940A5002613EC231D232752200120510
:100A90006EC3E522940A5002613E75E4D575885113
:100AA000758E017589AA758C00758D00C2A9D2ABAF
:100AB000D2AA756B80756A14756E50C232D23475C5
:100AC000220A12056E756A10C3E522940A75520057
:100AD0007553004069758E0C756B00756A28756ECC
:100AE0002875220A12056E756A20C3E522940A75DC
:100AF00052007553004047758E0C756B80756A14F3
:100B0000756E1475220A12056E756A10C3E522947B
:100B10000A755200755300402575E40575881175F6
:100B20008E04758909D2A9C2ABC2AAC234D2337568
:100B3000220012056EC3E522940A400221D6120556
:100B4000622030030209D6C2AF1206CC1206CC12C4
:100B500006CCD2AF120572203403303A03020C01E6
:100B6000120562788CE6C3940150028101E530C31E
:100B70009401500281017567A57568F17F02D23634
:100B8000114312056EC2AFC2361143C3E554947FC0
:100B9000D2AF406D12055EC2AF1206DED2AFDFDE0D
:100BA00011F8C3EF7897F6120572120FD67F0AD2AA
:100BB00036114312056EC2AFC2361143C3E55494D9
:100BC0007FD2AF50E812055EC2AF1206CC120566A6
:100BD0001206CCD2AFDFD811F8EF24037896F6F8DE
:100BE0007997E7C394234003985006E82423789725
:100BF000F6120572F13012100512056E114302094A
:100C0000D675670075680012056EC3E554940140FF
:100C1000026157C2AF1206DE1206DE1206DED2AF46
:100C2000120572753000E4F537F5380537E537F40D
:100C3000703F0538789AE67819146012783214609B
:100C40000D787D14600878FA146003753800C3E5E8
:100C50003898401D12072F12055E15387537007839
:100C6000998664C2AF1206DED2AF78988664120508
:100C70006E120566E523700221D6C3E55494015037
:100C80000AC3E55294015016020C2B12056EE5239F
:100C900070030209D6755200755300020E40C3E579
:100CA0005294017017C2AF12072F7899866412060A
:100CB000CC78988664D2AF12056EC132C3E55294E7
:100CC000027017C2AF12072F789986641206D27885
:100CD000988664D2AF12056EC132C3E55294037098
:100CE00017C2AF12072F789986641206D8789886B3
:100CF00064D2AF12056EC132C3E55294047017C2BC
:100D0000AF12072F789986641206DE78988664D22F
:100D1000AF12056EC132C3E55294057017C2AF120F
:100D2000072F789986641206DE78988664D2AF120F
:100D3000056EC132C3E55294077019C3E55394069A
:100D40005002817A7401303A0274037888F6C2380E
:100D5000C239C132C3E55294087019C3E5539406F1
:100D60005002817A7402303A0274047888F6D238DC
:100D7000D239C132C3E55294097017C3E5539406C2
:100D80005002817A303A0BC37888E69402F6C23A70
:100D9000C132C3E552940A7016C3E553940650025B
:100DA000817A203A0A7888E62402F6D23AC132C320
:100DB000E55294147025C3E55394065002817AC21B
:100DC000AF901A0B740093D2AF7888F613C238C272
:100DD000394002D2384002D2398057C3E5529415C7
:100DE0007038C3E5539406404FC2AF901A0B74009D
:100DF00093D2AFF8B801027402B802027401B803CA
:100E0000027404B8040274037888F613C238C23935
:100E10004002D2384002D2398018C3E552940C7097
:100E2000117567A57568F1C3E5539406400AF13062
:100E3000D2AF755200755300756700756800817AEE
:100E4000C2AF12072FE4D2AFE4F55EF524F525F525
:100E50003D755E0812055E12058130EDFDA8BDA945
:100E6000BEE97001F8885F120585755E08C2AF1291
:100E700005EC855D5B855D5CD2AF75A71075C130F3
:100E800075A70075A903756601C235303A03303A7B
:100E90001D20380E20350EC2AFD29575D573D2AF56
:100EA000800C2035F2C2AFD29375D54FD2AFC3E5D7
:100EB0005494014003020E8E8000C2AF12072F75BA
:100EC000240075250075A91375A71075C10075A7B5
:100ED00000756600D2AF12056E12072F78A4E66087
:100EE00006D291D293D2958126901A0D7820F1697D
:100EF000E520B4550AA3F169E520B4AA0280137570
:100F000067A57568F112073FF130756700756800D5
:100F1000801D901A0378807B0AF169A308DBFA90A0
:100F20001A0F788C7B1AF169A308DBFA901A292230
:100F3000C2AFF1ACF189901A007410F16EA374077E
:100F4000F16EA37421F16E901A0378807B0AF16D23
:100F5000A308DBFA901A0F788C7B1AF16DA308DBDB
:100F6000FAF1BFF19D901A2922E493F622E6438F0D
:100F700001538FFDFFC3E583941C400122EF856779
:100F8000B78568B7F0538FFE22438F02438F0185E8
:100F900067B78568B7901A0DF0538FFC22901A0D31
:100FA0007455F16E901A0E74AAF16E227A3079D0CF
:100FB0007820901A40F169E520F709A3DAF7227A40
:100FC0003079D0901A40E7F16E09A3DAF9227C0556
:100FD000120572DCFB22C2AF1206CC1206D2120638
:100FE000D81206DE1205661206CC1206D21206D8F8
:100FF0001206DE1205661206CC1206D21206D812AE
:1010000006DED2AF22C2AF1206DE1206D81206D218
:101010001206CC1205661206DE1206D81206D2128D
:1010200006CC1205661206DE1206D81206D2120689
:04103000CCD2AF224D
:1019FD0002094F100721FFFFFFFFFFFF09FF01FF46
:101A0D0055AA01FFFFFFFFFF03FFFFFF25D0FA508F
:0D1A1D0004FF02FF7AFF0701FFFF0000FF3A
:101A400023455F485F32352320202020202020209E
:101A500023424C48454C492445464D3842323123B7
:101A60002020202020202020202020202020202076
:101C0000C2AFC2D37597DE7597AD7581C075A90057
:101C100043FF80752438752503B1DB7529A5752A26
:101C2000F143F12053A4DFD28575D4FF75E3407DE5
:101C3000FA780379E67C10752200752300901DE880
:101C40007B0675249875250130850281482085081A
:101C5000D8FBD9F9DCF781BA308508D8FBD9F9DC93
:101C6000F781BAB19BE493A3C39A6004DDC381BA40
:101C7000DBDBB18D600281317B08E493FAA3B16EA6
:101C8000DBF87A30B16E752200752300B18DEAFC65
:101C9000EBFDC3ED94FE400EB18D8A278B28ED300D
:101CA000E0048A828B83B18D7AC270D8C3ED94FE32
:101CB000601950CEBD0029EC600F7520007521FF22
:101CC000752900752A000200008100A827A92808AC
:101CD00009D804D90281DDB191EAF281D10D81A642
:101CE000C3ED94035051EDA2E092007AC5C3E582A2
:101CF0009400E583941C508C200010438F02438F86
:101D0000018529B7852AB7F0300027A827A9280818
:101D100009438F01538FFDD804D902A132C3E58353
:101D2000941C4003A3A117E28529B7852AB7F0A325
:101D3000A117538FFC81827AC1BD030CE493A3FAEF
:101D4000B152DCF8B14A81828184AA22AB23B16E00
:101D5000EBFAEA6222752608C3E52313F523E52290
:101D600013F52250066323A0632201D526EAB1DBD6
:101D7000B1DB75260AEAF4200102D285300102C2E5
:101D800085B1DBC3134002C201D526EB22B191EA33
:101D9000FB208502A191308502A196752608AE240C
:101DA000AF25C3EF13FFEE13FEB1DFB1DBC3EA13C0
:101DB0003085024480FA30E703632201C3E5231330
:101DC000F523E52213F52250066323A0632201D5F3
:101DD00026D9E52265236523F52222AE24AF250E00
:101DE0000FDEFEDFFCD20122424C48656C693437BD
:061DF0003164E8B20601B7
:00000001FF
