:020000040000FA
:060000000219FD0202FBE3
:03000B0002008D63
:030013000204FEE6
:03001B0002009050
:03002B000202B01E
:03005B0002050D8E
:030073000202E89E
:100080000406080C10182030406080A0C0054032E3
:10009000C2AFC2A853E6EFC28E856B8BC0D0D2D35D
:1000A000C0E0C0F0C2CAA8CCA9CDD2CAD2AF758A6E
:1000B00000C3E8956CF8E9956DF9C3E913F9E81305
:1000C000F8E5666007C3E913F9E813F8E97025E875
:1000D000956E4020956E501CE582B410177C007B15
:1000E000007A007908900000A86AE5667004C3E809
:1000F00013F801FD900000D2A8D2AA61C6E0FDC3AA
:100100009CC39840EF98EB33FB0582E0FCC39DC392
:100110009840E198EB33FB0582E0FDC39CC3984017
:10012000D398EB33FB0582E0FCC39DC39840C59890
:10013000EB33FB0582E0FDC39CC39840B798EB33DB
:10014000FB0582E0FCC39DC39840A998EB33FB05F7
:1001500082E0FDC39CC398409B98EB33FB0582E093
:10016000FCC39DC398408D98EB33FB0582217890AA
:100170000000D2A8D2AA61C6E0FDC39CC39840EF9C
:1001800098EA33FA0582E0FCC39DC39840E198EAFF
:1001900033FA0582E0FDC39CC39840D398EA33FA52
:1001A0000582E0FCC39DC39840C598EA33FA0582F6
:1001B000E0FDC39CC39840B798EA33FA0582E0FC9F
:1001C000C39DC39840A998EA33FA0582E0FDC39C19
:1001D000C398409B98EA33FA0582E0FCC39DC3981C
:1001E000408D98EA33FA0582EBC46B6A54F0F9EA61
:1001F000C454F0C3996009900000D2A8D2AA61C685
:10020000EBF4C454F0F9EAF4C4540F49FAEBF4C423
:10021000540FFBC3EAF99460FAEB9400FB5020C33F
:10022000E97B007A0079006016C3135006F9C39584
:1002300052600AE9F5527553007900800205533087
:100240003A27C3EA94D0F8EB9407F9400BE8FAE9AF
:10025000FB203509D235415D303502C235203902E7
:10026000B235C3EA33FAEB33FBEB2B3B3BF9C3EB81
:1002700013FBEA13FAEA29FAEB3400FB30E3047AC1
:10028000FF7BFFC3EA33C4540FF8EB33C454F04888
:10029000F87005EA60027801900000D2A8D2AAE5C1
:1002A000226002152281B3900000D2A8D2AA61C6B2
:1002B000C0D0C0E0C2CF0541E5666009E5656005D4
:1002C00075650041E3756501E52360021523C3E50B
:1002D00054600575550041E3E5552401F55550037B
:1002E0007555FFD0E0D0D032C2AF53E67F7592FA99
:1002F0007593FFC22053917FD2AF32C0E0E58A30C0
:100300003408856B8BF0A3D0E032D0E0C2AF53E667
:10031000EFC0D0C0E0C0F0D2D3D2AF5388EFA88AEC
:10032000A98CAA40308D010A758A00758C00754031
:1003300000438810E566700AC3E833F8E933F9EA48
:1003400033FA30331FE8C4540FFAE9C454F04AFAC0
:10035000C3132AFAC3E833F8E933F9E82AFAE9348F
:1003600006FB61B730320FC3E833E933FAE82AFA03
:10037000E93400FB61B7303115E875F056A4AAF0F6
:10038000E975F056A42AFAC5F03400FB61B7C3EA58
:1003900013FAE913F9E813F8E875F056A4AAF0E99E
:1003A00075F056A42AFAC5F03400C313FBEA13FA19
:1003B000C3EB13FBEA13FAC3EB94125009C3EA949C
:1003C00034EB940750160522E52270021522C3E58E
:1003D000229432500281F175540081F4E5226002CA
:1003E00015223036067C007D0861F6AC31AD323026
:1003F0003A04AC33AD34C3EA9CFAEB9DFB9208AEF1
:1004000060AF61303A425007203509D2358114304F
:100410003502C235303504AE62AF63203902B235E1
:10042000C3EA33FAEB33FBA208500AEAF42401FAD8
:10043000EBF43400FBC3EA9450FAEB9400FB501445
:1004400078007A007B008154A208500878007A0076
:100450007B0081B3E5255403601B202A18E55D333A
:10046000F9EB7007C3E99A4002E9FAE53CC4332A84
:10047000FAEB3400FBEA8EF0A4F9AAF0EB8EF0A4BC
:100480002AFAC5F03400FBC3EB13FDEA13F8C3ED01
:1004900013FDE813F80FEF146004C3E833F8C3E961
:1004A00033EA33FAEB33FBDFEDEB30E30678FF7A28
:1004B000FF7B078854D230E86003755500EAF4F8F2
:1004C000EBF45407F98856895775230AE55A30E248
:1004D00010D0F0D0E0D0D053F7DF43F74043E61020
:1004E00032D0F0D0E0D0D053D8FE43DA0143E6104A
:1004F0003275230AD0F0D0E0D0D043E61032C2AA41
:10050000D28EC2CA85CC6C85CD6DD2CA32C2AFC084
:10051000D0C0E0D2D38556FB8557FC85575A53F798
:10052000BF53DAFED2A8303402D2AA53E6EF53F713
:10053000DF53D8FED0E0D0D0D2AF32790180147929
:10054000038010790A800C791E8008796480047910
:10055000C880007817E4D5E0FDD8FAD9F62275E80E
:100560009022055EC3E55E9408405330EDF4A8BDCB
:10057000A9BE755E00E9FA79A0E76041EA7006E578
:100580005F6018800CC3E8955F600EE55F50056002
:100590000A1480070460FA8002E55FF55FC395697D
:1005A000401B755BC0C394044013755B80C3940407
:1005B000400B755B40C394044003755B0022E55B10
:1005C0002410500274FFF55B22743279A687F0A4E0
:1005D000C5F0A2F733F55D22203814C2AFC293C232
:1005E00090D291D29575D52FD2AF759F03C1D8C245
:1005F000AFC293C294D295D29175D53ED2AF759FBA
:1006000003C1D8203814C2AFC295D29375D53BC26E
:1006100090D291D2AF759F13C1D8C2AFC291D2937D
:1006200075D53BC294D295D2AF759F23C1D82038DF
:1006300014C2AFC291C294D295D29375D53BD2AFBA
:10064000759F23C1D8C2AFC295C290D291D2937583
:10065000D53BD2AF759F13C1D8203814C2AFC29317
:10066000D29175D53EC294D295D2AF759F03806862
:10067000C2AFC293D29575D52FC290D291D2AF7529
:100680009F038054203814C2AFC295C292D293D235
:100690009175D53ED2AF759F13803DC2AFC291C256
:1006A00092D293D29575D52FD2AF759F23802920F2
:1006B0003814C2AFC291D29575D52FC292D293D2BF
:1006C000AF759F238012C2AFC295D29175D53EC23D
:1006D00092D293D2AF759F13227A147B7880127ACC
:1006E000107B8C800C7A0D7BB480067A0B7BC880E3
:1006F00000E564D5E001227902E4C293D5E0FDD2A1
:1007000092D293D5E0FDC293D5E0FDC292D293D5AB
:10071000E0FDE920E004D290D29130E004D294D2FE
:1007200095E564D5E0FDE920E002C29130E002C227
:10073000957496D5E0FDD9C1EAF8D5E0FDD8FBDB8C
:10074000B0C29322C291C293C295C291C293C29584
:1007500075D53F22788076FF0876FF0876FF087609
:10076000FF0876FF0876FF0876090876FF0876010D
:10077000788C76010876FF0876FF0876FF0876FF0A
:100780000876FF0876030876FF0876FF0876FF08EC
:1007900076250876D00876FA08765008760408762A
:1007A000FF0876020876FF08767A0876FF08760753
:1007B0000876010876FF0876FF08760008760022A2
:1007C000FA75F00CA4ABF0EAC333F8740133F9E81E
:1007D000C333F8E933F9E8C32BF8E93400F9E8C387
:1007E00033F8E933F9227888E6C39403D23A500209
:1007F000C23AC238E630E102D238A238923978865D
:10080000E6149000809378A6F67886E6F53FC394C8
:10081000025003753F02789CE6753EFFB4020375F3
:100820003EA0B40303753E8278A0E6F86006742803
:100830002409D8FCF5697896E61207C08831893218
:10084000789EE61207C0883389347897E61207C08D
:1008500088358936120744223036117A007B007CB5
:10086000FF7D007E0011BE8B618A6022303A2278C3
:1008700096E6FA7B00789EE6FC7D00C3EA33FAEB4D
:1008800033FBC3EC33FCED33FD7E0A11BE8B638A70
:10089000627896303A02789EE6FA7B007897E6FC1A
:1008A0007D007E00303A10C3EA33FAEB33FBC3EC31
:1008B00033FCED33FD7E0A11BE8B618A6022C3ECEE
:1008C0009EFCED9400FDC3EC9AFCED9BFDC3EC9403
:1008D00023ED940050047C237D00C3EC94FFED9441
:1008E0000140047CFF7D017BFF0B7A000AEA70095E
:1008F000C3EC33FCED33FD01E9EC8AF0A4AEF0ED7E
:100900008AF0A42E947C40E4EAF460DD22D2361111
:10091000581205471205477A007B007C1012053FEC
:10092000E5542AFA74003BFBDCF37C04C3EB13FBB5
:10093000EA13FADCF7FFEB60027FFFC236115822A0
:1009400078A5E6F954037000E9540C7000E95430BE
:100950007000E954C07000227567007568007597D3
:10096000DE7597AD7581C043FF8075EF0675A900F0
:100970001207447580FF75F1F075A4007580FF754E
:10098000D4FF75900075F23F75A53F75900075D541
:100990003F75A60175E34075E202120744E4F8F6DC
:1009A000D8FD120754D1E878988664753001C2AF3B
:1009B00012054F1206D91205471206DF120547121B
:1009C00006E51205473140C2AF75670075680078CB
:1009D000FA79FA308507D9FBD8F7021C001207E62E
:1009E00011587898866412074475A91375A7107575
:1009F000C10075A70075660075E405758811758ED0
:100A00000475890975C80475910475D84075D908AD
:100A100075F783759E0075960275DA4A75DB007569
:100A2000A82375E69075B801759B80759D0075D1FA
:100A30000C75BCB975BB1075E88075B20112053B29
:100A4000D2AF753C00C23012054FC231C232C23340
:100A5000C23475520075530075220012054BC3E570
:100A600022940A5002612FD23175220012054BC325
:100A7000E522940A5002612FC231D232752200124F
:100A8000054BC3E522940A5002612F75E4D57588A1
:100A900051758E017589AA758C00758D00C2A9D219
:100AA000ABD2AA756B80756A14756E50C232D2349F
:100AB00075220A12054B756A10C3E522940A755215
:100AC000007553004069758E0C756B00756A28754A
:100AD0006E2875220A12054B756A20C3E522940A16
:100AE0007552007553004047758E0C756B80756AA2
:100AF00014756E1475220A12054B756A10C3E5222F
:100B0000940A755200755300402575E405758811E7
:100B1000758E04758909D2A9C2ABC2AAC234D23378
:100B200075220012054BC3E522940A400221C71228
:100B3000053F2030030209C7C2AF1206D91206D9F9
:100B40001206D9D2AF12054F203403303A03020BFC
:100B5000F212053F788CE6C39401500261F2E53051
:100B6000C39401500261F27567A57568F17F02D2E6
:100B700036115812054BC2AFC2361158C3E5549412
:100B80007FD2AF406D12053BC2AF1206EBD2AFDF92
:100B9000DE310DC3EF7897F612054F120FD57F0A9D
:100BA000D236115812054BC2AFC2361158C3E554A4
:100BB000947FD2AF50E812053BC2AF1206D912059E
:100BC000431206D9D2AFDFD8310DEF24037896F661
:100BD000F87997E7C394234003985006E8242378D4
:100BE00097F612054FF12F12100412054B115802FF
:100BF00009C775670075680012054BC3E554940179
:100C000040026148C2AF1206EB1206EB1206EBD2AD
:100C1000AF12054F753000E4F537F5380537E53785
:100C2000F4703F0538789AE6781914601278321417
:100C3000600D787D14600878FA146003753800C37D
:100C4000E53898401D12074412053B1538753700EA
:100C500078998664C2AF1206EBD2AF789886641298
:100C6000054B120543E523700221C7C3E5549401E7
:100C7000500AC3E55294015016020C1C12054BE5B4
:100C80002370030209C7755200755300020E31C369
:100C9000E55294017017C2AF120744789986641226
:100CA00006D978988664D2AF12054BC123C3E552AA
:100CB00094027017C2AF120744789986641206DF57
:100CC00078988664D2AF12054BC123C3E5529403D2
:100CD0007017C2AF120744789986641206E57898B7
:100CE0008664D2AF12054BC123C3E552940470173A
:100CF000C2AF120744789986641206EB789886642E
:100D0000D2AF12054BC123C3E55294057017C2AF91
:100D1000120744789986641206EB78988664D2AFFD
:100D200012054BC123C3E55294077019C3E55394D0
:100D3000065002816B7401303A0274037888F6C25F
:100D400038C239C123C3E55294087019C3E55394DE
:100D5000065002816B7402303A0274047888F6D22D
:100D600038D239C123C3E55294097017C3E55394AF
:100D7000065002816B303A0BC37888E69402F6C2C3
:100D80003AC123C3E552940A7016C3E55394065042
:100D900002816B203A0A7888E62402F6D23AC1230F
:100DA000C3E55294147025C3E55394065002816B39
:100DB000C2AF901A0B740093D2AF7888F613C23882
:100DC000C2394002D2384002D2398057C3E552942A
:100DD000157038C3E5539406404FC2AF901A0B7498
:100DE0000093D2AFF8B801027402B802027401B8DD
:100DF00003027404B8040274037888F613C238C27C
:100E0000394002D2384002D2398018C3E552940CDE
:100E100070117567A57568F1C3E5539406400AF132
:100E20002FD2AF7552007553007567007568008149
:100E30006BC2AF120744E4D2AFE4F55EF524F525AA
:100E4000F53D755E0812053B12055E30EDFDA8BD4F
:100E5000A9BEE97001F8885F120562755E08C2AF2D
:100E60001205C9855D5B855D5CD2AF75A71075C144
:100E70003075A70075A903756601C235303A033095
:100E80003A25203812203512C2AFC290D291D295A5
:100E900075D52FD2AF80102035EEC2AFC294D29557
:100EA000D29175D53ED2AFC3E55494014003020EF2
:100EB0007F8000C2AF12074475240075250075A914
:100EC0001375A71075C10075A700756600D2AF1223
:100ED000054B12074478A4E6600CC290D291C292EE
:100EE000D293C294D2958117901A0D7820F168E5BB
:100EF00020B4550AA3F168E520B4AA0280137567EF
:100F0000A57568F1120754F12F75670075680080A8
:100F10001D901A0378807B0AF168A308DBFA901A07
:100F20000F788C7B1AF168A308DBFA901A2922C289
:100F3000AFF1ABF188901A007410F16DA37407F152
:100F40006DA37421F16D901A0378807B0AF16CA374
:100F500008DBFA901A0F788C7B1AF16CA308DBFA85
:100F6000F1BEF19C901A2922E493F622E6438F0108
:100F7000538FFDFFC3E583941C400122EF8567B7C3
:100F80008568B7F0538FFE22438F02438F01856738
:100F9000B78568B7901A0DF0538FFC22901A0D7424
:100FA00055F16D901A0E74AAF16D227A3079D078CD
:100FB00020901A40F168E520F709A3DAF7227A3089
:100FC00079D0901A40E7F16D09A3DAF9227C051275
:100FD000054FDCFB22C2AF1206D91206DF1206E56E
:100FE0001206EB1205431206D91206DF1206E512AD
:100FF00006EB1205431206D91206DF1206E51206A9
:10100000EBD2AF22C2AF1206EB1206E51206DF12D8
:1010100006D91205431206EB1206E51206DF120688
:10102000D91205431206EB1206E51206DF1206D9A5
:03103000D2AF221A
:1019FD00020958100721FFFFFFFFFFFF09FF01FF3D
:101A0D0055AA01FFFFFFFFFF03FFFFFF25D0FA508F
:0D1A1D0004FF02FF7AFF0701FFFF0000FF3A
:101A400023475F485F3030232020202020202020A3
:101A500023424C48454C492445464D3842323123B7
:101A60002020202020202020202020202020202076
:101C0000C2AFC2D37597DE7597AD7581C075A90057
:101C100043FF80752438752503B1DB7529A5752A26
:101C2000F143F12053A4DFD28575D4FF75E3407DE5
:101C3000FA780379E67C10752200752300901DE880
:101C40007B0675249875250130850281482085081A
:101C5000D8FBD9F9DCF781BA308508D8FBD9F9DC93
:101C6000F781BAB19BE493A3C39A6004DDC381BA40
:101C7000DBDBB18D600281317B08E493FAA3B16EA6
:101C8000DBF87A30B16E752200752300B18DEAFC65
:101C9000EBFDC3ED94FE400EB18D8A278B28ED300D
:101CA000E0048A828B83B18D7AC270D8C3ED94FE32
:101CB000601950CEBD0029EC600F7520007521FF22
:101CC000752900752A000200008100A827A92808AC
:101CD00009D804D90281DDB191EAF281D10D81A642
:101CE000C3ED94035051EDA2E092007AC5C3E582A2
:101CF0009400E583941C508C200010438F02438F86
:101D0000018529B7852AB7F0300027A827A9280818
:101D100009438F01538FFDD804D902A132C3E58353
:101D2000941C4003A3A117E28529B7852AB7F0A325
:101D3000A117538FFC81827AC1BD030CE493A3FAEF
:101D4000B152DCF8B14A81828184AA22AB23B16E00
:101D5000EBFAEA6222752608C3E52313F523E52290
:101D600013F52250066323A0632201D526EAB1DBD6
:101D7000B1DB75260AEAF4200102D285300102C2E5
:101D800085B1DBC3134002C201D526EB22B191EA33
:101D9000FB208502A191308502A196752608AE240C
:101DA000AF25C3EF13FFEE13FEB1DFB1DBC3EA13C0
:101DB0003085024480FA30E703632201C3E5231330
:101DC000F523E52213F52250066323A0632201D5F3
:101DD00026D9E52265236523F52222AE24AF250E00
:101DE0000FDEFEDFFCD20122424C48656C693437BD
:061DF0003164E8B20601B7
:00000001FF
