:020000040000FA
:060000000219FD0202FBE3
:03000B0002008D63
:030013000204FCE8
:03001B0002009050
:03002B000202B01E
:03005B0002050B90
:030073000202E89E
:100080000406080C10182030406080A0C0054032E3
:10009000C2AFC2A853E6EFC28E856B8BC0D0D2D35D
:1000A000C0E0C0F0C2CAA8CCA9CDD2CAD2AF758A6E
:1000B00000C3E8956CF8E9956DF9C3E913F9E81305
:1000C000F8E5666007C3E913F9E813F8E97025E875
:1000D000956E4020956E501CE582B410177C007B15
:1000E000007A007908900000A86AE5667004C3E809
:1000F00013F801FD900000D2A8D2AA61C6E0FDC3AA
:100100009CC39840EF98EB33FB0582E0FCC39DC392
:100110009840E198EB33FB0582E0FDC39CC3984017
:10012000D398EB33FB0582E0FCC39DC39840C59890
:10013000EB33FB0582E0FDC39CC39840B798EB33DB
:10014000FB0582E0FCC39DC39840A998EB33FB05F7
:1001500082E0FDC39CC398409B98EB33FB0582E093
:10016000FCC39DC398408D98EB33FB0582217890AA
:100170000000D2A8D2AA61C6E0FDC39CC39840EF9C
:1001800098EA33FA0582E0FCC39DC39840E198EAFF
:1001900033FA0582E0FDC39CC39840D398EA33FA52
:1001A0000582E0FCC39DC39840C598EA33FA0582F6
:1001B000E0FDC39CC39840B798EA33FA0582E0FC9F
:1001C000C39DC39840A998EA33FA0582E0FDC39C19
:1001D000C398409B98EA33FA0582E0FCC39DC3981C
:1001E000408D98EA33FA0582EBC46B6A54F0F9EA61
:1001F000C454F0C3996009900000D2A8D2AA61C685
:10020000EBF4C454F0F9EAF4C4540F49FAEBF4C423
:10021000540FFBC3EAF99460FAEB9400FB5020C33F
:10022000E97B007A0079006016C3135006F9C39584
:1002300052600AE9F5527553007900800205533087
:100240003A27C3EA94D0F8EB9407F9400BE8FAE9AF
:10025000FB203509D235415D303502C235203902E7
:10026000B235C3EA33FAEB33FBEB2B3B3BF9C3EB81
:1002700013FBEA13FAEA29FAEB3400FB30E3047AC1
:10028000FF7BFFC3EA33C4540FF8EB33C454F04888
:10029000F87005EA60027801900000D2A8D2AAE5C1
:1002A000226002152281B3900000D2A8D2AA61C6B2
:1002B000C0D0C0E0C2CF0541E5666009E5656005D4
:1002C00075650041E3756501E52360021523C3E50B
:1002D00054600575550041E3E5552401F55550037B
:1002E0007555FFD0E0D0D032C2AF53E67F7592FA99
:1002F0007593FFC22053917FD2AF32C0E0E58A30C0
:100300003408856B8BF0A3D0E032D0E0C2AF53E667
:10031000EFC0D0C0E0C0F0D2D3D2AF5388EFA88AEC
:10032000A98CAA40308D010A758A00758C00754031
:1003300000438810E566700AC3E833F8E933F9EA48
:1003400033FA30331FE8C4540FFAE9C454F04AFAC0
:10035000C3132AFAC3E833F8E933F9E82AFAE9348F
:1003600006FB61B730320FC3E833E933FAE82AFA03
:10037000E93400FB61B7303115E875F056A4AAF0F6
:10038000E975F056A42AFAC5F03400FB61B7C3EA58
:1003900013FAE913F9E813F8E875F056A4AAF0E99E
:1003A00075F056A42AFAC5F03400C313FBEA13FA19
:1003B000C3EB13FBEA13FAC3EB94125009C3EA949C
:1003C00034EB940750160522E52270021522C3E58E
:1003D000229432500281EF75540081F2E5226002CE
:1003E00015223036067C007D0861F6AC31AD323026
:1003F0003A04AC33AD34C3EA9CFAEB9DFB9208AEF1
:1004000060AF61303A425007203509D2358114304F
:100410003502C235303504AE62AF63203902B235E1
:10042000C3EA33FAEB33FBA208500AEAF42401FAD8
:10043000EBF43400FBC3EA9450FAEB9400FB501445
:1004400078007A007B008154A208500878007A0076
:100450007B0081B3E5255403601B202A18E55D333A
:10046000F9EB7007C3E99A4002E9FAE53CC4332A84
:10047000FAEB3400FBEA8EF0A4F9AAF0EB8EF0A4BC
:100480002AFAC5F03400FBC3EB13FDEA13F8C3ED01
:1004900013FDE813F80FEF146004C3E833F8C3E961
:1004A00033EA33FAEB33FBDFEDEB30E30678FF7A28
:1004B000FF7B078854D230E86003755500EAF4F8F2
:1004C000EBF45407F9C3E89414FAE99400FB5004E0
:1004D0007A007B00885689578A588B5975230AD031
:1004E000F0D0E0D0D053F7DF43F74043E610327549
:1004F000230AD0F0D0E0D0D043E61032C2AAD28E88
:10050000C2CA85CC6C85CD6DD2CA32C2AFC0D0C054
:10051000E0D2D3A8F9E55A30E20AE5FA20E2352024
:10052000E132A12CE5FA30E22B20E128C3E5571394
:10053000F8E55613F5E988EAC3E55913F8E55813C9
:10054000F5FB88FC85575A53F7BFD2A8303402D246
:10055000AA53E6EF53F7DFD0E0D0D0D2AF32790123
:10056000801479038010790A800C791E80087964E0
:10057000800479C880007817E4D5E0FDD8FAD9F670
:100580002275E89022055EC3E55E9408405330ED85
:10059000F4A8BDA9BE755E00E9FA79A0E76041EA5A
:1005A0007006E55F6018800CC3E8955F600EE55F3C
:1005B0005005600A1480070460FA8002E55FF55F69
:1005C000C39569401B755BC0C394044013755B8081
:1005D000C39404400B755B40C394044003755B00F7
:1005E00022E55B2410500274FFF55B22743279A679
:1005F00087F0A4C5F0A2F733F55D22203810C2AF12
:10060000D291C29075D533D2AF759F32C1CBC2AFF4
:10061000D291C29275D51ED2AF759F32C1CB203810
:1006200010C2AFC29375D52DC290D2AF759F52C183
:10063000CBC2AFC29575D52DC292D2AF759F12C1F4
:10064000CB203810C2AFD290C29275D52DD2AF75E3
:100650009F128077C2AFD292C29075D52DD2AF755E
:100660009F528067203810C2AFC29475D51EC292C7
:10067000D2AF759F328054C2AFC29475D533C29049
:10068000D2AF759F328044203810C2AFD292C2914F
:1006900075D51ED2AF759F528031C2AFD290C29134
:1006A00075D533D2AF759F128021203810C2AFC2EA
:1006B0009575D533C291D2AF759F12800EC2AFC26D
:1006C0009375D51EC291D2AF759F52227A147B7852
:1006D00080127A107B8C800C7A0D7BB480067A0BAA
:1006E0007BC88000E564D5E001227902E4D291D58F
:1006F000E0FDD294D5E0FDC294D5E0FDC291D5E0F5
:10070000FDE920E002D29530E002D293E564D5E025
:10071000FDE920E002C29530E002C2937496D5E074
:10072000FDD9C9EAF8D5E0FDD8FBDBB8D29122C2E9
:1007300095C294C293D290D291D29275D53F22782D
:100740008076FF0876FF0876FF0876FF0876FF08B8
:1007500076FF0876090876FF087601788C7601081E
:1007600076FF0876FF0876FF0876FF0876FF0876A2
:10077000030876FF0876FF0876FF0876250876D00E
:100780000876FA0876500876040876FF087602089C
:1007900076FF08767A0876FF0876070876010876ED
:1007A000FF0876FF08760008760022FA75F00CA4A0
:1007B000ABF0EAC333F8740133F9E8C333F8E93333
:1007C000F9E8C32BF8E93400F9E8C333F8E933F961
:1007D000227888E6C39403D23A5002C23AC238E67D
:1007E00030E102D238A23892397886E6149000803F
:1007F0009378A6F67886E6F53FC394025003753FDA
:1008000002789CE6753EFFB40203753EA0B4030374
:10081000753E8278A0E6F8600674282409D8FCF5B5
:10082000697896E61207AB88318932789EE612071E
:10083000AB883389347897E61207AB88358936124E
:10084000072F223036117A007B007CFF7D007E006E
:1008500011A98B618A6022303A227896E6FA7B00F1
:10086000789EE6FC7D00C3EA33FAEB33FBC3EC333E
:10087000FCED33FD7E0A11A98B638A627896303ACB
:1008800002789EE6FA7B007897E6FC7D007E0030D9
:100890003A10C3EA33FAEB33FBC3EC33FCED33FD20
:1008A0007E0A11A98B618A6022C3EC9EFCED940044
:1008B000FDC3EC9AFCED9BFDC3EC9423ED9400503A
:1008C000047C237D00C3EC94FFED940140047CFF85
:1008D0007D017BFF0B7A000AEA7009C3EC33FCED63
:1008E00033FD01D4EC8AF0A4AEF0ED8AF0A42E948E
:1008F0007C40E4EAF460DD22D236114312056A122C
:10090000056A7A007B007C10120562E5542AFA74AD
:10091000003BFBDCF37C04C3EB13FBEA13FADCF7CC
:10092000FFEB60027FFFC23611432278A5E6F9543F
:10093000037000E9540C7000E954307000E954C0B1
:100940007000227567007568007597DE7597AD7544
:1009500081C043FF8075EF0675A90012072F7580CF
:10096000FF75F1D175A4007580FF75D4FF759007F0
:1009700075F23F75A53F75900775D53F75A6017552
:10098000E34075E20212072FE4F8F6D8FD12073FA4
:10099000D1C478988664753001C2AF120572120610
:1009A000CC12056A1206D212056A1206D812056A1E
:1009B000312BC2AF75670075680078FA79FA30801C
:1009C00007D9FBD8F7021C001207D111437898868B
:1009D0006412072F75A91375A71075C10075A700BC
:1009E00075660075E400758811758E047589097542
:1009F000C80475910475D84075D90875F782759E3D
:100A00000375960075DB4275DA4275A82375E6908A
:100A100075B801759B80759D0075D10C75BCB97555
:100A2000BB1075E88075B20112055ED2AF753C004F
:100A3000C230120572C231C232C233C234755200A2
:100A400075530075220012056EC3E522940A500208
:100A5000611AD23175220012056EC3E522940A5044
:100A600002611AC231D23275220012056EC3E5222C
:100A7000940A5002611A75E480758851758E01756B
:100A800089AA758C00758D00C2A9D2ABD2AA756BEC
:100A900080756A14756E50C232D23475220A1205FE
:100AA0006E756A10C3E522940A75520075530040B2
:100AB00069758E0C756B00756A28756E2875220A2B
:100AC00012056E756A20C3E522940A7552007553AB
:100AD000004047758E0C756B80756A14756E1475C1
:100AE000220A12056E756A10C3E522940A75520037
:100AF000755300402575E400758811758E0475895D
:100B000009D2A9C2ABC2AAC234D2337522001205DF
:100B10006EC3E522940A400221B21205622030031E
:100B20000209B2C2AF1206CC1206CC1206CCD2AF6A
:100B3000120572203403303A03020BDC120562788E
:100B40008CE6C39401500261DCE530C3940150028D
:100B500061DC7567A57568F17F02D2361143120515
:100B60006EC2AFC2361143C3E554947FD2AF406C1E
:100B700012055EC2AF1206DED2AFDFDE11F8C3EFA0
:100B80007897F6120572F1B17F0AD2361143120539
:100B90006EC2AFC2361143C3E554947FD2AF50E862
:100BA00012055EC2AF1206CC1205661206CCD2AF99
:100BB000DFD811F8EF24037896F6F87997E7C39415
:100BC000234003985006E824237897F6120572F123
:100BD0000B120FE012056E11430209B27567007522
:100BE000680012056EC3E554940140026133C2AF40
:100BF0001206DE1206DE1206DED2AF120572753064
:100C000000E4F537F5380537E537F4703F053878F7
:100C10009AE67819146012783214600D787D1460A9
:100C20000878FA146003753800C3E53898401D123F
:100C3000072F12055E153875370078998664C2AFA4
:100C40001206DED2AF7898866412056E120566E54C
:100C500023700221B2C3E5549401500AC3E55294B3
:100C6000015016020C0612056EE52370030209B24C
:100C7000755200755300020E1BC3E55294017017A4
:100C8000C2AF12072F789986641206CC78988664D2
:100C9000D2AF12056EC10DC3E55294027017C2AFF8
:100CA00012072F789986641206D278988664D2AF9C
:100CB00012056EC10DC3E55294037017C2AF12073F
:100CC0002F789986641206D878988664D2AF120578
:100CD0006EC10DC3E55294047017C2AF12072F788E
:100CE0009986641206DE78988664D2AF12056EC1CA
:100CF0000DC3E55294057017C2AF12072F7899867D
:100D0000641206DE78988664D2AF12056EC10DC3F8
:100D1000E55294077019C3E5539406500281557447
:100D200001303A0274037888F6C238C239C10DC363
:100D3000E55294087019C3E5539406500281557426
:100D400002303A0274047888F6D238D239C10DC321
:100D5000E55294097017C3E553940650028155304B
:100D60003A0BC37888E69402F6C23AC10DC3E55245
:100D7000940A7016C3E553940650028155203A0A2E
:100D80007888E62402F6D23AC10DC3E55294147075
:100D900025C3E553940650028155C2AF901A0B74D7
:100DA0000093D2AF7888F613C238C2394002D238E5
:100DB0004002D2398057C3E55294157038C3E553C9
:100DC0009406404FC2AF901A0B740093D2AFF8B89C
:100DD00001027402B802027401B803027404B80478
:100DE0000274037888F613C238C2394002D2384000
:100DF00002D2398018C3E552940C70117567A5753D
:100E000068F1C3E5539406400AF10BD2AF75520066
:100E10007553007567007568008155C2AF12072FC2
:100E2000E4D2AFE4F55EF524F525F53D755E0812D4
:100E3000055E12058130EDFDA8BDA9BEE97001F87F
:100E4000885F120585755E08C2AF1205EC855D5B93
:100E5000855D5CD2AF75A71075C13075A70075A907
:100E600003756601C235303A03303A1D20380E2032
:100E7000350EC2AFC29075D533D2AF800C2035F29B
:100E8000C2AFC29275D51ED2AFC3E55494014003E0
:100E9000020E698000C2AF12072F7524007525006D
:100EA00075A91375A71075C10075A700756600D2E6
:100EB000AF12056E12072F78A4E66006C290C291A9
:100EC000C2928101901A0D7820F144E520B4550AB0
:100ED000A3F144E520B4AA0280137567A57568F1F3
:100EE00012073FF10B756700756800801D901A03AB
:100EF00078807B0AF144A308DBFA901A0F788C7B88
:100F00001AF144A308DBFA901A2922C2AFF187F143
:100F100064901A007410F149A37407F149A3742175
:100F2000F149901A0378807B0AF148A308DBFA9014
:100F30001A0F788C7B1AF148A308DBFAF19AF17842
:100F4000901A2922E493F622E6438F01538FFDFF86
:100F5000C3E583941C400122EF8567B78568B7F02D
:100F6000538FFE22438F02438F018567B78568B791
:100F7000901A0DF0538FFC22901A0D7455F1499080
:100F80001A0E74AAF149227A3079D07820901A404A
:100F9000F144E520F709A3DAF7227A3079D0901AE4
:100FA00040E7F14909A3DAF9227C05120572DCFB5E
:100FB00022C2AF1206CC1206D21206D81206DE12D8
:100FC00005661206CC1206D21206D81206DE1205EB
:100FD000661206CC1206D21206D81206DED2AF2254
:100FE000C2AF1206DE1206D81206D21206CC1205C5
:100FF000661206DE1206D81206D21206CC1205665A
:0F1000001206DE1206D81206D21206CCD2AF228A
:1019FD00020943100721FFFFFFFFFFFF09FF01FF52
:101A0D0055AA01FFFFFFFFFF03FFFFFF25D0FA508F
:0D1A1D0004FF02FF7AFF0701FFFF0000FF3A
:101A4000234B5F485F31302320202020202020209E
:101A500023424C48454C492445464D3842323123B7
:101A60002020202020202020202020202020202076
:101C0000C2AFC2D37597DE7597AD7581C075A90057
:101C100043FF80752438752503B1DB7529A5752A26
:101C2000F143F10153A4FED28075D4FF75E3407DEA
:101C3000FA780379E67C10752200752300901DE880
:101C40007B06752498752501308002814820800824
:101C5000D8FBD9F9DCF781BA308008D8FBD9F9DC98
:101C6000F781BAB19BE493A3C39A6004DDC381BA40
:101C7000DBDBB18D600281317B08E493FAA3B16EA6
:101C8000DBF87A30B16E752200752300B18DEAFC65
:101C9000EBFDC3ED94FE400EB18D8A278B28ED300D
:101CA000E0048A828B83B18D7AC270D8C3ED94FE32
:101CB000601950CEBD0029EC600F7520007521FF22
:101CC000752900752A000200008100A827A92808AC
:101CD00009D804D90281DDB191EAF281D10D81A642
:101CE000C3ED94035051EDA2E092007AC5C3E582A2
:101CF0009400E583941C508C200010438F02438F86
:101D0000018529B7852AB7F0300027A827A9280818
:101D100009438F01538FFDD804D902A132C3E58353
:101D2000941C4003A3A117E28529B7852AB7F0A325
:101D3000A117538FFC81827AC1BD030CE493A3FAEF
:101D4000B152DCF8B14A81828184AA22AB23B16E00
:101D5000EBFAEA6222752608C3E52313F523E52290
:101D600013F52250066323A0632201D526EAB1DBD6
:101D7000B1DB75260AEAF4200102D280300102C2EA
:101D800080B1DBC3134002C201D526EB22B191EA38
:101D9000FB208002A191308002A196752608AE2416
:101DA000AF25C3EF13FFEE13FEB1DFB1DBC3EA13C0
:101DB0003080024480FA30E703632201C3E5231335
:101DC000F523E52213F52250066323A0632201D5F3
:101DD00026D9E52265236523F52222AE24AF250E00
:101DE0000FDEFEDFFCD20122424C48656C693437BD
:061DF0003164E8B20601B7
:00000001FF
