:020000040000FA
:060000000219FD0202EFEF
:030013000204C81C
:03001B0002008D53
:03002B000202B41A
:03005B000204D7C5
:030073000202DCAA
:100080000406080C10182030406080A0C0C2AFC227
:10009000A853E6EFC28E856B8BC0D0D2D3C0E0C030
:1000A000F0C2CAA8CCA9CDD2CAD2AF758A00C3E823
:1000B000956CF8E9956DF9C3E913F9E813F8E5666D
:1000C0006007C3E913F9E813F8E97025E8956E4075
:1000D00020956E501CE582B410177C007B007A00DE
:1000E0007908900000A86AE5667004C3E813F80177
:1000F000FA900000D2A8D2AA6199E0FDC39CC398EF
:1001000040EF98EB33FB0582E0FCC39DC39840E1D0
:1001100098EB33FB0582E0FDC39CC39840D398EB7A
:1001200033FB0582E0FCC39DC39840C598EB33FBCD
:100130000582E0FDC39CC39840B798EB33FB058272
:10014000E0FCC39DC39840A998EB33FB0582E0FD1A
:10015000C39CC398409B98EB33FB0582E0FCC39D96
:10016000C398408D98EB33FB05822175900000D237
:10017000A8D2AA6199E0FDC39CC39840EF98EA33E6
:10018000FA0582E0FCC39DC39840E198EA33FA0582
:1001900082E0FDC39CC39840D398EA33FA0582E01D
:1001A000FCC39DC39840C598EA33FA0582E0FDC3BD
:1001B0009CC39840B798EA33FA0582E0FCC39DC31C
:1001C0009840A998EA33FA0582E0FDC39CC39840A1
:1001D0009B98EA33FA0582E0FCC39DC398408D9852
:1001E000EA33FA0582EBC46B6A54F0F9EAC454F0BE
:1001F000C3996009900000D2A8D2AA6199EBF4C417
:1002000054F0F9EAF4C4540F49FAEBF4C4540FFB68
:10021000C3EAF99460FAEB9400FB5020C3E97B0039
:100220007A0079006016C3135006F9C39552600A2C
:10023000E9F552755300790080020553303A27C31F
:10024000EA94D0F8EB9407F9400BE8FAE9FB203583
:1002500009D235415A303502C235203902B235C390
:10026000EA33FAEB33FBEB2B3B3BF9C3EB13FBEA33
:1002700013FAEA29FAEB3400FB30E3047AFF7BFF40
:10028000C3EA33C4540FF8EB33C454F048F8700594
:10029000EA60027801C3EB13FBEA13FA900000D284
:1002A000A8D2AAE52260021522817D900000D2A882
:1002B000D2AA6199C0D0C0E0C2CF0541E523600257
:1002C0001523C3E554600575550041D7E555240154
:1002D000F55550037555FFD0E0D0D032C2AF53E68C
:1002E0007F7592FA7593FFC22053917FD2AF32C0CF
:1002F000E0E58A303408856B8BF0A3D0E032D0E0A3
:10030000C2AF53E6EFC0D0C0E0C0F0D2D3D2AF53FB
:1003100088EFA88AA98C758A00758C0043881030F4
:10032000331FE8C4540FFAE9C454F04AFAC3132A3D
:10033000FAC3E833F8E933F9E82AFAE93403FB6150
:100340008A30320FC3E833E933FAE82AFAE9340095
:10035000FB618A303115E875F056A4AAF0E975F012
:1003600056A42AFAC5F03400FB618AE875F02BA484
:10037000AAF0E975F02BA42AFAC5F03400C313FBE8
:10038000EA13FAC3EB13FBEA13FAC3EB940950091F
:10039000C3EA949AEB940350160522E522700215E5
:1003A00022C3E5229432500281BB75540081BEE520
:1003B00022600215223036067C007D0461C9AC3112
:1003C000AD32303A04AC33AD34C3EA9CFAEB9DFB5A
:1003D0009208AE60AF61303A425007203509D235FD
:1003E00061E7303502C235303504AE62AF63203983
:1003F00002B235C3EA33FAEB33FBA208500AEAF43F
:100400002401FAEBF43400FBC3EA9428FAEB9400DD
:10041000FB501478007A007B008127A208500878EE
:10042000007A007B00817DE52554036019202A169F
:10043000E55DF9EB7007C3E99A4002E9FAE53CC4CF
:100440002AFAEB3400FBEA8EF0A4F9AAF0EB8EF066
:10045000A42AFAC5F03400FBC3EB13FDEA13F80F2E
:10046000EF146004C3E833F8C3E933EA33FAEB333B
:10047000FBDFEDEB30E20678FF7AFF7B038854D296
:1004800030E86003755500EAF4F8EBF45403F9889A
:1004900056895775230AE55A30E110D0F0D0E0D0E4
:1004A000D053F7DF43F74043E61032D0F0D0E0D02E
:1004B000D053D8FE43DA0143E6103275230AD0F058
:1004C000D0E0D0D043E61032C2AAD28EC2CA85CCC8
:1004D0006C85CD6DD2CA32C2AFC0D0C0E0D2D38558
:1004E00056FB8557FC85575A53F7BF53DAFED2A8FF
:1004F000303402D2AA53E6EF53F7DF53D8FED0E0F0
:10050000D0D0D2AF327901801479038010790A807B
:100510000C791E80087964800479C880007817E41B
:10052000D5E0FDD8FAD9F62275E89022055EC3E53C
:100530005E9408405330EDF4A8BDA9BE755E00E995
:10054000FA79A0E76041EA7006E55F6018800CC3A5
:10055000E8955F600EE55F5005600A14800704604F
:10056000FA8002E55FF55FC39569401B755BC0C308
:1005700094044013755B80C39404400B755B40C3C7
:1005800094044003755B0022E55B2410500274FF65
:10059000F55B22743279A687F0A4C5F0A2F733F593
:1005A0005D22203814C2AFC295C291D294D2967502
:1005B000D577D2AF759F45C1A2C2AFC295C293D2C3
:1005C00096D29475D57DD2AF759F45C1A2203814BF
:1005D000C2AFC296D29575D57BC291D294D2AF7577
:1005E0009F65C1A2C2AFC294D29575D57BC293D28A
:1005F00096D2AF759F75C1A2203814C2AFC294C203
:1006000093D296D29575D57BD2AF759F75C1A2C294
:10061000AFC296C291D294D29575D57BD2AF759F59
:1006200065C1A2203814C2AFC295D29475D57DC2DF
:1006300093D296D2AF759F458068C2AFC295D296CD
:1006400075D577C291D294D2AF759F45805420382A
:1006500014C2AFC296C292D295D29475D57DD2AF54
:10066000759F65803DC2AFC294C292D295D29675F5
:10067000D577D2AF759F758029203814C2AFC29448
:10068000D29675D577C292D295D2AF759F758012EA
:10069000C2AFC296D29475D57DC292D295D2AF75B3
:1006A0009F65227A147B7880127A107B8C800C7A7A
:1006B0000D7BB480067A0B7BC88000E564D5E00131
:1006C000227902E4C295D5E0FDD292D295D5E0FD23
:1006D000C295D5E0FDC292D295D5E0FDE920E004B7
:1006E000D291D29430E004D293D296E564D5E0FD65
:1006F000E920E002C29430E002C2967496D5E0FD93
:10070000D9C1EAF8D5E0FDD8FBDBB0C29522C2948E
:10071000C295C296C294C295C29675D57F22788042
:1007200076FF0876FF0876FF0876FF0876FF0876E2
:10073000FF0876090876FF087601788C760108763E
:10074000FF0876FF0876FF0876FF0876FF08760335
:100750000876FF0876FF0876FF0876250876D00829
:1007600076FA0876500876040876FF08760208764E
:10077000FF08767A0876FF0876070876010876FF84
:100780000876FF08760008760022FA75F00CA4AB14
:10079000F0EAC333F8740133F9E8C333F8E933F905
:1007A000E8C32BF8E93400F9227888E6C39403D231
:1007B0003A5002C23AC238E630E102D238A2389248
:1007C000397886E6149000809378A6F67886E6F568
:1007D0003FC394025003753F02789CE6753EFFB418
:1007E0000203753EA0B40303753E8278A0E6F8606C
:1007F0000674282409D8FCF5697896E6F18A8831D0
:100800008932789EE612078A883389347897E6120F
:10081000078A8835893612070E223036117A007B16
:10082000007CFF7D007E0011808B618A6022303A5F
:10083000227896E6FA7B00789EE6FC7D00C3EA33D8
:10084000FAEB33FBC3EC33FCED33FD7E0A11808BF6
:10085000638A627896303A02789EE6FA7B0078974F
:10086000E6FC7D007E00303A10C3EA33FAEB33FB3E
:10087000C3EC33FCED33FD7E0A11808B618A60226C
:10088000C3EC9EFCED9400FDC3EC9AFCED9BFDC314
:10089000EC9423ED940050047C237D00C3EC94FF82
:1008A000ED940140047CFF7D017BFF0B7A000AEA96
:1008B0007009C3EC33FCED33FD01ABEC8AF0A4AE60
:1008C000F0ED8AF0A42E947C40E4EAF460DD22D2BC
:1008D00036111A1205111205117A007B007C1012D4
:1008E0000509E5542AFA74003BFBDCF37C04C3EBF6
:1008F00013FBEA13FADCF7FFEB60027FFFC236114D
:100900001A2278A5E6F95403D2827002C282E95411
:100910000C7000E954307000E954C0700022756713
:10092000007568007597DE7597AD7581C043FF80CF
:1009300075EF0675A90012070E7580FB75F10F752E
:10094000A4047580FB75D4FF75900075F27E75A5C3
:100950007E75900075D57F75A60175E34075E2023E
:1009600012070EE4F8F6D8FD12071ED17F7898869C
:1009700064753001C2AF1205191206A312051112D7
:1009800006A91205111206AF1205113102C2AF7588
:10099000670075680078FA79FA308307D9FBD8F7D1
:1009A000021C001207A9111A7898866412070E75A6
:1009B000E403758811758E0475890975C8047591ED
:1009C0000475D84075D90875F782759E0075960232
:1009D00075DA4A75DB0075A82175E69075B8017562
:1009E0009B80759D0075D10C75BC5975BB1075E861
:1009F0008075B201120505D2AF753C00C2301205F8
:100A000019C231C232C233C23475520075530075F7
:100A10002200120515C3E522940A500241E6D231A4
:100A2000752200120515C3E522940A500241E6C260
:100A300031D232752200120515C3E522940A500204
:100A400041E675E4B3758851758E017589AA758C78
:100A500000758D00C2A9D2ABD2AA756BC0756A149D
:100A6000756E50C232D23475220A120515756A109D
:100A7000C3E522940A7552007553004069758E0CC7
:100A8000756B80756A28756E2875220A12051575B2
:100A90006A20C3E522940A755200755300404775D9
:100AA0008E0C756BC0756A14756E1475220A12056A
:100AB00015756A10C3E522940A75520075530040FB
:100AC0002575E403758811758E04758909D2A9C24C
:100AD000ABC2AAC234D233752200120515C3E52277
:100AE000940A4002218D12050920300302098DC2AB
:100AF000AF1206A31206A31206A3D2AF1205192045
:100B00003403303A03020BA7120509788CE6C3942C
:100B100001500261A7E530C39401500261A77567D7
:100B2000A57568F17F02D236111A120515C2AFC23F
:100B300036111AC3E554947FD2AF406B120505C23B
:100B4000AF1206B5D2AFDFDE11CFC3EF7897F61242
:100B50000519F16C7F0AD236111A120515C2AFC2FF
:100B600036111AC3E554947FD2AF50E8120505C27E
:100B7000AF1206A312050D1206A3D2AFDFD811CF14
:100B8000EF24037896F6F87997E7C3942340039807
:100B90005006E824237897F6120519D1C6F19B1266
:100BA0000515111A02098D75670075680012051583
:100BB000C3E5549401400241FFC2AF1206B51206CC
:100BC000B51206B5D2AF120519753000E4F537F548
:100BD000380537E537F4703F0538789AE678191408
:100BE0006012783214600D787D14600878FA146011
:100BF00003753800C3E53898401D12070E1205052D
:100C0000153875370078998664C2AF1206B5D2AF31
:100C10007898866412051512050DE5237002218D62
:100C2000C3E5549401500AC3E55294015016020BD7
:100C3000D1120515E523700302098D755200755315
:100C400000020DE6C3E55294017017C2AF12070E01
:100C5000789986641206A378988664D2AF12051537
:100C6000A1D8C3E55294027017C2AF12070E78994B
:100C700086641206A978988664D2AF120515A1D8A9
:100C8000C3E55294037017C2AF12070E78998664B9
:100C90001206AF78988664D2AF120515A1D8C3E5C5
:100CA0005294047017C2AF12070E78998664120628
:100CB000B578988664D2AF120515A1D8C3E55294D1
:100CC000057017C2AF12070E789986641206B578C0
:100CD000988664D2AF120515A1D8C3E55294077067
:100CE00019C3E5539406500281207401303A02740E
:100CF000037888F6C238C239A1D8C3E55294087087
:100D000019C3E5539406500281207402303A0274EC
:100D1000047888F6D238D239A1D8C3E55294097044
:100D200017C3E553940650028120303A0BC37888EC
:100D3000E69402F6C23AA1D8C3E552940A7016C3EB
:100D4000E553940650028120203A0A7888E624026E
:100D5000F6D23AA1D8C3E55294147025C3E5539452
:100D60000650028120C2AF901A0B740093D2AF7864
:100D700088F613C238C2394002D2384002D23980D4
:100D800057C3E55294157038C3E5539406404FC2DB
:100D9000AF901A0B740093D2AFF8B801027402B886
:100DA00002027401B803027404B804027403788860
:100DB000F613C238C2394002D2384002D239801804
:100DC000C3E552940C70117567A57568F1C3E553BE
:100DD0009406400AD1C6D2AF7552007553007567AC
:100DE000007568008120C2AF12070EE4D2AFE4F5AF
:100DF0005EF524F525F53D755E08120505120528FA
:100E000030EDFDA8BDA9BEE97001F8885F12052C80
:100E1000755E08C2AF120593855D5B855D5CD2AFE0
:100E2000C235303A03303A25203812203512C2AF8D
:100E3000C291D294D29675D577D2AF80102035EE7C
:100E4000C2AFC293D296D29475D57DD2AFC3E554CA
:100E500094014003020E258000C2AF12070E7524D4
:100E600000752500D2AF12051512070E78A4E660B2
:100E70000CC291D294C292D295C293D29661CC9078
:100E80001A0D7820D1FFE520B4550AA3D1FFE52043
:100E9000B4AA0280137567A57568F112071ED1C642
:100EA000756700756800801D901A0378807B0AD1F1
:100EB000FFA308DBFA901A0F788C7B1AD1FFA308E6
:100EC000DBFA901A2922C2AFF142F11F901A007486
:100ED00010F104A37407F104A37421F104901A0320
:100EE00078807B0AF103A308DBFA901A0F788C7BD9
:100EF0001AF103A308DBFAF155F133901A2922E421
:100F000093F622E6438F01538FFDFFC3E583941CC4
:100F1000400122EF8567B78568B7F0538FFE224303
:100F20008F02438F018567B78568B7901A0DF0531C
:100F30008FFC22901A0D7455F104901A0E74AAF1C8
:100F400004227A3079D07820901A40D1FFE520F73A
:100F500009A3DAF7227A3079D0901A40E7F1040930
:100F6000A3DAF9227C05120519DCFB22C2AF1206B6
:100F7000A31206A91206AF1206B512050D1206A39A
:100F80001206A91206AF1206B512050D1206A3121B
:100F900006A91206AF1206B5D2AF22C2AF1206B52D
:100FA0001206AF1206A91206A312050D1206B512FB
:100FB00006AF1206A91206A312050D1206B51206F7
:0A0FC000AF1206A91206A3D2AF2259
:1019FD0002091E100721FFFFFFFFFFFF09FF01FF77
:101A0D0055AA01FFFFFFFFFF03FFFFFF25D0FA508F
:0D1A1D0004FF02FF7AFF0701FFFF0000FF3A
:101A4000234D5F4C5F303023202020202020202099
:101A500023424C48454C492445464D3842313023B9
:101A60002020202020202020202020202020202076
:101C0000C2AFC2D37597DE7597AD7581C075A90057
:101C100043FF80752438752503B1DB7529A5752A26
:101C2000F143F10853A4F7D28375D4FF75E3407DE7
:101C3000FA780379E67C10752200752300901DE880
:101C40007B0675249875250130830281482083081E
:101C5000D8FBD9F9DCF781BA308308D8FBD9F9DC95
:101C6000F781BAB19BE493A3C39A6004DDC381BA40
:101C7000DBDBB18D600281317B08E493FAA3B16EA6
:101C8000DBF87A30B16E752200752300B18DEAFC65
:101C9000EBFDC3ED94FE400EB18D8A278B28ED300D
:101CA000E0048A828B83B18D7AC270D8C3ED94FE32
:101CB000601950CEBD0029EC600F7520007521FF22
:101CC000752900752A000200008100A827A92808AC
:101CD00009D804D90281DDB191EAF281D10D81A642
:101CE000C3ED94035051EDA2E092007AC5C3E582A2
:101CF0009400E583941C508C200010438F02438F86
:101D0000018529B7852AB7F0300027A827A9280818
:101D100009438F01538FFDD804D902A132C3E58353
:101D2000941C4003A3A117E28529B7852AB7F0A325
:101D3000A117538FFC81827AC1BD030CE493A3FAEF
:101D4000B152DCF8B14A81828184AA22AB23B16E00
:101D5000EBFAEA6222752608C3E52313F523E52290
:101D600013F52250066323A0632201D526EAB1DBD6
:101D7000B1DB75260AEAF4200102D283300102C2E7
:101D800083B1DBC3134002C201D526EB22B191EA35
:101D9000FB208302A191308302A196752608AE2410
:101DA000AF25C3EF13FFEE13FEB1DFB1DBC3EA13C0
:101DB0003083024480FA30E703632201C3E5231332
:101DC000F523E52213F52250066323A0632201D5F3
:101DD00026D9E52265236523F52222AE24AF250E00
:101DE0000FDEFEDFFCD20122424C48656C693437BD
:061DF0003164E8B10601B8
:00000001FF
