:020000040000FA
:060000000219FD0202EFEF
:030013000204C81C
:03001B0002008D53
:03002B000202B41A
:03005B000204D7C5
:030073000202DCAA
:100080000406080C10182030406080A0C0C2AFC227
:10009000A853E6EFC28E856B8BC0D0D2D3C0E0C030
:1000A000F0C2CAA8CCA9CDD2CAD2AF758A00C3E823
:1000B000956CF8E9956DF9C3E913F9E813F8E5666D
:1000C0006007C3E913F9E813F8E97025E8956E4075
:1000D00020956E501CE582B410177C007B007A00DE
:1000E0007908900000A86AE5667004C3E813F80177
:1000F000FA900000D2A8D2AA6199E0FDC39CC398EF
:1001000040EF98EB33FB0582E0FCC39DC39840E1D0
:1001100098EB33FB0582E0FDC39CC39840D398EB7A
:1001200033FB0582E0FCC39DC39840C598EB33FBCD
:100130000582E0FDC39CC39840B798EB33FB058272
:10014000E0FCC39DC39840A998EB33FB0582E0FD1A
:10015000C39CC398409B98EB33FB0582E0FCC39D96
:10016000C398408D98EB33FB05822175900000D237
:10017000A8D2AA6199E0FDC39CC39840EF98EA33E6
:10018000FA0582E0FCC39DC39840E198EA33FA0582
:1001900082E0FDC39CC39840D398EA33FA0582E01D
:1001A000FCC39DC39840C598EA33FA0582E0FDC3BD
:1001B0009CC39840B798EA33FA0582E0FCC39DC31C
:1001C0009840A998EA33FA0582E0FDC39CC39840A1
:1001D0009B98EA33FA0582E0FCC39DC398408D9852
:1001E000EA33FA0582EBC46B6A54F0F9EAC454F0BE
:1001F000C3996009900000D2A8D2AA6199EBF4C417
:1002000054F0F9EAF4C4540F49FAEBF4C4540FFB68
:10021000C3EAF99460FAEB9400FB5020C3E97B0039
:100220007A0079006016C3135006F9C39552600A2C
:10023000E9F552755300790080020553303A27C31F
:10024000EA94D0F8EB9407F9400BE8FAE9FB203583
:1002500009D235415A303502C235203902B235C390
:10026000EA33FAEB33FBEB2B3B3BF9C3EB13FBEA33
:1002700013FAEA29FAEB3400FB30E3047AFF7BFF40
:10028000C3EA33C4540FF8EB33C454F048F8700594
:10029000EA60027801C3EB13FBEA13FA900000D284
:1002A000A8D2AAE52260021522817D900000D2A882
:1002B000D2AA6199C0D0C0E0C2CF0541E523600257
:1002C0001523C3E554600575550041D7E555240154
:1002D000F55550037555FFD0E0D0D032C2AF53E68C
:1002E0007F7592FA7593FFC22053917FD2AF32C0CF
:1002F000E0E58A303408856B8BF0A3D0E032D0E0A3
:10030000C2AF53E6EFC0D0C0E0C0F0D2D3D2AF53FB
:1003100088EFA88AA98C758A00758C0043881030F4
:10032000331FE8C4540FFAE9C454F04AFAC3132A3D
:10033000FAC3E833F8E933F9E82AFAE93403FB6150
:100340008A30320FC3E833E933FAE82AFAE9340095
:10035000FB618A303115E875F056A4AAF0E975F012
:1003600056A42AFAC5F03400FB618AE875F02BA484
:10037000AAF0E975F02BA42AFAC5F03400C313FBE8
:10038000EA13FAC3EB13FBEA13FAC3EB940950091F
:10039000C3EA949AEB940350160522E522700215E5
:1003A00022C3E5229432500281BB75540081BEE520
:1003B00022600215223036067C007D0461C9AC3112
:1003C000AD32303A04AC33AD34C3EA9CFAEB9DFB5A
:1003D0009208AE60AF61303A425007203509D235FD
:1003E00061E7303502C235303504AE62AF63203983
:1003F00002B235C3EA33FAEB33FBA208500AEAF43F
:100400002401FAEBF43400FBC3EA9428FAEB9400DD
:10041000FB501478007A007B008127A208500878EE
:10042000007A007B00817DE52554036019202A169F
:10043000E55DF9EB7007C3E99A4002E9FAE53CC4CF
:100440002AFAEB3400FBEA8EF0A4F9AAF0EB8EF066
:10045000A42AFAC5F03400FBC3EB13FDEA13F80F2E
:10046000EF146004C3E833F8C3E933EA33FAEB333B
:10047000FBDFEDEB30E20678FF7AFF7B038854D296
:1004800030E86003755500EAF4F8EBF45403F9889A
:1004900056895775230AE55A30E110D0F0D0E0D0E4
:1004A000D053F7DF43F74043E61032D0F0D0E0D02E
:1004B000D053D8FE43DA0143E6103275230AD0F058
:1004C000D0E0D0D043E61032C2AAD28EC2CA85CCC8
:1004D0006C85CD6DD2CA32C2AFC0D0C0E0D2D38558
:1004E00056FB8557FC85575A53F7BF53DAFED2A8FF
:1004F000303402D2AA53E6EF53F7DF53D8FED0E0F0
:10050000D0D0D2AF327901801479038010790A807B
:100510000C791E80087964800479C880007817E41B
:10052000D5E0FDD8FAD9F62275E89022055EC3E53C
:100530005E9408405330EDF4A8BDA9BE755E00E995
:10054000FA79A0E76041EA7006E55F6018800CC3A5
:10055000E8955F600EE55F5005600A14800704604F
:10056000FA8002E55FF55FC39569401B755BC0C308
:1005700094044013755B80C39404400B755B40C3C7
:1005800094044003755B0022E55B2410500274FF65
:10059000F55B22743279A687F0A4C5F0A2F733F593
:1005A0005D22203817C2AFC291C285D290D2927517
:1005B000D47F75D507D2AF75AA53C1C6C2AFC29159
:1005C000C287D292D29075D4DF75D507D2AF75AA03
:1005D00053C1C6203817C2AFC292D29175D4BF752D
:1005E000D507C285D290D2AF75AA43C1C6C2AFC2E9
:1005F00090D29175D4BF75D507C287D292D2AF750C
:10060000AA63C1C6203817C2AFC290C287D292D2A5
:100610009175D4BF75D507D2AF75AA63C1C6C2AFF5
:10062000C292C285D290D29175D4BF75D507D2AF90
:1006300075AA43C1C6203817C2AFC291D29075D4F3
:10064000DF75D507C287D292D2AF75AA538077C221
:10065000AFC291D29275D47F75D507C285D290D2A0
:10066000AF75AA538060203817C2AFC292C286D23B
:1006700091D29075D4DF75D507D2AF75AA43804665
:10068000C2AFC290C286D291D29275D47F75D5077F
:10069000D2AF75AA63802F203817C2AFC290D29212
:1006A00075D47F75D507C286D291D2AF75AA638003
:1006B00015C2AFC292D29075D4DF75D507C286D26B
:1006C00091D2AF75AA43227A147B7880127A107B7C
:1006D0008C800C7A0D7BB480067A0B7BC88000E599
:1006E00064D5E001227902E4C291D5E0FDD286D240
:1006F00091D5E0FDC291D5E0FDC286D291D5E0FD55
:10070000E920E004D285D29030E004D287D292E58D
:1007100064D5E0FDE920E002C29030E002C29274AC
:1007200096D5E0FDD9C1EAF8D5E0FDD8FBDBB0C233
:100730009122C290C291C292C290C291C29275D4CB
:10074000FF75D50722788076FF0876FF0876FF08C8
:1007500076FF0876FF0876FF0876090876FF0876A8
:1007600001788C76010876FF0876FF0876FF087618
:10077000FF0876FF0876030876FF0876FF0876FF05
:100780000876250876D00876FA08765008760408A8
:1007900076FF0876020876FF08767A0876FF0876F4
:1007A000070876010876FF0876FF087600087600CD
:1007B00022FA75F00CA4ABF0EAC333F8740133F9F4
:1007C000E8C333F8E933F9E8C32BF8E93400F92238
:1007D0007888E6C39403D23A5002C23AC238E6306F
:1007E000E102D238A23892397886E61490008093DC
:1007F00078A6F67886E6F53FC394025003753F026B
:10080000789CE6753EFFB40203753EA0B403037501
:100810003E8278A0E6F8600674282409D8FCF569C1
:100820007896E61207B188318932789EE61207B1D0
:10083000883389347897E61207B1883589361207EC
:1008400032223036117A007B007CFF7D007E001161
:10085000A88B618A6022303A227896E6FA7B00788B
:100860009EE6FC7D00C3EA33FAEB33FBC3EC33FCBA
:10087000ED33FD7E0A11A88B638A627896303A02C6
:10088000789EE6FA7B007897E6FC7D007E00303AA1
:1008900010C3EA33FAEB33FBC3EC33FCED33FD7EDC
:1008A0000A11A88B618A6022C3EC9EFCED9400FDC6
:1008B000C3EC9AFCED9BFDC3EC9423ED9400500433
:1008C0007C237D00C3EC94FFED940140047CFF7D0C
:1008D000017BFF0B7A000AEA7009C3EC33FCED33AD
:1008E000FD01D3EC8AF0A4AEF0ED8AF0A42E947C46
:1008F00040E4EAF460DD22D23611421205111205FD
:10090000117A007B007C10120509E5542AFA740064
:100910003BFBDCF37C04C3EB13FBEA13FADCF7FFCD
:10092000EB60027FFFC23611422278A5E6F954033C
:10093000D2837002C283E9540CD2847002C284E96B
:1009400054307000E954C07000227567007568006B
:100950007597DE7597AD7581C043FF8075EF06759D
:10096000A90012073275800275F1FF75A4F8758031
:100970000275D4FF75900075F20775A50775900094
:1009800075D50775A60175E34075E202120732E4DA
:10099000F8F6D8FD120745D1B17898866475300114
:1009A000C2AF1205191206C71205111206CD1205A3
:1009B000111206D3120511312AC2AF75670075688E
:1009C0000078FA79FA308107D9FBD8F7021C0012B7
:1009D00007D011427898866412073275E401758851
:1009E00011758E0475890975C80475910475D84010
:1009F00075D90875F782759E0075960275DA4A7585
:100A0000DB0075A82175E69075B80175BF8075ABE0
:100A10000075D10C75BC5975BB1075E88075B201B5
:100A2000120505D2AF753C00C230120519C231C2A1
:100A300032C233C23475520075530075220012055C
:100A400015C3E522940A50026112D23175220012B8
:100A50000515C3E522940A50026112C231D23275E3
:100A60002200120515C3E522940A5002611275E4B2
:100A700091758851758E017589AA758C00758D00E8
:100A8000C2A9D2ABD2AA756BC0756A14756E50C27A
:100A900032D23475220A120515756A10C3E5229404
:100AA0000A7552007553004069758E0C756B807520
:100AB0006A28756E2875220A120515756A20C3E525
:100AC00022940A7552007553004047758E0C756B61
:100AD000C0756A14756E1475220A120515756A10B0
:100AE000C3E522940A755200755300402575E40150
:100AF000758811758E04758909D2A9C2ABC2AAC2C4
:100B000034D233752200120515C3E522940A40023F
:100B100021B91205092030030209B9C2AF1206C774
:100B20001206C71206C7D2AF120519203403303A95
:100B300003020BD3120509788CE6C39401500261BD
:100B4000D3E530C39401500261D37567A57568F190
:100B50007F02D2361142120515C2AFC2361142C30E
:100B6000E554947FD2AF406B120505C2AF1206D98F
:100B7000D2AFDFDE11F7C3EF7897F6120519F19EB9
:100B80007F0AD2361142120515C2AFC2361142C3D6
:100B9000E554947FD2AF50E8120505C2AF1206C7E4
:100BA00012050D1206C7D2AFDFD811F7EF24037874
:100BB00096F6F87997E7C394234003985006E82403
:100BC000237897F6120519D1F8F1CD1205151142C7
:100BD0000209B9756700756800120515C3E55494DC
:100BE000014002612BC2AF1206D91206D91206D9F2
:100BF000D2AF120519753000E4F537F5380537E541
:100C000037F4703F0538789AE67819146012783214
:100C100014600D787D14600878FA1460037538004C
:100C2000C3E53898401D120732120505153875378F
:100C30000078998664C2AF1206D9D2AF78988664DC
:100C400012051512050DE523700221B9C3E5549470
:100C500001500AC3E55294015016020BFD1205150E
:100C6000E52370030209B9755200755300020E1294
:100C7000C3E55294017017C2AF12073278998664A7
:100C80001206C778988664D2AF120515C104C3E571
:100C90005294027017C2AF12073278998664120616
:100CA000CD78988664D2AF120515C104C3E552947D
:100CB000037017C2AF120732789986641206D37890
:100CC000988664D2AF120515C104C3E5529404702E
:100CD00017C2AF120732789986641206D9789886BF
:100CE00064D2AF120515C104C3E55294057017C252
:100CF000AF120732789986641206D978988664D242
:100D0000AF120515C104C3E55294077019C3E5532A
:100D100094065002814C7401303A0274037888F6CC
:100D2000C238C239C104C3E55294087019C3E553EF
:100D300094065002814C7402303A0274047888F6AA
:100D4000D238D239C104C3E55294097017C3E553B0
:100D500094065002814C303A0BC37888E69402F630
:100D6000C23AC104C3E552940A7016C3E55394060F
:100D70005002814C203A0A7888E62402F6D23AC121
:100D800004C3E55294147025C3E5539406500281C0
:100D90004CC2AF901A0B740093D2AF7888F613C28E
:100DA00038C2394002D2384002D2398057C3E552A6
:100DB00094157038C3E5539406404FC2AF901A0B98
:100DC000740093D2AFF8B801027402B80202740141
:100DD000B803027404B8040274037888F613C238A6
:100DE000C2394002D2384002D2398018C3E5529449
:100DF0000C70117567A57568F1C3E5539406400A38
:100E0000D1F8D2AF75520075530075670075680050
:100E1000814CC2AF120732E4D2AFE4F55EF524F59F
:100E200025F53D755E0812050512052830EDFDA873
:100E3000BDA9BEE97001F8885F12052C755E08C275
:100E4000AF120593855D5B855D5CD2AFC235303AEC
:100E500003303A2B203815203515C2AFC287D29205
:100E6000D29175D4BF75D507D2AF80132035EBC2B0
:100E7000AFC286D291D29275D47F75D507D2AFC357
:100E8000E55494014003020E518000C2AF120732B4
:100E9000752400752500D2AF12051512073278A40B
:100EA000E6600CC285D290C286D291C287D292618E
:100EB000F8901A0D7820F131E520B4550AA3F131EC
:100EC000E520B4AA0280137567A57568F11207457D
:100ED000D1F8756700756800801D901A0378807BD3
:100EE0000AF131A308DBFA901A0F788C7B1AF131E2
:100EF000A308DBFA901A2922C2AFF174F151901ABB
:100F0000007410F136A37407F136A37421F1369002
:100F10001A0378807B0AF135A308DBFA901A0F7860
:100F20008C7B1AF135A308DBFAF187F165901A2959
:100F300022E493F622E6438F01538FFDFFC3E5833E
:100F4000941C400122EF8567B78568B7F0538FFE88
:100F500022438F02438F018567B78568B7901A0DCA
:100F6000F0538FFC22901A0D7455F136901A0E74BE
:100F7000AAF136227A3079D07820901A40F131E502
:100F800020F709A3DAF7227A3079D0901A40E7F1F6
:100F90003609A3DAF9227C05120519DCFB22C2AF5F
:100FA0001206C71206CD1206D31206D912050D126B
:100FB00006C71206CD1206D31206D912050D120667
:100FC000C71206CD1206D31206D9D2AF22C2AF1273
:100FD00006D91206D31206CD1206C712050D120647
:100FE000D91206D31206CD1206C712050D1206D964
:0C0FF0001206D31206CD1206C7D2AF22A3
:1019FD0002094A100721FFFFFFFFFFFF09FF01FF4B
:101A0D0055AA01FFFFFFFFFF03FFFFFF25D0FA508F
:0D1A1D0004FF02FF7AFF0701FFFF0000FF3A
:101A400023515F4C5F303023202020202020202095
:101A500023424C48454C492445464D3842313023B9
:101A60002020202020202020202020202020202076
:101C0000C2AFC2D37597DE7597AD7581C075A90057
:101C100043FF80752438752503B1DB7529A5752A26
:101C2000F143F10253A4FDD28175D4FF75E3407DE9
:101C3000FA780379E67C10752200752300901DE880
:101C40007B06752498752501308102814820810822
:101C5000D8FBD9F9DCF781BA308108D8FBD9F9DC97
:101C6000F781BAB19BE493A3C39A6004DDC381BA40
:101C7000DBDBB18D600281317B08E493FAA3B16EA6
:101C8000DBF87A30B16E752200752300B18DEAFC65
:101C9000EBFDC3ED94FE400EB18D8A278B28ED300D
:101CA000E0048A828B83B18D7AC270D8C3ED94FE32
:101CB000601950CEBD0029EC600F7520007521FF22
:101CC000752900752A000200008100A827A92808AC
:101CD00009D804D90281DDB191EAF281D10D81A642
:101CE000C3ED94035051EDA2E092007AC5C3E582A2
:101CF0009400E583941C508C200010438F02438F86
:101D0000018529B7852AB7F0300027A827A9280818
:101D100009438F01538FFDD804D902A132C3E58353
:101D2000941C4003A3A117E28529B7852AB7F0A325
:101D3000A117538FFC81827AC1BD030CE493A3FAEF
:101D4000B152DCF8B14A81828184AA22AB23B16E00
:101D5000EBFAEA6222752608C3E52313F523E52290
:101D600013F52250066323A0632201D526EAB1DBD6
:101D7000B1DB75260AEAF4200102D281300102C2E9
:101D800081B1DBC3134002C201D526EB22B191EA37
:101D9000FB208102A191308102A196752608AE2414
:101DA000AF25C3EF13FFEE13FEB1DFB1DBC3EA13C0
:101DB0003081024480FA30E703632201C3E5231334
:101DC000F523E52213F52250066323A0632201D5F3
:101DD00026D9E52265236523F52222AE24AF250E00
:101DE0000FDEFEDFFCD20122424C48656C693437BD
:061DF0003164E8B10601B8
:00000001FF
