:020000040000FA
:060000000219FD0202EFEF
:030013000204C61E
:03001B0002008D53
:03002B000202B41A
:03005B000204D5C7
:030073000202DCAA
:100080000406080C10182030406080A0C0C2AFC227
:10009000A853E6EFC28E856B8BC0D0D2D3C0E0C030
:1000A000F0C2CAA8CCA9CDD2CAD2AF758A00C3E823
:1000B000956CF8E9956DF9C3E913F9E813F8E5666D
:1000C0006007C3E913F9E813F8E97025E8956E4075
:1000D00020956E501CE582B410177C007B007A00DE
:1000E0007908900000A86AE5667004C3E813F80177
:1000F000FA900000D2A8D2AA6199E0FDC39CC398EF
:1001000040EF98EB33FB0582E0FCC39DC39840E1D0
:1001100098EB33FB0582E0FDC39CC39840D398EB7A
:1001200033FB0582E0FCC39DC39840C598EB33FBCD
:100130000582E0FDC39CC39840B798EB33FB058272
:10014000E0FCC39DC39840A998EB33FB0582E0FD1A
:10015000C39CC398409B98EB33FB0582E0FCC39D96
:10016000C398408D98EB33FB05822175900000D237
:10017000A8D2AA6199E0FDC39CC39840EF98EA33E6
:10018000FA0582E0FCC39DC39840E198EA33FA0582
:1001900082E0FDC39CC39840D398EA33FA0582E01D
:1001A000FCC39DC39840C598EA33FA0582E0FDC3BD
:1001B0009CC39840B798EA33FA0582E0FCC39DC31C
:1001C0009840A998EA33FA0582E0FDC39CC39840A1
:1001D0009B98EA33FA0582E0FCC39DC398408D9852
:1001E000EA33FA0582EBC46B6A54F0F9EAC454F0BE
:1001F000C3996009900000D2A8D2AA6199EBF4C417
:1002000054F0F9EAF4C4540F49FAEBF4C4540FFB68
:10021000C3EAF99460FAEB9400FB5020C3E97B0039
:100220007A0079006016C3135006F9C39552600A2C
:10023000E9F552755300790080020553303A27C31F
:10024000EA94D0F8EB9407F9400BE8FAE9FB203583
:1002500009D235415A303502C235203902B235C390
:10026000EA33FAEB33FBEB2B3B3BF9C3EB13FBEA33
:1002700013FAEA29FAEB3400FB30E3047AFF7BFF40
:10028000C3EA33C4540FF8EB33C454F048F8700594
:10029000EA60027801C3EB13FBEA13FA900000D284
:1002A000A8D2AAE52260021522817D900000D2A882
:1002B000D2AA6199C0D0C0E0C2CF0541E523600257
:1002C0001523C3E554600575550041D7E555240154
:1002D000F55550037555FFD0E0D0D032C2AF53E68C
:1002E0007F7592FA7593FFC22053917FD2AF32C0CF
:1002F000E0E58A303408856B8BF0A3D0E032D0E0A3
:10030000C2AF53E6EFC0D0C0E0C0F0D2D3D2AF53FB
:1003100088EFA88AA98C758A00758C0043881030F4
:10032000331FE8C4540FFAE9C454F04AFAC3132A3D
:10033000FAC3E833F8E933F9E82AFAE93403FB6150
:100340008A30320FC3E833E933FAE82AFAE9340095
:10035000FB618A303115E875F056A4AAF0E975F012
:1003600056A42AFAC5F03400FB618AE875F02BA484
:10037000AAF0E975F02BA42AFAC5F03400C313FBE8
:10038000EA13FAC3EB13FBEA13FAC3EB940950091F
:10039000C3EA949AEB940350160522E522700215E5
:1003A00022C3E5229432500281B975540081BCE524
:1003B00022600215223036067C007D0461C9AC3112
:1003C000AD32303A04AC33AD34C3EA9CFAEB9DFB5A
:1003D0009208AE60AF61303A425007203509D235FD
:1003E00061E7303502C235303504AE62AF63203983
:1003F00002B235C3EA33FAEB33FBA208500AEAF43F
:100400002401FAEBF43400FBC3EA9428FAEB9400DD
:10041000FB501478007A007B008127A208500878EE
:10042000007A007B00817DE52554036019202A169F
:10043000E55DF9EB7007C3E99A4002E9FAE53CC4CF
:100440002AFAEB3400FBEA8EF0A4F9AAF0EB8EF066
:10045000A42AFAC5F03400FBC3EB13FDEA13F80F2E
:10046000EF146004C3E833F8C3E933EA33FAEB333B
:10047000FBDFEDEB30E20678FF7AFF7B038854D296
:1004800030E86003755500EAF4F8EBF45403F9C35F
:10049000E8941EFAE99400FB50047A007B00885629
:1004A00089578A588B5975230AD0F0D0E0D0D053A1
:1004B000F7DF43F74043E6103275230AD0F0D0E06F
:1004C000D0D043E61032C2AAD28EC2CA85CC6C8587
:1004D000CD6DD2CA32C2AFC0D0C0E0D2D3A8F9E548
:1004E0005A30E10AE5FA20E13520E03281F6E5FAFA
:1004F00030E12B20E028C3E55713F8E55613F5FB50
:1005000088FCC3E55913F8E55813F5E988EA8557DF
:100510005A53F7BFD2A8303402D2AA53E6EF53F7AA
:10052000DFD0E0D0D0D2AF327901801479038010CF
:10053000790A800C791E80087964800479C880006B
:100540007817E4D5E0FDD8FAD9F62275E8902205AF
:100550005EC3E55E9408405330EDF4A8BDA9BE75B6
:100560005E00E9FA79A0E76041EA7006E55F60188D
:10057000800CC3E8955F600EE55F5005600A14804B
:10058000070460FA8002E55FF55FC39569401B755B
:100590005BC0C394044013755B80C39404400B7527
:1005A0005B40C394044003755B0022E55B2410505C
:1005B0000274FFF55B22743279A687F0A4C5F0A21D
:1005C000F733F55D22203813C2AFC291D29075D4B3
:1005D0007F75D503D2AF75AA53C1B9C2AFC291D24C
:1005E0009275D4DF75D506D2AF75AA53C1B920383C
:1005F00013C2AFC28775D4BF75D505D290D2AF757F
:10060000AA43C1B9C2AFC28575D4BF75D505D29210
:10061000D2AF75AA63C1B9203813C2AFC290D292CB
:1006200075D4BF75D505D2AF75AA63C1B9C2AFC2C3
:1006300092D29075D4BF75D505D2AF75AA43807993
:10064000203813C2AFC28675D4DF75D506D292D2D8
:10065000AF75AA538063C2AFC28675D47F75D503C8
:10066000D290D2AF75AA538050203813C2AFC29235
:10067000D29175D4DF75D506D2AF75AA43803AC240
:10068000AFC290D29175D47F75D503D2AF75AA63EE
:100690008027203813C2AFC28575D47F75D503D2A9
:1006A00091D2AF75AA638011C2AFC28775D4DF75CE
:1006B000D506D291D2AF75AA43227A147B788012E4
:1006C0007A107B8C800C7A0D7BB480067A0B7BC809
:1006D0008000E564D5E001227902E4C291D5E0FD15
:1006E000D286D5E0FDC286D5E0FDD291D5E0FDE908
:1006F00020E002D28530E002D287E564D5E0FDE952
:1007000020E002C28530E002C2877496D5E0FDD9B0
:10071000C9EAF8D5E0FDD8FBDBB8C29122C285C298
:1007200086C287C290C291C29275D4FF75D5072246
:10073000788076FF0876FF0876FF0876FF0876FF58
:100740000876FF0876090876FF087601788C76012E
:100750000876FF0876FF0876FF0876FF0876FF0820
:1007600076030876FF0876FF0876FF087625087678
:10077000D00876FA0876500876040876FF087602E4
:100780000876FF08767A0876FF087607087601086B
:1007900076FF0876FF08760008760022FA75F00CDE
:1007A000A4ABF0EAC333F8740133F9E8C333F8E9D2
:1007B00033F9E8C32BF8E93400F9227888E6C394CA
:1007C00003D23A5002C23AC238E630E102D238A22D
:1007D0003892397886E6149000809378A6F6788669
:1007E000E6F53FC394025003753F02789CE6753EE0
:1007F000FFB40203753EA0B40303753E8278A0E601
:10080000F8600674282409D8FCF5697896E6120782
:100810009C88318932789EE612079C883389347827
:1008200097E612079C8835893612071D223036114B
:100830007A007B007CFF7D007E0011938B618A60D3
:1008400022303A227896E6FA7B00789EE6FC7D001C
:10085000C3EA33FAEB33FBC3EC33FCED33FD7E0A22
:1008600011938B638A627896303A02789EE6FA7B1F
:10087000007897E6FC7D007E00303A10C3EA33FA38
:10088000EB33FBC3EC33FCED33FD7E0A11938B613C
:100890008A6022C3EC9EFCED9400FDC3EC9AFCED53
:1008A0009BFDC3EC9423ED940050047C237D00C396
:1008B000EC94FFED940140047CFF7D017BFF0B7AFB
:1008C000000AEA7009C3EC33FCED33FD01BEEC8A8B
:1008D000F0A4AEF0ED8AF0A42E947C40E4EAF4603B
:1008E000DD22D236112D1205341205347A007B0038
:1008F0007C1012052CE5542AFA74003BFBDCF37CD7
:1009000004C3EB13FBEA13FADCF7FFEB60027FFF93
:10091000C236112D2278A5E6F95403D2837002C2A3
:1009200083E9540CD2847002C284E954307000E927
:1009300054C07000227567007568007597DE759762
:10094000AD7581C043FF8075EF0675A90012071DC4
:1009500075800275F1FF75A4F875800275D4FF7576
:10096000900075F20775A50775900075D50775A6F7
:100970000175E34075E20212071DE4F8F6D8FD1296
:100980000730D18E78988664753001C2AF12053C6D
:100990001206BA1205341206C01205341206C61227
:1009A00005343115C2AF75670075680078FA79FAB9
:1009B000308107D9FBD8F7021C001207BB112D7834
:1009C00098866412071D75E401758811758E04758B
:1009D000890975C80475910475D84075D90875F7EB
:1009E00081759E0375960275DA4275DB4275A82102
:1009F00075E69075B80175BF8075AB0075D10C7543
:100A0000BC5975BB1075E88075B201120528D2AFCC
:100A1000753C00C23012053CC231C232C233C2340E
:100A2000755200755300752200120538C3E52294F3
:100A30000A500241FDD231752200120538C3E52269
:100A4000940A500241FDC231D2327522001205389B
:100A5000C3E522940A500241FD75E49175885175F1
:100A60008E017589AA758C00758D00C2A9D2ABD292
:100A7000AA756BC0756A14756E50C232D234752275
:100A80000A120538756A10C3E522940A755200757A
:100A900053004069758E0C756B80756A28756E28D9
:100AA00075220A120538756A20C3E522940A755228
:100AB000007553004047758E0C756BC0756A1475D0
:100AC0006E1475220A120538756A10C3E522940A5D
:100AD000755200755300402575E401758811758EB7
:100AE00004758909D2A9C2ABC2AAC234D233752215
:100AF00000120538C3E522940A400221A412052CF5
:100B00002030030209A4C2AF1206BA1206BA1206B6
:100B1000BAD2AF12053C203403303A03020BBE12A6
:100B2000052C788CE6C39401500261BEE530C39475
:100B300001500261BE7567A57568F17F02D236115A
:100B40002D120538C2AFC236112DC3E554947FD2A1
:100B5000AF406B120528C2AF1206CCD2AFDFDE1158
:100B6000E2C3EF7897F612053CF17B7F0AD236118B
:100B70002D120538C2AFC236112DC3E554947FD271
:100B8000AF50E8120528C2AF1206BA12053012069D
:100B9000BAD2AFDFD811E2EF24037896F6F879974E
:100BA000E7C394234003985006E824237897F6126D
:100BB000053CD1D5F1AA120538112D0209A475679B
:100BC00000756800120538C3E554940140026116AF
:100BD000C2AF1206CC1206CC1206CCD2AF12053C24
:100BE000753000E4F537F5380537E537F4703F0523
:100BF00038789AE67819146012783214600D787D8E
:100C000014600878FA146003753800C3E53898401A
:100C10001D12071D1205281538753700789986644E
:100C2000C2AF1206CCD2AF7898866412053812058E
:100C300030E523700221A4C3E5549401500AC3E5B2
:100C40005294015016020BE8120538E52370030296
:100C500009A4755200755300020DFDC3E5529401BD
:100C60007017C2AF12071D789986641206BA789879
:100C70008664D2AF120538A1EFC3E5529402701713
:100C8000C2AF12071D789986641206C078988664F0
:100C9000D2AF120538A1EFC3E55294037017C2AF6B
:100CA00012071D789986641206C678988664D2AFBA
:100CB000120538A1EFC3E55294047017C2AF1207B2
:100CC0001D789986641206CC78988664D2AF120596
:100CD00038A1EFC3E55294057017C2AF12071D7813
:100CE0009986641206CC78988664D2AF120538A132
:100CF000EFC3E55294077019C3E55394065002817F
:100D0000377401303A0274037888F6C238C239A1C8
:100D1000EFC3E55294087019C3E55394065002815D
:100D2000377402303A0274047888F6D238D239A186
:100D3000EFC3E55294097017C3E55394065002813E
:100D400037303A0BC37888E69402F6C23AA1EFC373
:100D5000E552940A7016C3E5539406500281372079
:100D60003A0A7888E62402F6D23AA1EFC3E5529413
:100D7000147025C3E553940650028137C2AF901A10
:100D80000B740093D2AF7888F613C238C239400290
:100D9000D2384002D2398057C3E55294157038C317
:100DA000E5539406404FC2AF901A0B740093D2AF34
:100DB000F8B801027402B802027401B803027404A4
:100DC000B8040274037888F613C238C2394002D2DC
:100DD000384002D2398018C3E552940C70117567FF
:100DE000A57568F1C3E5539406400AD1D5D2AF7515
:100DF00052007553007567007568008137C2AF12E5
:100E0000071DE4D2AFE4F55EF524F525F53D755EEA
:100E10000812052812054B30EDFDA8BDA9BEE970EA
:100E200001F8885F12054F755E08C2AF1205B685DE
:100E30005D5B855D5CD2AFC235303A03303A23202A
:100E40003811203511C2AFD29075D47F75D503D239
:100E5000AF800F2035EFC2AFD29275D4DF75D506C3
:100E6000D2AFC3E55494014003020E3C8000C2AFF0
:100E700012071D752400752500D2AF120538120720
:100E80001D78A4E66006D290D291D29261E3901AC6
:100E90000D7820F10EE520B4550AA3F10EE520B43B
:100EA000AA0280137567A57568F1120730D1D57550
:100EB0006700756800801D901A0378807B0AF10E28
:100EC000A308DBFA901A0F788C7B1AF10EA308DBCB
:100ED000FA901A2922C2AFF151F12E901A00741023
:100EE000F113A37407F113A37421F113901A03787B
:100EF000807B0AF112A308DBFA901A0F788C7B1A18
:100F0000F112A308DBFAF164F142901A2922E4936A
:100F1000F622E6438F01538FFDFFC3E583941C4007
:100F20000122EF8567B78568B7F0538FFE22438FA4
:100F300002438F018567B78568B7901A0DF0538F0C
:100F4000FC22901A0D7455F113901A0E74AAF11325
:100F5000227A3079D07820901A40F10EE520F709F6
:100F6000A3DAF7227A3079D0901A40E7F11309A377
:100F7000DAF9227C0512053CDCFB22C2AF1206BA6C
:100F80001206C01206C61206CC1205301206BA129C
:100F900006C01206C61206CC1205301206BA120698
:100FA000C01206C61206CCD2AF22C2AF1206CC12B5
:100FB00006C61206C01206BA1205301206CC120678
:100FC000C61206C01206BA1205301206CC1206C6A8
:090FD0001206C01206BAD2AF22CB
:1019FD00020935100721FFFFFFFFFFFF09FF01FF60
:101A0D0055AA01FFFFFFFFFF03FFFFFF25D0FA508F
:0D1A1D0004FF02FF7AFF0701FFFF0000FF3A
:101A400023515F4C5F333023202020202020202092
:101A500023424C48454C492445464D3842313023B9
:101A60002020202020202020202020202020202076
:101C0000C2AFC2D37597DE7597AD7581C075A90057
:101C100043FF80752438752503B1DB7529A5752A26
:101C2000F143F10253A4FDD28175D4FF75E3407DE9
:101C3000FA780379E67C10752200752300901DE880
:101C40007B06752498752501308102814820810822
:101C5000D8FBD9F9DCF781BA308108D8FBD9F9DC97
:101C6000F781BAB19BE493A3C39A6004DDC381BA40
:101C7000DBDBB18D600281317B08E493FAA3B16EA6
:101C8000DBF87A30B16E752200752300B18DEAFC65
:101C9000EBFDC3ED94FE400EB18D8A278B28ED300D
:101CA000E0048A828B83B18D7AC270D8C3ED94FE32
:101CB000601950CEBD0029EC600F7520007521FF22
:101CC000752900752A000200008100A827A92808AC
:101CD00009D804D90281DDB191EAF281D10D81A642
:101CE000C3ED94035051EDA2E092007AC5C3E582A2
:101CF0009400E583941C508C200010438F02438F86
:101D0000018529B7852AB7F0300027A827A9280818
:101D100009438F01538FFDD804D902A132C3E58353
:101D2000941C4003A3A117E28529B7852AB7F0A325
:101D3000A117538FFC81827AC1BD030CE493A3FAEF
:101D4000B152DCF8B14A81828184AA22AB23B16E00
:101D5000EBFAEA6222752608C3E52313F523E52290
:101D600013F52250066323A0632201D526EAB1DBD6
:101D7000B1DB75260AEAF4200102D281300102C2E9
:101D800081B1DBC3134002C201D526EB22B191EA37
:101D9000FB208102A191308102A196752608AE2414
:101DA000AF25C3EF13FFEE13FEB1DFB1DBC3EA13C0
:101DB0003081024480FA30E703632201C3E5231334
:101DC000F523E52213F52250066323A0632201D5F3
:101DD00026D9E52265236523F52222AE24AF250E00
:101DE0000FDEFEDFFCD20122424C48656C693437BD
:061DF0003164E8B10601B8
:00000001FF
