:020000040000FA
:060000000219FD0202FBE3
:03000B0002008D63
:030013000204FEE6
:03001B0002009050
:03002B000202B01E
:03005B0002050D8E
:030073000202E89E
:100080000406080C10182030406080A0C0054032E3
:10009000C2AFC2A853E6EFC28E856B8BC0D0D2D35D
:1000A000C0E0C0F0C2CAA8CCA9CDD2CAD2AF758A6E
:1000B00000C3E8956CF8E9956DF9C3E913F9E81305
:1000C000F8E5666007C3E913F9E813F8E97025E875
:1000D000956E4020956E501CE582B410177C007B15
:1000E000007A007908900000A86AE5667004C3E809
:1000F00013F801FD900000D2A8D2AA61C6E0FDC3AA
:100100009CC39840EF98EB33FB0582E0FCC39DC392
:100110009840E198EB33FB0582E0FDC39CC3984017
:10012000D398EB33FB0582E0FCC39DC39840C59890
:10013000EB33FB0582E0FDC39CC39840B798EB33DB
:10014000FB0582E0FCC39DC39840A998EB33FB05F7
:1001500082E0FDC39CC398409B98EB33FB0582E093
:10016000FCC39DC398408D98EB33FB0582217890AA
:100170000000D2A8D2AA61C6E0FDC39CC39840EF9C
:1001800098EA33FA0582E0FCC39DC39840E198EAFF
:1001900033FA0582E0FDC39CC39840D398EA33FA52
:1001A0000582E0FCC39DC39840C598EA33FA0582F6
:1001B000E0FDC39CC39840B798EA33FA0582E0FC9F
:1001C000C39DC39840A998EA33FA0582E0FDC39C19
:1001D000C398409B98EA33FA0582E0FCC39DC3981C
:1001E000408D98EA33FA0582EBC46B6A54F0F9EA61
:1001F000C454F0C3996009900000D2A8D2AA61C685
:10020000EBF4C454F0F9EAF4C4540F49FAEBF4C423
:10021000540FFBC3EAF99460FAEB9400FB5020C33F
:10022000E97B007A0079006016C3135006F9C39584
:1002300052600AE9F5527553007900800205533087
:100240003A27C3EA94D0F8EB9407F9400BE8FAE9AF
:10025000FB203509D235415D303502C235203902E7
:10026000B235C3EA33FAEB33FBEB2B3B3BF9C3EB81
:1002700013FBEA13FAEA29FAEB3400FB30E3047AC1
:10028000FF7BFFC3EA33C4540FF8EB33C454F04888
:10029000F87005EA60027801900000D2A8D2AAE5C1
:1002A000226002152281B3900000D2A8D2AA61C6B2
:1002B000C0D0C0E0C2CF0541E5666009E5656005D4
:1002C00075650041E3756501E52360021523C3E50B
:1002D00054600575550041E3E5552401F55550037B
:1002E0007555FFD0E0D0D032C2AF53E67F7592FA99
:1002F0007593FFC22053917FD2AF32C0E0E58A30C0
:100300003408856B8BF0A3D0E032D0E0C2AF53E667
:10031000EFC0D0C0E0C0F0D2D3D2AF5388EFA88AEC
:10032000A98CAA40308D010A758A00758C00754031
:1003300000438810E566700AC3E833F8E933F9EA48
:1003400033FA30331FE8C4540FFAE9C454F04AFAC0
:10035000C3132AFAC3E833F8E933F9E82AFAE9348F
:1003600006FB61B730320FC3E833E933FAE82AFA03
:10037000E93400FB61B7303115E875F056A4AAF0F6
:10038000E975F056A42AFAC5F03400FB61B7C3EA58
:1003900013FAE913F9E813F8E875F056A4AAF0E99E
:1003A00075F056A42AFAC5F03400C313FBEA13FA19
:1003B000C3EB13FBEA13FAC3EB94125009C3EA949C
:1003C00034EB940750160522E52270021522C3E58E
:1003D000229432500281F175540081F4E5226002CA
:1003E00015223036067C007D0861F6AC31AD323026
:1003F0003A04AC33AD34C3EA9CFAEB9DFB9208AEF1
:1004000060AF61303A425007203509D2358114304F
:100410003502C235303504AE62AF63203902B235E1
:10042000C3EA33FAEB33FBA208500AEAF42401FAD8
:10043000EBF43400FBC3EA9450FAEB9400FB501445
:1004400078007A007B008154A208500878007A0076
:100450007B0081B3E5255403601B202A18E55D333A
:10046000F9EB7007C3E99A4002E9FAE53CC4332A84
:10047000FAEB3400FBEA8EF0A4F9AAF0EB8EF0A4BC
:100480002AFAC5F03400FBC3EB13FDEA13F8C3ED01
:1004900013FDE813F80FEF146004C3E833F8C3E961
:1004A00033EA33FAEB33FBDFEDEB30E30678FF7A28
:1004B000FF7B078854D230E86003755500EAF4F8F2
:1004C000EBF45407F98856895775230AE55A30E248
:1004D00010D0F0D0E0D0D053F7DF43F74043E61020
:1004E00032D0F0D0E0D0D053D8FE43DA0143E6104A
:1004F0003275230AD0F0D0E0D0D043E61032C2AA41
:10050000D28EC2CA85CC6C85CD6DD2CA32C2AFC084
:10051000D0C0E0D2D38556FB8557FC85575A53F798
:10052000BF53DAFED2A8303402D2AA53E6EF53F713
:10053000DF53D8FED0E0D0D0D2AF32790180147929
:10054000038010790A800C791E8008796480047910
:10055000C880007817E4D5E0FDD8FAD9F62275E80E
:100560009022055EC3E55E9408405330EDF4A8BDCB
:10057000A9BE755E00E9FA79A0E76041EA7006E578
:100580005F6018800CC3E8955F600EE55F50056002
:100590000A1480070460FA8002E55FF55FC395697D
:1005A000401B755BC0C394044013755B80C3940407
:1005B000400B755B40C394044003755B0022E55B10
:1005C0002410500274FFF55B22743279A687F0A4E0
:1005D000C5F0A2F733F55D22203817C2AFC291C231
:1005E00085D290D29275D47F75D507D2AF75AA53B4
:1005F000C1FCC2AFC291C287D292D29075D4DF75CE
:10060000D507D2AF75AA53C1FC203817C2AFC2922A
:10061000D29175D4BF75D507C285D290D2AF75AAD5
:1006200043C1FCC2AFC290D29175D4BF75D507C289
:1006300087D292D2AF75AA63C1FC203817C2AFC26D
:1006400090C287D292D29175D4BF75D507D2AF75BB
:10065000AA63C1FCC2AFC292C285D290D29175D4B6
:10066000BF75D507D2AF75AA43C1FC203817C2AFFA
:10067000C291D29075D4DF75D507C287D292D2AF1E
:1006800075AA538077C2AFC291D29275D47F75D5C7
:1006900007C285D290D2AF75AA538060203817C2A6
:1006A000AFC292C286D291D29075D4DF75D507D2EF
:1006B000AF75AA438046C2AFC290C286D291D29291
:1006C00075D47F75D507D2AF75AA63802F203817F0
:1006D000C2AFC290D29275D47F75D507C286D2912F
:1006E000D2AF75AA638015C2AFC292D29075D4DF23
:1006F00075D507C286D291D2AF75AA43227A147BF0
:100700007880127A107B8C800C7A0D7BB480067A0C
:100710000B7BC88000E564D5E001227902E4C29138
:10072000D5E0FDD286D291D5E0FDC291D5E0FDC2E3
:1007300086D291D5E0FDE920E004D285D29030E068
:1007400004D287D292E564D5E0FDE920E002C290B0
:1007500030E002C2927496D5E0FDD9C1EAF8D5E046
:10076000FDD8FBDBB0C29122C290C291C292C2906E
:10077000C291C29275D4FF75D50722788076FF08A2
:1007800076FF0876FF0876FF0876FF0876FF087682
:10079000090876FF087601788C76010876FF0876DE
:1007A000FF0876FF0876FF0876FF0876030876FFD5
:1007B0000876FF0876FF0876250876D00876FA08CE
:1007C00076500876040876FF0876020876FF0876E9
:1007D0007A0876FF0876070876010876FF0876FF24
:1007E00008760008760022FA75F00CA4ABF0EAC394
:1007F00033F8740133F9E8C333F8E933F9E8C32B6C
:10080000F8E93400F9E8C333F8E933F9227888E6E7
:10081000C39403D23A5002C23AC238E630E102D25F
:1008200038A23892397886E6149000809378A6F63C
:100830007886E6F53FC394025003753F02789CE644
:10084000753EFFB40203753EA0B40303753E827883
:10085000A0E6F8600674282409D8FCF5697896E6C5
:100860001207E788318932789EE61207E7883389D4
:10087000347897E61207E788358936120768223000
:1008800036117A007B007CFF7D007E0011E58B61D4
:100890008A6022303A227896E6FA7B00789EE6FC5F
:1008A0007D00C3EA33FAEB33FBC3EC33FCED33FDDD
:1008B0007E0A11E58B638A627896303A02789EE66A
:1008C000FA7B007897E6FC7D007E00303A10C3EAA0
:1008D00033FAEB33FBC3EC33FCED33FD7E0A11E559
:1008E0008B618A6022C3EC9EFCED9400FDC3EC9A00
:1008F000FCED9BFDC3EC9423ED940050047C237D20
:1009000000C3EC94FFED940140047CFF7D017BFF6C
:100910000B7A000AEA7009C3EC33FCED33FD2110B9
:10092000EC8AF0A4AEF0ED8AF0A42E947C40E4EAC8
:10093000F460DD22D236117F1205471205477A0096
:100940007B007C1012053FE5542AFA74003BFBDC67
:10095000F37C04C3EB13FBEA13FADCF7FFEB600252
:100960007FFFC236117F2278A5E6F95403D2837047
:1009700002C283E9540CD2847002C284E9543070FC
:1009800000E954C07000227567007568007597DE35
:100990007597AD7581C043FF8075EF0675A900128C
:1009A000076875800275F1FF75A4F875800275D42B
:1009B000FF75900075F20775A50775900075D5074E
:1009C00075A60175E34075E202120768E4F8F6D8EF
:1009D000FD12077BF11C78988664753001C2AF1256
:1009E000054F1206FD1205471207031205471207AD
:1009F000091205473167C2AF75670075680078FA5C
:100A000079FA308107D9FBD8F7021C00110D117F4C
:100A10007898866412076875A91375A71075C100C8
:100A200075A70075660075E401758811758E0475EB
:100A3000890975C80475910475D84075D90875F78A
:100A400083759E0075960275DA4A75DB0075A823DA
:100A500075E69075B80175BF8075AB0075D10C75E2
:100A6000BCB975BB1075E88075B20112053BD2AFF9
:100A7000753C00C23012054FC231C232C233C2349B
:100A800075520075530075220012054BC3E5229480
:100A90000A5002615DD23175220012054BC3E52276
:100AA000940A5002615DC231D23275220012054BA8
:100AB000C3E522940A5002615D75E4917588517511
:100AC0008E017589AA758C00758D00C2A9D2ABD232
:100AD000AA756B80756A14756E50C232D234752255
:100AE0000A12054B756A10C3E522940A7552007507
:100AF00053004069758E0C756B00756A28756E28F9
:100B000075220A12054B756A20C3E522940A7552B4
:100B1000007553004047758E0C756B80756A1475AF
:100B20006E1475220A12054B756A10C3E522940AE9
:100B3000755200755300402575E401758811758E56
:100B400004758909D2A9C2ABC2AAC234D2337522B4
:100B50000012054BC3E522940A400221F612053F1C
:100B60002030030209F6C2AF1206FD1206FD12067E
:100B7000FDD2AF12054F203403303A03020C20128D
:100B8000053F788CE6C3940150028120E530C39480
:100B900001500281207567A57568F17F02D2361178
:100BA0007F12054BC2AFC236117FC3E554947FD28A
:100BB000AF406D12053BC2AF12070FD2AFDFDE317F
:100BC00034C3EF7897F612054F1210097F0AD23618
:100BD000117F12054BC2AFC236117FC3E554947F1B
:100BE000D2AF50E812053BC2AF1206FD1205431208
:100BF00006FDD2AFDFD83134EF24037896F6F879CA
:100C000097E7C394234003985006E824237897F687
:100C100012054FF16312103812054B117F0209F6CD
:100C200075670075680012054BC3E55494014002D6
:100C30006176C2AF12070F12070F12070FD2AF1261
:100C4000054F753000E4F537F5380537E537F470B2
:100C50003F0538789AE67819146012783214600DDE
:100C6000787D14600878FA146003753800C3E5389D
:100C700098401D12076812053B15387537007899A2
:100C80008664C2AF12070FD2AF7898866412054B04
:100C9000120543E523700221F6C3E5549401500A7E
:100CA000C3E55294015016020C4A12054BE523701D
:100CB000030209F6755200755300020E5FC3E55238
:100CC00094017017C2AF120768789986641206FD06
:100CD00078988664D2AF12054BC151C3E552940295
:100CE0007017C2AF12076878998664120703789864
:100CF0008664D2AF12054BC151C3E55294037017FD
:100D0000C2AF1207687899866412070978988664DA
:100D1000D2AF12054BC151C3E55294047017C2AF54
:100D20001207687899866412070F78988664D2AFA4
:100D300012054BC151C3E55294057017C2AF12079B
:100D4000687899866412070F78988664D2AF120586
:100D50004BC151C3E55294077019C3E55394065033
:100D60000281997401303A0274037888F6C238C25D
:100D700039C151C3E55294087019C3E55394065024
:100D80000281997402303A0274047888F6D238D21B
:100D900039C151C3E55294097017C3E55394065005
:100DA000028199303A0BC37888E69402F6C23AC1C0
:100DB00051C3E552940A7016C3E55394065002815C
:100DC00099203A0A7888E62402F6D23AC151C3E55E
:100DD0005294147025C3E553940650028199C2AF12
:100DE000901A0B740093D2AF7888F613C238C239C8
:100DF0004002D2384002D2398057C3E55294157070
:100E000038C3E5539406404FC2AF901A0B74009359
:100E1000D2AFF8B801027402B802027401B803023A
:100E20007404B8040274037888F613C238C23940D7
:100E300002D2384002D2398018C3E552940C7011A6
:100E40007567A57568F1C3E5539406400AF163D24E
:100E5000AF7552007553007567007568008199C2BF
:100E6000AF120768E4D2AFE4F55EF524F525F53D51
:100E7000755E0812053B12055E30EDFDA8BDA9BEEA
:100E8000E97001F8885F120562755E08C2AF12054D
:100E9000C9855D5B855D5CD2AF75A71075C1307586
:100EA000A70075A903756601C235303A03303A2BA5
:100EB000203815203515C2AFC286D291D29075D494
:100EC000DF75D507D2AF80132035EBC2AFC285D214
:100ED00090D29175D4BF75D507D2AFC3E5549401B4
:100EE0004003020EAD8000C2AF1207687524007582
:100EF000250075A91375A71075C10075A700756643
:100F000000D2AF12054B12076878A4E6600CC285C8
:100F1000D290C286D291C287D2928145901A0D7822
:100F200020F19CE520B4550AA3F19CE520B4AA0267
:100F300080137567A57568F112077BF1637567000B
:100F4000756800801D901A0378807B0AF19CA308C5
:100F5000DBFA901A0F788C7B1AF19CA308DBFA90CD
:100F60001A2922C2AFF1DFF1BC901A007410F1A16E
:100F7000A37407F1A1A37421F1A1901A0378807BD7
:100F80000AF1A0A308DBFA901A0F788C7B1AF1A063
:100F9000A308DBFAF1F2F1D0901A2922E493F622A9
:100FA000E6438F01538FFDFFC3E583941C4001226C
:100FB000EF8567B78568B7F0538FFE22438F0243F2
:100FC0008F018567B78568B7901A0DF0538FFC22A3
:100FD000901A0D7455F1A1901A0E74AAF1A1227AFB
:100FE0003079D07820901A40F19CE520F709A3DAF7
:100FF000F7227A3079D0901A40E7F1A109A3DAF903
:10100000227C0512054FDCFB22C2AF1206FD12073F
:101010000312070912070F1205431206FD120703F8
:1010200012070912070F1205431206FD12070312D9
:10103000070912070FD2AF22C2AF12070F1207091A
:101040001207031206FD12054312070F12070912B9
:1010500007031206FD12054312070F1207091207B4
:07106000031206FDD2AF22CE
:1019FD00020987100721FFFFFFFFFFFF09FF01FF0E
:101A0D0055AA01FFFFFFFFFF03FFFFFF25D0FA508F
:0D1A1D0004FF02FF7AFF0701FFFF0000FF3A
:101A400023515F485F303023202020202020202099
:101A500023424C48454C492445464D3842323123B7
:101A60002020202020202020202020202020202076
:101C0000C2AFC2D37597DE7597AD7581C075A90057
:101C100043FF80752438752503B1DB7529A5752A26
:101C2000F143F10253A4FDD28175D4FF75E3407DE9
:101C3000FA780379E67C10752200752300901DE880
:101C40007B06752498752501308102814820810822
:101C5000D8FBD9F9DCF781BA308108D8FBD9F9DC97
:101C6000F781BAB19BE493A3C39A6004DDC381BA40
:101C7000DBDBB18D600281317B08E493FAA3B16EA6
:101C8000DBF87A30B16E752200752300B18DEAFC65
:101C9000EBFDC3ED94FE400EB18D8A278B28ED300D
:101CA000E0048A828B83B18D7AC270D8C3ED94FE32
:101CB000601950CEBD0029EC600F7520007521FF22
:101CC000752900752A000200008100A827A92808AC
:101CD00009D804D90281DDB191EAF281D10D81A642
:101CE000C3ED94035051EDA2E092007AC5C3E582A2
:101CF0009400E583941C508C200010438F02438F86
:101D0000018529B7852AB7F0300027A827A9280818
:101D100009438F01538FFDD804D902A132C3E58353
:101D2000941C4003A3A117E28529B7852AB7F0A325
:101D3000A117538FFC81827AC1BD030CE493A3FAEF
:101D4000B152DCF8B14A81828184AA22AB23B16E00
:101D5000EBFAEA6222752608C3E52313F523E52290
:101D600013F52250066323A0632201D526EAB1DBD6
:101D7000B1DB75260AEAF4200102D281300102C2E9
:101D800081B1DBC3134002C201D526EB22B191EA37
:101D9000FB208102A191308102A196752608AE2414
:101DA000AF25C3EF13FFEE13FEB1DFB1DBC3EA13C0
:101DB0003081024480FA30E703632201C3E5231334
:101DC000F523E52213F52250066323A0632201D5F3
:101DD00026D9E52265236523F52222AE24AF250E00
:101DE0000FDEFEDFFCD20122424C48656C693437BD
:061DF0003164E8B20601B7
:00000001FF
