:020000040000FA
:060000000219FD0202EFEF
:030013000204C61E
:03001B0002008D53
:03002B000202B41A
:03005B000204D5C7
:030073000202DCAA
:100080000406080C10182030406080A0C0C2AFC227
:10009000A853E6EFC28E856B8BC0D0D2D3C0E0C030
:1000A000F0C2CAA8CCA9CDD2CAD2AF758A00C3E823
:1000B000956CF8E9956DF9C3E913F9E813F8E5666D
:1000C0006007C3E913F9E813F8E97025E8956E4075
:1000D00020956E501CE582B410177C007B007A00DE
:1000E0007908900000A86AE5667004C3E813F80177
:1000F000FA900000D2A8D2AA6199E0FDC39CC398EF
:1001000040EF98EB33FB0582E0FCC39DC39840E1D0
:1001100098EB33FB0582E0FDC39CC39840D398EB7A
:1001200033FB0582E0FCC39DC39840C598EB33FBCD
:100130000582E0FDC39CC39840B798EB33FB058272
:10014000E0FCC39DC39840A998EB33FB0582E0FD1A
:10015000C39CC398409B98EB33FB0582E0FCC39D96
:10016000C398408D98EB33FB05822175900000D237
:10017000A8D2AA6199E0FDC39CC39840EF98EA33E6
:10018000FA0582E0FCC39DC39840E198EA33FA0582
:1001900082E0FDC39CC39840D398EA33FA0582E01D
:1001A000FCC39DC39840C598EA33FA0582E0FDC3BD
:1001B0009CC39840B798EA33FA0582E0FCC39DC31C
:1001C0009840A998EA33FA0582E0FDC39CC39840A1
:1001D0009B98EA33FA0582E0FCC39DC398408D9852
:1001E000EA33FA0582EBC46B6A54F0F9EAC454F0BE
:1001F000C3996009900000D2A8D2AA6199EBF4C417
:1002000054F0F9EAF4C4540F49FAEBF4C4540FFB68
:10021000C3EAF99460FAEB9400FB5020C3E97B0039
:100220007A0079006016C3135006F9C39552600A2C
:10023000E9F552755300790080020553303A27C31F
:10024000EA94D0F8EB9407F9400BE8FAE9FB203583
:1002500009D235415A303502C235203902B235C390
:10026000EA33FAEB33FBEB2B3B3BF9C3EB13FBEA33
:1002700013FAEA29FAEB3400FB30E3047AFF7BFF40
:10028000C3EA33C4540FF8EB33C454F048F8700594
:10029000EA60027801C3EB13FBEA13FA900000D284
:1002A000A8D2AAE52260021522817D900000D2A882
:1002B000D2AA6199C0D0C0E0C2CF0541E523600257
:1002C0001523C3E554600575550041D7E555240154
:1002D000F55550037555FFD0E0D0D032C2AF53E68C
:1002E0007F7592FA7593FFC22053917FD2AF32C0CF
:1002F000E0E58A303408856B8BF0A3D0E032D0E0A3
:10030000C2AF53E6EFC0D0C0E0C0F0D2D3D2AF53FB
:1003100088EFA88AA98C758A00758C0043881030F4
:10032000331FE8C4540FFAE9C454F04AFAC3132A3D
:10033000FAC3E833F8E933F9E82AFAE93403FB6150
:100340008A30320FC3E833E933FAE82AFAE9340095
:10035000FB618A303115E875F056A4AAF0E975F012
:1003600056A42AFAC5F03400FB618AE875F02BA484
:10037000AAF0E975F02BA42AFAC5F03400C313FBE8
:10038000EA13FAC3EB13FBEA13FAC3EB940950091F
:10039000C3EA949AEB940350160522E522700215E5
:1003A00022C3E5229432500281B975540081BCE524
:1003B00022600215223036067C007D0461C9AC3112
:1003C000AD32303A04AC33AD34C3EA9CFAEB9DFB5A
:1003D0009208AE60AF61303A425007203509D235FD
:1003E00061E7303502C235303504AE62AF63203983
:1003F00002B235C3EA33FAEB33FBA208500AEAF43F
:100400002401FAEBF43400FBC3EA9428FAEB9400DD
:10041000FB501478007A007B008127A208500878EE
:10042000007A007B00817DE52554036019202A169F
:10043000E55DF9EB7007C3E99A4002E9FAE53CC4CF
:100440002AFAEB3400FBEA8EF0A4F9AAF0EB8EF066
:10045000A42AFAC5F03400FBC3EB13FDEA13F80F2E
:10046000EF146004C3E833F8C3E933EA33FAEB333B
:10047000FBDFEDEB30E20678FF7AFF7B038854D296
:1004800030E86003755500EAF4F8EBF45403F9C35F
:10049000E89446FAE99400FB50047A007B00885601
:1004A00089578A588B5975230AD0F0D0E0D0D053A1
:1004B000F7DF43F74043E6103275230AD0F0D0E06F
:1004C000D0D043E61032C2AAD28EC2CA85CC6C8587
:1004D000CD6DD2CA32C2AFC0D0C0E0D2D3A8F9E548
:1004E0005A30E10AE5FA20E13520E03281F6E5FAFA
:1004F00030E12B20E028C3E55713F8E55613F5FB50
:1005000088FCC3E55913F8E55813F5E988EA8557DF
:100510005A53F7BFD2A8303402D2AA53E6EF53F7AA
:10052000DFD0E0D0D0D2AF327901801479038010CF
:10053000790A800C791E80087964800479C880006B
:100540007817E4D5E0FDD8FAD9F62275E8902205AF
:100550005EC3E55E9408405330EDF4A8BDA9BE75B6
:100560005E00E9FA79A0E76041EA7006E55F60188D
:10057000800CC3E8955F600EE55F5005600A14804B
:10058000070460FA8002E55FF55FC39569401B755B
:100590005BC0C394044013755B80C39404400B7527
:1005A0005B40C394044003755B0022E55B2410505C
:1005B0000274FFF55B22743279A687F0A4C5F0A21D
:1005C000F733F55D22203810C2AFC294D29575D5AD
:1005D00036D2AF759F20C195C2AFC294D29375D564
:1005E0001BD2AF759F20C195203810C2AFC2907545
:1005F000D52DD295D2AF759F30C195C2AFC292753D
:10060000D52DD293D2AF759F10C195203810C2AFAF
:10061000C295D29375D52DD2AF759F108077C2AF9A
:10062000C293D29575D52DD2AF759F308067203893
:1006300010C2AFC29175D51BD293D2AF759F2080E7
:1006400054C2AFC29175D536D295D2AF759F208076
:1006500044203810C2AFC293D29475D51BD2AF7567
:100660009F308031C2AFC295D29475D536D2AF7566
:100670009F108021203810C2AFC29275D536D29417
:10068000D2AF759F10800EC2AFC29075D51BD294A9
:10069000D2AF759F30227A147B7880127A107B8CCF
:1006A000800C7A0D7BB480067A0B7BC88000E564F1
:1006B000D5E001227902E4C294D5E0FDD291D5E0E3
:1006C000FDC291D5E0FDD294D5E0FDE920E002D253
:1006D0009230E002D290E564D5E0FDE920E002C26C
:1006E0009230E002C2907496D5E0FDD9C9EAF8D5FF
:1006F000E0FDD8FBDBB8C29422C292C291C290C284
:1007000095C294C29375D53F22788076FF0876FF14
:100710000876FF0876FF0876FF0876FF0876090856
:1007200076FF087601788C76010876FF0876FF0858
:1007300076FF0876FF0876FF0876030876FF0876CE
:10074000FF0876FF0876250876D00876FA087650F6
:100750000876040876FF0876020876FF08767A089D
:1007600076FF0876070876010876FF0876FF087698
:100770000008760022FA75F00CA4ABF0EAC333F857
:10078000740133F9E8C333F8E933F9E8C32BF8E926
:100790003400F9227888E6C39403D23A5002C23A70
:1007A000C238E630E102D238A23892397886E614AF
:1007B0009000809378A6F67886E6F53FC3940250C1
:1007C00003753F02789CE6753EFFB40203753EA0B8
:1007D000B40303753E8278A0E6F860067428240905
:1007E000D8FCF5697896E6F17588318932789EE60D
:1007F000F175883389347897E6F175883589361232
:1008000006F9223036117A007B007CFF7D007E00E5
:1008100011698B618A6022303A227896E6FA7B0071
:10082000789EE6FC7D00C3EA33FAEB33FBC3EC337E
:10083000FCED33FD7E0A11698B638A627896303A4B
:1008400002789EE6FA7B007897E6FC7D007E003019
:100850003A10C3EA33FAEB33FBC3EC33FCED33FD60
:100860007E0A11698B618A6022C3EC9EFCED9400C4
:10087000FDC3EC9AFCED9BFDC3EC9423ED9400507A
:10088000047C237D00C3EC94FFED940140047CFFC5
:100890007D017BFF0B7A000AEA7009C3EC33FCEDA3
:1008A00033FD0194EC8AF0A4AEF0ED8AF0A42E940E
:1008B0007C40E4EAF460DD22D236110312053412E2
:1008C00005347A007B007C1012052CE5542AFA745A
:1008D000003BFBDCF37C04C3EB13FBEA13FADCF70D
:1008E000FFEB60027FFFC23611032278A5E6F954C0
:1008F000037000E9540C7000E954307000E954C0F2
:100900007000227567007568007597DE7597AD7584
:1009100081C043FF8075EF0675A9001206F9758046
:10092000FF75F1F075A4007580FF75D4FF75900018
:1009300075F23F75A53F75900075D53F75A6017599
:10094000E34075E2021206F9E4F8F6D8FD12070951
:10095000D15678988664753001C2AF12053C1206F4
:100960009612053412069C1205341206A2120534A2
:1009700011EBC2AF75670075680078FA79FA3085B7
:1009800007D9FBD8F7021C00120794110378988648
:10099000641206F975E405758811758E0475890968
:1009A00075C80475910475D84075D90875F78175B7
:1009B0009E0375960275DA4275DB4275A82175E6CD
:1009C0009075B801759B80759D0075D10C75BC59EB
:1009D00075BB1075E88075B201120528D2AF753C61
:1009E00000C23012053CC231C232C233C234755229
:1009F00000755300752200120538C3E522940A5091
:100A00000241CBD231752200120538C3E522940A87
:100A1000500241CBC231D232752200120538C3E5F3
:100A200022940A500241CB75E4D5758851758E0128
:100A30007589AA758C00758D00C2A9D2ABD2AA7532
:100A40006BC0756A14756E50C232D23475220A12A8
:100A50000538756A10C3E522940A75520075530073
:100A60004069758E0C756B80756A28756E287522C5
:100A70000A120538756A20C3E522940A755200757A
:100A800053004047758E0C756BC0756A14756E14F3
:100A900075220A120538756A10C3E522940A755248
:100AA00000755300402575E405758811758E047531
:100AB0008909D2A9C2ABC2AAC234D23375220012AC
:100AC0000538C3E522940A4002217212052C203019
:100AD00003020972C2AF120696120696120696D249
:100AE000AF12053C203403303A03020B8C12052C64
:100AF000788CE6C394015002618CE530C3940150B8
:100B000002618C7567A57568F17F02D236110312F8
:100B10000538C2AFC2361103C3E554947FD2AF404B
:100B20006B120528C2AF1206A8D2AFDFDE11B8C320
:100B3000EF7897F612053CF1437F0AD23611031283
:100B40000538C2AFC2361103C3E554947FD2AF500B
:100B5000E8120528C2AF120696120530120696D288
:100B6000AFDFD811B8EF24037896F6F87997E7C38A
:100B700094234003985006E824237897F612053C06
:100B8000D19DF17212053811030209727567007563
:100B90006800120538C3E5549401400241E4C2AF35
:100BA0001206A81206A81206A8D2AF12053C75308C
:100BB00000E4F537F5380537E537F4703F05387848
:100BC0009AE67819146012783214600D787D1460FA
:100BD0000878FA146003753800C3E53898401D1290
:100BE00006F9120528153875370078998664C2AF62
:100BF0001206A8D2AF78988664120538120530E53F
:100C00002370022172C3E5549401500AC3E5529443
:100C1000015016020BB6120538E523700302097263
:100C2000755200755300020DCBC3E5529401701745
:100C3000C2AF1206F978998664120696789886648F
:100C4000D2AF120538A1BDC3E55294027017C2AFEE
:100C50001206F97899866412069C78988664D2AF59
:100C6000120538A1BDC3E55294037017C2AF120636
:100C7000F9789986641206A278988664D2AF120534
:100C800038A1BDC3E55294047017C2AF1206F978BB
:100C90009986641206A878988664D2AF120538A1A6
:100CA000BDC3E55294057017C2AF1206F978998654
:100CB000641206A878988664D2AF120538A1BDC325
:100CC000E55294077019C3E55394065002810574E8
:100CD00001303A0274037888F6C238C239A1BDC324
:100CE000E55294087019C3E55394065002810574C7
:100CF00002303A0274047888F6D238D239A1BDC3E2
:100D0000E55294097017C3E55394065002810530EB
:100D10003A0BC37888E69402F6C23AA1BDC3E55205
:100D2000940A7016C3E553940650028105203A0ACE
:100D30007888E62402F6D23AA1BDC3E55294147035
:100D400025C3E553940650028105C2AF901A0B7477
:100D50000093D2AF7888F613C238C2394002D23835
:100D60004002D2398057C3E55294157038C3E55319
:100D70009406404FC2AF901A0B740093D2AFF8B8EC
:100D800001027402B802027401B803027404B804C8
:100D90000274037888F613C238C2394002D2384050
:100DA00002D2398018C3E552940C70117567A5758D
:100DB00068F1C3E5539406400AD19DD2AF75520045
:100DC0007553007567007568008105C2AF1206F99A
:100DD000E4D2AFE4F55EF524F525F53D755E081225
:100DE000052812054B30EDFDA8BDA9BEE97001F83C
:100DF000885F12054F755E08C2AF1205B6855D5B50
:100E0000855D5CD2AFC235303A03303A1D20380ED2
:100E100020350EC2AFD29375D52DD2AF800C2035C0
:100E2000F2C2AFD29475D536D2AFC3E55494014027
:100E300003020E0A8000C2AF1206F9752400752560
:100E400000D2AF1205381206F978A4E66006D295F2
:100E5000D294D29361B1901A0D7820D1D6E520B406
:100E6000550AA3D1D6E520B4AA0280137567A575EB
:100E700068F1120709D19D756700756800801D90A3
:100E80001A0378807B0AD1D6A308DBFA901A0F7870
:100E90008C7B1AD1D6A308DBFA901A2922C2AFF1B3
:100EA00019D1F6901A007410D1DBA37407D1DBA31B
:100EB0007421D1DB901A0378807B0AD1DAA308DB96
:100EC000FA901A0F788C7B1AD1DAA308DBFAF12C8E
:100ED000F10A901A2922E493F622E6438F01538FF8
:100EE000FDFFC3E583941C400122EF8567B7856849
:100EF000B7F0538FFE22438F02438F018567B7857A
:100F000068B7901A0DF0538FFC22901A0D7455D1CA
:100F1000DB901A0E74AAD1DB227A3079D078209037
:100F20001A40D1D6E520F709A3DAF7227A3079D032
:100F3000901A40E7D1DB09A3DAF9227C0512053CBF
:100F4000DCFB22C2AF12069612069C1206A2120603
:100F5000A812053012069612069C1206A21206A8C6
:100F600012053012069612069C1206A21206A8D28C
:100F7000AF22C2AF1206A81206A212069C12069653
:100F80001205301206A81206A212069C120696122C
:100F900005301206A81206A212069C120696D2AFBF
:010FA000222E
:1019FD00020903100721FFFFFFFFFFFF09FF01FF92
:101A0D0055AA01FFFFFFFFFF03FFFFFF25D0FA508F
:0D1A1D0004FF02FF7AFF0701FFFF0000FF3A
:101A400023525F4C5F37302320202020202020208D
:101A500023424C48454C492445464D3842313023B9
:101A60002020202020202020202020202020202076
:101C0000C2AFC2D37597DE7597AD7581C075A90057
:101C100043FF80752438752503B1DB7529A5752A26
:101C2000F143F12053A4DFD28575D4FF75E3407DE5
:101C3000FA780379E67C10752200752300901DE880
:101C40007B0675249875250130850281482085081A
:101C5000D8FBD9F9DCF781BA308508D8FBD9F9DC93
:101C6000F781BAB19BE493A3C39A6004DDC381BA40
:101C7000DBDBB18D600281317B08E493FAA3B16EA6
:101C8000DBF87A30B16E752200752300B18DEAFC65
:101C9000EBFDC3ED94FE400EB18D8A278B28ED300D
:101CA000E0048A828B83B18D7AC270D8C3ED94FE32
:101CB000601950CEBD0029EC600F7520007521FF22
:101CC000752900752A000200008100A827A92808AC
:101CD00009D804D90281DDB191EAF281D10D81A642
:101CE000C3ED94035051EDA2E092007AC5C3E582A2
:101CF0009400E583941C508C200010438F02438F86
:101D0000018529B7852AB7F0300027A827A9280818
:101D100009438F01538FFDD804D902A132C3E58353
:101D2000941C4003A3A117E28529B7852AB7F0A325
:101D3000A117538FFC81827AC1BD030CE493A3FAEF
:101D4000B152DCF8B14A81828184AA22AB23B16E00
:101D5000EBFAEA6222752608C3E52313F523E52290
:101D600013F52250066323A0632201D526EAB1DBD6
:101D7000B1DB75260AEAF4200102D285300102C2E5
:101D800085B1DBC3134002C201D526EB22B191EA33
:101D9000FB208502A191308502A196752608AE240C
:101DA000AF25C3EF13FFEE13FEB1DFB1DBC3EA13C0
:101DB0003085024480FA30E703632201C3E5231330
:101DC000F523E52213F52250066323A0632201D5F3
:101DD00026D9E52265236523F52222AE24AF250E00
:101DE0000FDEFEDFFCD20122424C48656C693437BD
:061DF0003164E8B10601B8
:00000001FF
