:020000040000FA
:060000000219FD0202EFEF
:030013000204C61E
:03001B0002008D53
:03002B000202B41A
:03005B000204D5C7
:030073000202DCAA
:100080000406080C10182030406080A0C0C2AFC227
:10009000A853E6EFC28E856B8BC0D0D2D3C0E0C030
:1000A000F0C2CAA8CCA9CDD2CAD2AF758A00C3E823
:1000B000956CF8E9956DF9C3E913F9E813F8E5666D
:1000C0006007C3E913F9E813F8E97025E8956E4075
:1000D00020956E501CE582B410177C007B007A00DE
:1000E0007908900000A86AE5667004C3E813F80177
:1000F000FA900000D2A8D2AA6199E0FDC39CC398EF
:1001000040EF98EB33FB0582E0FCC39DC39840E1D0
:1001100098EB33FB0582E0FDC39CC39840D398EB7A
:1001200033FB0582E0FCC39DC39840C598EB33FBCD
:100130000582E0FDC39CC39840B798EB33FB058272
:10014000E0FCC39DC39840A998EB33FB0582E0FD1A
:10015000C39CC398409B98EB33FB0582E0FCC39D96
:10016000C398408D98EB33FB05822175900000D237
:10017000A8D2AA6199E0FDC39CC39840EF98EA33E6
:10018000FA0582E0FCC39DC39840E198EA33FA0582
:1001900082E0FDC39CC39840D398EA33FA0582E01D
:1001A000FCC39DC39840C598EA33FA0582E0FDC3BD
:1001B0009CC39840B798EA33FA0582E0FCC39DC31C
:1001C0009840A998EA33FA0582E0FDC39CC39840A1
:1001D0009B98EA33FA0582E0FCC39DC398408D9852
:1001E000EA33FA0582EBC46B6A54F0F9EAC454F0BE
:1001F000C3996009900000D2A8D2AA6199EBF4C417
:1002000054F0F9EAF4C4540F49FAEBF4C4540FFB68
:10021000C3EAF99460FAEB9400FB5020C3E97B0039
:100220007A0079006016C3135006F9C39552600A2C
:10023000E9F552755300790080020553303A27C31F
:10024000EA94D0F8EB9407F9400BE8FAE9FB203583
:1002500009D235415A303502C235203902B235C390
:10026000EA33FAEB33FBEB2B3B3BF9C3EB13FBEA33
:1002700013FAEA29FAEB3400FB30E3047AFF7BFF40
:10028000C3EA33C4540FF8EB33C454F048F8700594
:10029000EA60027801C3EB13FBEA13FA900000D284
:1002A000A8D2AAE52260021522817D900000D2A882
:1002B000D2AA6199C0D0C0E0C2CF0541E523600257
:1002C0001523C3E554600575550041D7E555240154
:1002D000F55550037555FFD0E0D0D032C2AF53E68C
:1002E0007F7592FA7593FFC22053917FD2AF32C0CF
:1002F000E0E58A303408856B8BF0A3D0E032D0E0A3
:10030000C2AF53E6EFC0D0C0E0C0F0D2D3D2AF53FB
:1003100088EFA88AA98C758A00758C0043881030F4
:10032000331FE8C4540FFAE9C454F04AFAC3132A3D
:10033000FAC3E833F8E933F9E82AFAE93403FB6150
:100340008A30320FC3E833E933FAE82AFAE9340095
:10035000FB618A303115E875F056A4AAF0E975F012
:1003600056A42AFAC5F03400FB618AE875F02BA484
:10037000AAF0E975F02BA42AFAC5F03400C313FBE8
:10038000EA13FAC3EB13FBEA13FAC3EB940950091F
:10039000C3EA949AEB940350160522E522700215E5
:1003A00022C3E5229432500281B975540081BCE524
:1003B00022600215223036067C007D0461C9AC3112
:1003C000AD32303A04AC33AD34C3EA9CFAEB9DFB5A
:1003D0009208AE60AF61303A425007203509D235FD
:1003E00061E7303502C235303504AE62AF63203983
:1003F00002B235C3EA33FAEB33FBA208500AEAF43F
:100400002401FAEBF43400FBC3EA9428FAEB9400DD
:10041000FB501478007A007B008127A208500878EE
:10042000007A007B00817DE52554036019202A169F
:10043000E55DF9EB7007C3E99A4002E9FAE53CC4CF
:100440002AFAEB3400FBEA8EF0A4F9AAF0EB8EF066
:10045000A42AFAC5F03400FBC3EB13FDEA13F80F2E
:10046000EF146004C3E833F8C3E933EA33FAEB333B
:10047000FBDFEDEB30E20678FF7AFF7B038854D296
:1004800030E86003755500EAF4F8EBF45403F9C35F
:10049000E89446FAE99400FB50047A007B00885601
:1004A00089578A588B5975230AD0F0D0E0D0D053A1
:1004B000F7DF43F74043E6103275230AD0F0D0E06F
:1004C000D0D043E61032C2AAD28EC2CA85CC6C8587
:1004D000CD6DD2CA32C2AFC0D0C0E0D2D3A8F9E548
:1004E0005A30E10AE5FA20E13520E03281F6E5FAFA
:1004F00030E12B20E028C3E55713F8E55613F5FB50
:1005000088FCC3E55913F8E55813F5E988EA8557DF
:100510005A53F7BFD2A8303402D2AA53E6EF53F7AA
:10052000DFD0E0D0D0D2AF327901801479038010CF
:10053000790A800C791E80087964800479C880006B
:100540007817E4D5E0FDD8FAD9F62275E8902205AF
:100550005EC3E55E9408405330EDF4A8BDA9BE75B6
:100560005E00E9FA79A0E76041EA7006E55F60188D
:10057000800CC3E8955F600EE55F5005600A14804B
:10058000070460FA8002E55FF55FC39569401B755B
:100590005BC0C394044013755B80C39404400B7527
:1005A0005B40C394044003755B0022E55B2410505C
:1005B0000274FFF55B22743279A687F0A4C5F0A21D
:1005C000F733F55D22203810C2AFC295D29475D5AD
:1005D00037D2AF759F45C195C2AFC295D29675D53A
:1005E0006DD2AF759F45C195203810C2AFC29375CB
:1005F000D55BD294D2AF759F65C195C2AFC29175DC
:10060000D55BD296D2AF759F75C195203810C2AF19
:10061000C294D29675D55BD2AF759F758077C2AF05
:10062000C296D29475D55BD2AF759F65806720382E
:1006300010C2AFC29275D56DD296D2AF759F45806C
:1006400054C2AFC29275D537D294D2AF759F458050
:1006500044203810C2AFC296D29575D56DD2AF7511
:100660009F658031C2AFC294D29575D537D2AF7530
:100670009F758021203810C2AFC29175D537D295B1
:10068000D2AF759F75800EC2AFC29375D56DD295EE
:10069000D2AF759F65227A147B7880127A107B8C9A
:1006A000800C7A0D7BB480067A0B7BC88000E564F1
:1006B000D5E001227902E4C295D5E0FDD292D5E0E1
:1006C000FDC292D5E0FDD295D5E0FDE920E002D251
:1006D0009130E002D293E564D5E0FDE920E002C26A
:1006E0009130E002C2937496D5E0FDD9C9EAF8D5FD
:1006F000E0FDD8FBDBB8C29522C291C292C293C280
:1007000094C295C29675D57F22788076FF0876FFD1
:100710000876FF0876FF0876FF0876FF0876090856
:1007200076FF087601788C76010876FF0876FF0858
:1007300076FF0876FF0876FF0876030876FF0876CE
:10074000FF0876FF0876250876D00876FA087650F6
:100750000876040876FF0876020876FF08767A089D
:1007600076FF0876070876010876FF0876FF087698
:100770000008760022FA75F00CA4ABF0EAC333F857
:10078000740133F9E8C333F8E933F9E8C32BF8E926
:100790003400F9227888E6C39403D23A5002C23A70
:1007A000C238E630E102D238A23892397886E614AF
:1007B0009000809378A6F67886E6F53FC3940250C1
:1007C00003753F02789CE6753EFFB40203753EA0B8
:1007D000B40303753E8278A0E6F860067428240905
:1007E000D8FCF5697896E6F17588318932789EE60D
:1007F000F175883389347897E6F175883589361232
:1008000006F9223036117A007B007CFF7D007E00E5
:1008100011698B618A6022303A227896E6FA7B0071
:10082000789EE6FC7D00C3EA33FAEB33FBC3EC337E
:10083000FCED33FD7E0A11698B638A627896303A4B
:1008400002789EE6FA7B007897E6FC7D007E003019
:100850003A10C3EA33FAEB33FBC3EC33FCED33FD60
:100860007E0A11698B618A6022C3EC9EFCED9400C4
:10087000FDC3EC9AFCED9BFDC3EC9423ED9400507A
:10088000047C237D00C3EC94FFED940140047CFFC5
:100890007D017BFF0B7A000AEA7009C3EC33FCEDA3
:1008A00033FD0194EC8AF0A4AEF0ED8AF0A42E940E
:1008B0007C40E4EAF460DD22D236110312053412E2
:1008C00005347A007B007C1012052CE5542AFA745A
:1008D000003BFBDCF37C04C3EB13FBEA13FADCF70D
:1008E000FFEB60027FFFC23611032278A5E6F954C0
:1008F00003C2827002D282E9540CC2817002D2819A
:10090000E95430C2807002D280E954C07000227570
:1009100067007568007597DE7597AD7581C043FFF8
:100920008075EF0675A9001206F97580FF75F10F45
:1009300075A4077580FF75D4FF75900075F27E75FC
:10094000A57E75900075D57F75A60175E34075E2AB
:10095000021206F9E4F8F6D8FD120709D162789878
:100960008664753001C2AF12053C1206961205343A
:1009700012069C1205341206A212053411EBC2AF06
:1009800075670075680078FA79FA308307D9FBD863
:10099000F7021C001207941103789886641206F976
:1009A00075E403758811758E0475890975C8047519
:1009B000910475D84075D90875F781759E037596B1
:1009C0000275DA4275DB4275A82175E69075B801AB
:1009D000759B80759D0075D10C75BC5975BB1075E4
:1009E000E88075B201120528D2AF753C00C2301202
:1009F000053CC231C232C233C23475520075530055
:100A0000752200120538C3E522940A500241D7D25C
:100A100031752200120538C3E522940A500241D7ED
:100A2000C231D232752200120538C3E522940A5031
:100A30000241D775E4B3758851758E017589AA7521
:100A40008C00758D00C2A9D2ABD2AA756BC0756A35
:100A500014756E50C232D23475220A120538756A86
:100A600010C3E522940A7552007553004069758ED3
:100A70000C756B80756A28756E2875220A12053808
:100A8000756A20C3E522940A7552007553004047E9
:100A9000758E0C756BC0756A14756E1475220A120A
:100AA0000538756A10C3E522940A75520075530023
:100AB000402575E403758811758E04758909D2A9DE
:100AC000C2ABC2AAC234D233752200120538C3E5C4
:100AD00022940A4002217E12052C20300302097E56
:100AE000C2AF120696120696120696D2AF12053CB7
:100AF000203403303A03020B9812052C788CE6C39D
:100B0000940150026198E530C394015002619875D8
:100B100067A57568F17F02D2361103120538C2AF9E
:100B2000C2361103C3E554947FD2AF406B1205283F
:100B3000C2AF1206A8D2AFDFDE11B8C3EF7897F6C6
:100B400012053CF14F7F0AD2361103120538C2AFAD
:100B5000C2361103C3E554947FD2AF50E812052882
:100B6000C2AF120696120530120696D2AFDFD81128
:100B7000B8EF24037896F6F87997E7C394234003F7
:100B8000985006E824237897F612053CD1A9F17E07
:100B9000120538110302097E756700756800120599
:100BA00038C3E5549401400241F0C2AF1206A812C6
:100BB00006A81206A8D2AF12053C753000E4F5373E
:100BC000F5380537E537F4703F0538789AE6781937
:100BD000146012783214600D787D14600878FA146D
:100BE0006003753800C3E53898401D1206F91205F8
:100BF00028153875370078998664C2AF1206A8D2D6
:100C0000AF78988664120538120530E5237002210A
:100C10007EC3E5549401500AC3E552940150160274
:100C20000BC2120538E523700302097E7552007568
:100C30005300020DD7C3E55294017017C2AF1206DC
:100C4000F97899866412069678988664D2AF120570
:100C500038A1C9C3E55294027017C2AF1206F978E1
:100C600099866412069C78988664D2AF120538A1E2
:100C7000C9C3E55294037017C2AF1206F97899867A
:100C8000641206A278988664D2AF120538A1C9C34F
:100C9000E55294047017C2AF1206F978998664126F
:100CA00006A878988664D2AF120538A1C9C3E55268
:100CB00094057017C2AF1206F9789986641206A8D7
:100CC00078988664D2AF120538A1C9C3E55294075B
:100CD0007019C3E5539406500281117401303A0231
:100CE00074037888F6C238C239A1C9C3E5529408A2
:100CF0007019C3E5539406500281117402303A0210
:100D000074047888F6D238D239A1C9C3E55294095F
:100D10007017C3E553940650028111303A0BC37823
:100D200088E69402F6C23AA1C9C3E552940A701645
:100D3000C3E553940650028111203A0A7888E624CC
:100D400002F6D23AA1C9C3E55294147025C3E55303
:100D5000940650028111C2AF901A0B740093D2AF67
:100D60007888F613C238C2394002D2384002D239EC
:100D70008057C3E55294157038C3E5539406404F2D
:100D8000C2AF901A0B740093D2AFF8B8010274028C
:100D9000B802027401B803027404B8040274037840
:100DA00088F613C238C2394002D2384002D23980A4
:100DB00018C3E552940C70117567A57568F1C3E509
:100DC000539406400AD1A9D2AF75520075530075ED
:100DD00067007568008111C2AF1206F9E4D2AFE472
:100DE000F55EF524F525F53D755E0812052812051A
:100DF0004B30EDFDA8BDA9BEE97001F8885F120572
:100E00004F755E08C2AF1205B6855D5B855D5CD22D
:100E1000AFC235303A03303A1D20380E20350EC2AD
:100E2000AFD29475D537D2AF800C2035F2C2AFD295
:100E30009675D56DD2AFC3E55494014003020E16EA
:100E40008000C2AF1206F9752400752500D2AF12DA
:100E500005381206F978A4E66006D294D295D296A7
:100E600061BD901A0D7820D1E2E520B4550AA3D1D6
:100E7000E2E520B4AA0280137567A57568F1120730
:100E800009D1A9756700756800801D901A037880E4
:100E90007B0AD1E2A308DBFA901A0F788C7B1AD177
:100EA000E2A308DBFA901A2922C2AFF125F10290E1
:100EB0001A007410D1E7A37407D1E7A37421D1E716
:100EC000901A0378807B0AD1E6A308DBFA901A0F08
:100ED000788C7B1AD1E6A308DBFAF138F116901A68
:100EE0002922E493F622E6438F01538FFDFFC3E5E9
:100EF00083941C400122EF8567B78568B7F0538F54
:100F0000FE22438F02438F018567B78568B7901A29
:100F10000DF0538FFC22901A0D7455D1E7901A0EE4
:100F200074AAD1E7227A3079D07820901A40D1E2A1
:100F3000E520F709A3DAF7227A3079D0901A40E752
:100F4000D1E709A3DAF9227C0512053CDCFB22C2B9
:100F5000AF12069612069C1206A21206A8120530BF
:100F600012069612069C1206A21206A8120530124C
:100F7000069612069C1206A21206A8D2AF22C2AF93
:100F80001206A81206A212069C120696120530122C
:100F900006A81206A212069C120696120530120628
:0D0FA000A81206A212069C120696D2AF22DD
:1019FD0002090F100721FFFFFFFFFFFF09FF01FF86
:101A0D0055AA01FFFFFFFFFF03FFFFFF25D0FA508F
:0D1A1D0004FF02FF7AFF0701FFFF0000FF3A
:101A400023555F4C5F37302320202020202020208A
:101A500023424C48454C492445464D3842313023B9
:101A60002020202020202020202020202020202076
:101C0000C2AFC2D37597DE7597AD7581C075A90057
:101C100043FF80752438752503B1DB7529A5752A26
:101C2000F143F10853A4F7D28375D4FF75E3407DE7
:101C3000FA780379E67C10752200752300901DE880
:101C40007B0675249875250130830281482083081E
:101C5000D8FBD9F9DCF781BA308308D8FBD9F9DC95
:101C6000F781BAB19BE493A3C39A6004DDC381BA40
:101C7000DBDBB18D600281317B08E493FAA3B16EA6
:101C8000DBF87A30B16E752200752300B18DEAFC65
:101C9000EBFDC3ED94FE400EB18D8A278B28ED300D
:101CA000E0048A828B83B18D7AC270D8C3ED94FE32
:101CB000601950CEBD0029EC600F7520007521FF22
:101CC000752900752A000200008100A827A92808AC
:101CD00009D804D90281DDB191EAF281D10D81A642
:101CE000C3ED94035051EDA2E092007AC5C3E582A2
:101CF0009400E583941C508C200010438F02438F86
:101D0000018529B7852AB7F0300027A827A9280818
:101D100009438F01538FFDD804D902A132C3E58353
:101D2000941C4003A3A117E28529B7852AB7F0A325
:101D3000A117538FFC81827AC1BD030CE493A3FAEF
:101D4000B152DCF8B14A81828184AA22AB23B16E00
:101D5000EBFAEA6222752608C3E52313F523E52290
:101D600013F52250066323A0632201D526EAB1DBD6
:101D7000B1DB75260AEAF4200102D283300102C2E7
:101D800083B1DBC3134002C201D526EB22B191EA35
:101D9000FB208302A191308302A196752608AE2410
:101DA000AF25C3EF13FFEE13FEB1DFB1DBC3EA13C0
:101DB0003083024480FA30E703632201C3E5231332
:101DC000F523E52213F52250066323A0632201D5F3
:101DD00026D9E52265236523F52222AE24AF250E00
:101DE0000FDEFEDFFCD20122424C48656C693437BD
:061DF0003164E8B10601B8
:00000001FF
