:020000040000FA
:060000000219FD0202FBE3
:03000B0002008D63
:030013000204FCE8
:03001B0002009050
:03002B000202B01E
:03005B0002050B90
:030073000202E89E
:100080000406080C10182030406080A0C0054032E3
:10009000C2AFC2A853E6EFC28E856B8BC0D0D2D35D
:1000A000C0E0C0F0C2CAA8CCA9CDD2CAD2AF758A6E
:1000B00000C3E8956CF8E9956DF9C3E913F9E81305
:1000C000F8E5666007C3E913F9E813F8E97025E875
:1000D000956E4020956E501CE582B410177C007B15
:1000E000007A007908900000A86AE5667004C3E809
:1000F00013F801FD900000D2A8D2AA61C6E0FDC3AA
:100100009CC39840EF98EB33FB0582E0FCC39DC392
:100110009840E198EB33FB0582E0FDC39CC3984017
:10012000D398EB33FB0582E0FCC39DC39840C59890
:10013000EB33FB0582E0FDC39CC39840B798EB33DB
:10014000FB0582E0FCC39DC39840A998EB33FB05F7
:1001500082E0FDC39CC398409B98EB33FB0582E093
:10016000FCC39DC398408D98EB33FB0582217890AA
:100170000000D2A8D2AA61C6E0FDC39CC39840EF9C
:1001800098EA33FA0582E0FCC39DC39840E198EAFF
:1001900033FA0582E0FDC39CC39840D398EA33FA52
:1001A0000582E0FCC39DC39840C598EA33FA0582F6
:1001B000E0FDC39CC39840B798EA33FA0582E0FC9F
:1001C000C39DC39840A998EA33FA0582E0FDC39C19
:1001D000C398409B98EA33FA0582E0FCC39DC3981C
:1001E000408D98EA33FA0582EBC46B6A54F0F9EA61
:1001F000C454F0C3996009900000D2A8D2AA61C685
:10020000EBF4C454F0F9EAF4C4540F49FAEBF4C423
:10021000540FFBC3EAF99460FAEB9400FB5020C33F
:10022000E97B007A0079006016C3135006F9C39584
:1002300052600AE9F5527553007900800205533087
:100240003A27C3EA94D0F8EB9407F9400BE8FAE9AF
:10025000FB203509D235415D303502C235203902E7
:10026000B235C3EA33FAEB33FBEB2B3B3BF9C3EB81
:1002700013FBEA13FAEA29FAEB3400FB30E3047AC1
:10028000FF7BFFC3EA33C4540FF8EB33C454F04888
:10029000F87005EA60027801900000D2A8D2AAE5C1
:1002A000226002152281B3900000D2A8D2AA61C6B2
:1002B000C0D0C0E0C2CF0541E5666009E5656005D4
:1002C00075650041E3756501E52360021523C3E50B
:1002D00054600575550041E3E5552401F55550037B
:1002E0007555FFD0E0D0D032C2AF53E67F7592FA99
:1002F0007593FFC22053917FD2AF32C0E0E58A30C0
:100300003408856B8BF0A3D0E032D0E0C2AF53E667
:10031000EFC0D0C0E0C0F0D2D3D2AF5388EFA88AEC
:10032000A98CAA40308D010A758A00758C00754031
:1003300000438810E566700AC3E833F8E933F9EA48
:1003400033FA30331FE8C4540FFAE9C454F04AFAC0
:10035000C3132AFAC3E833F8E933F9E82AFAE9348F
:1003600006FB61B730320FC3E833E933FAE82AFA03
:10037000E93400FB61B7303115E875F056A4AAF0F6
:10038000E975F056A42AFAC5F03400FB61B7C3EA58
:1003900013FAE913F9E813F8E875F056A4AAF0E99E
:1003A00075F056A42AFAC5F03400C313FBEA13FA19
:1003B000C3EB13FBEA13FAC3EB94125009C3EA949C
:1003C00034EB940750160522E52270021522C3E58E
:1003D000229432500281EF75540081F2E5226002CE
:1003E00015223036067C007D0861F6AC31AD323026
:1003F0003A04AC33AD34C3EA9CFAEB9DFB9208AEF1
:1004000060AF61303A425007203509D2358114304F
:100410003502C235303504AE62AF63203902B235E1
:10042000C3EA33FAEB33FBA208500AEAF42401FAD8
:10043000EBF43400FBC3EA9450FAEB9400FB501445
:1004400078007A007B008154A208500878007A0076
:100450007B0081B3E5255403601B202A18E55D333A
:10046000F9EB7007C3E99A4002E9FAE53CC4332A84
:10047000FAEB3400FBEA8EF0A4F9AAF0EB8EF0A4BC
:100480002AFAC5F03400FBC3EB13FDEA13F8C3ED01
:1004900013FDE813F80FEF146004C3E833F8C3E961
:1004A00033EA33FAEB33FBDFEDEB30E30678FF7A28
:1004B000FF7B078854D230E86003755500EAF4F8F2
:1004C000EBF45407F9C3E89428FAE99400FB5004CC
:1004D0007A007B00885689578A588B5975230AD031
:1004E000F0D0E0D0D053F7DF43F74043E610327549
:1004F000230AD0F0D0E0D0D043E61032C2AAD28E88
:10050000C2CA85CC6C85CD6DD2CA32C2AFC0D0C054
:10051000E0D2D3A8F9E55A30E20AE5FA20E2352024
:10052000E132A12CE5FA30E22B20E128C3E5571394
:10053000F8E55613F5E988EAC3E55913F8E55813C9
:10054000F5FB88FC85575A53F7BFD2A8303402D246
:10055000AA53E6EF53F7DFD0E0D0D0D2AF32790123
:10056000801479038010790A800C791E80087964E0
:10057000800479C880007817E4D5E0FDD8FAD9F670
:100580002275E89022055EC3E55E9408405330ED85
:10059000F4A8BDA9BE755E00E9FA79A0E76041EA5A
:1005A0007006E55F6018800CC3E8955F600EE55F3C
:1005B0005005600A1480070460FA8002E55FF55F69
:1005C000C39569401B755BC0C394044013755B8081
:1005D000C39404400B755B40C394044003755B00F7
:1005E00022E55B2410500274FFF55B22743279A679
:1005F00087F0A4C5F0A2F733F55D22203813C2AF0F
:10060000C291D29575D47F75D57ED2AF759F12C138
:10061000EFC2AFC291D28775D4FF75D51FD2AF7527
:100620009F12C1EF203813C2AFC29075D4FF75D5A9
:100630006DD295D2AF759F32C1EFC2AFC29675D45D
:10064000FF75D56DD287D2AF759F02C1EF203813E9
:10065000C2AFC295D28775D4FF75D56DD2AF759FE5
:1006600002C1EFC2AFC287D29575D4FF75D56DD2E6
:10067000AF759F328079203813C2AFC29475D4FF12
:1006800075D51FD287D2AF759F128063C2AFC29457
:1006900075D47F75D57ED295D2AF759F12805020CC
:1006A0003813C2AFC287D29175D4FF75D51FD2AFB0
:1006B000759F32803AC2AFC295D29175D47F75D5FD
:1006C0007ED2AF759F028027203813C2AFC29675C5
:1006D000D47F75D57ED291D2AF759F028011C2AF03
:1006E000C29075D4FF75D51FD291D2AF759F3222BB
:1006F0007A147B7880127A107B8C800C7A0D7BB414
:1007000080067A0B7BC88000E564D5E0012279027F
:10071000E4C291D5E0FDD294D5E0FDC294D5E0FDD0
:10072000D291D5E0FDE920E002D29630E002D290ED
:10073000E564D5E0FDE920E002C29630E002C29017
:100740007496D5E0FDD9C9EAF8D5E0FDD8FBDBB851
:10075000C29122C296C294C290C295C291C28775BC
:10076000D4FF75D57F22788076FF0876FF0876FF64
:100770000876FF0876FF0876FF0876090876FF08F6
:100780007601788C76010876FF0876FF0876FF08F8
:1007900076FF0876FF0876030876FF0876FF08766E
:1007A000FF0876250876D00876FA08765008760491
:1007B0000876FF0876020876FF08767A0876FF0842
:1007C00076070876010876FF0876FF087600087637
:1007D0000022FA75F00CA4ABF0EAC333F8740133CD
:1007E000F9E8C333F8E933F9E8C32BF8E93400F941
:1007F000E8C333F8E933F9227888E6C39403D23AA0
:100800005002C23AC238E630E102D238A2389239F8
:100810007886E6149000809378A6F67886E6F53F11
:10082000C394025003753F02789CE6753EFFB40204
:1008300003753EA0B40303753E8278A0E6F8600617
:1008400074282409D8FCF5697896E61207D2883115
:100850008932789EE61207D2883389347897E61277
:1008600007D288358936120753223036117A007B39
:10087000007CFF7D007E0011D08B618A6022303ABF
:10088000227896E6FA7B00789EE6FC7D00C3EA3388
:10089000FAEB33FBC3EC33FCED33FD7E0A11D08B56
:1008A000638A627896303A02789EE6FA7B007897FF
:1008B000E6FC7D007E00303A10C3EA33FAEB33FBEE
:1008C000C3EC33FCED33FD7E0A11D08B618A6022CC
:1008D000C3EC9EFCED9400FDC3EC9AFCED9BFDC3C4
:1008E000EC9423ED940050047C237D00C3EC94FF32
:1008F000ED940140047CFF7D017BFF0B7A000AEA46
:100900007009C3EC33FCED33FD01FBEC8AF0A4AEBF
:10091000F0ED8AF0A42E947C40E4EAF460DD22D26B
:1009200036116A12056A12056A7A007B007C101281
:100930000562E5542AFA74003BFBDCF37C04C3EB4C
:1009400013FBEA13FADCF7FFEB60027FFFC23611FC
:100950006A2278A5E6F954037000E9540C7000E9A6
:1009600054307000E954C07000227567007568004B
:100970007597DE7597AD7581C043FF8075EF06757D
:10098000A90012075375807F75F1F075A4807580FA
:100990007F75D4FF75900075F27375A5737590001F
:1009A00075D57F75A60175E34075E202120753E421
:1009B000F8F6D8FD120766D1F27898866475300192
:1009C000C2AF1205721206F012056A1206F612057F
:1009D0006A1206FC12056A3152C2AF75670075686B
:1009E0000078FA79FA308507D9FBD8F7021C001293
:1009F00007F8116A7898866412075375A91375A7CA
:100A00001075C10075A70075660075E4057588113D
:100A1000758E0475890975C80475910475D840757B
:100A2000D90875F782759E0375960175DB4275DAF4
:100A30004275A82375E69075B801759B80759D0079
:100A400075D10C75BCB975BB1075E88075B2011213
:100A5000055ED2AF753C00C230120572C231C2329F
:100A6000C233C23475520075530075220012056EF0
:100A7000C3E522940A50026141D231752200120569
:100A80006EC3E522940A50026141C231D23275220E
:100A90000012056EC3E522940A5002614175E4D547
:100AA000758851758E017589AA758C00758D00C287
:100AB000A9D2ABD2AA756B80756A14756E50C2321A
:100AC000D23475220A12056E756A10C3E522940AA3
:100AD0007552007553004069758E0C756B00756A10
:100AE00028756E2875220A12056E756A20C3E522E4
:100AF000940A7552007553004047758E0C756B80D3
:100B0000756A14756E1475220A12056E756A10C323
:100B1000E522940A755200755300402575E4057569
:100B20008811758E04758909D2A9C2ABC2AAC234D4
:100B3000D23375220012056EC3E522940A400221C9
:100B4000D91205622030030209D9C2AF1206F01291
:100B500006F01206F0D2AF120572203403303A03C9
:100B6000020C04120562788CE6C3940150028104E1
:100B7000E530C39401500281047567A57568F17F63
:100B800002D236116A12056EC2AFC236116AC3E5CF
:100B900054947FD2AF406D12055EC2AF120702D2ED
:100BA000AFDFDE311FC3EF7897F6120572120FDF49
:100BB0007F0AD236116A12056EC2AFC236116AC3FD
:100BC000E554947FD2AF50E812055EC2AF1206F032
:100BD0001205661206F0D2AFDFD8311FEF2403787A
:100BE00096F6F87997E7C394234003985006E824D3
:100BF000237897F6120572F13912100E12056E1154
:100C00006A0209D975670075680012056EC3E5545C
:100C100094014002615AC2AF120702120702120782
:100C200002D2AF120572753000E4F537F53805379A
:100C3000E537F4703F0538789AE678191460127831
:100C40003214600D787D14600878FA1460037538EA
:100C500000C3E53898401D12075312055E1538751C
:100C6000370078998664C2AF120702D2AF789886AF
:100C70006412056E120566E523700221D9C3E5549E
:100C80009401500AC3E55294015016020C2E12052D
:100C90006EE52370030209D9755200755300020EE8
:100CA00043C3E55294017017C2AF12075378998677
:100CB000641206F078988664D2AF12056EC135C30F
:100CC000E55294027017C2AF1207537899866412E6
:100CD00006F678988664D2AF12056EC135C3E55228
:100CE00094037017C2AF120753789986641206FCFA
:100CF00078988664D2AF12056EC135C3E55294046C
:100D00007017C2AF12075378998664120702789859
:100D10008664D2AF12056EC135C3E55294057017D3
:100D2000C2AF1207537899866412070278988664D6
:100D3000D2AF12056EC135C3E55294077019C3E5F1
:100D40005394065002817D7401303A02740378880E
:100D5000F6C238C239C135C3E55294087019C3E5EB
:100D60005394065002817D7402303A0274047888EC
:100D7000F6D238D239C135C3E55294097017C3E5AC
:100D80005394065002817D303A0BC37888E6940272
:100D9000F6C23AC135C3E552940A7016C3E55394BE
:100DA000065002817D203A0A7888E62402F6D23A7B
:100DB000C135C3E55294147025C3E553940650021F
:100DC000817DC2AF901A0B740093D2AF7888F6136E
:100DD000C238C2394002D2384002D2398057C3E506
:100DE0005294157038C3E5539406404FC2AF901A21
:100DF0000B740093D2AFF8B801027402B802027407
:100E000001B803027404B8040274037888F613C2AC
:100E100038C2394002D2384002D2398018C3E55274
:100E2000940C70117567A57568F1C3E5539406407D
:100E30000AF139D2AF7552007553007567007568B5
:100E400000817DC2AF120753E4D2AFE4F55EF52412
:100E5000F525F53D755E0812055E12058130EDFD44
:100E6000A8BDA9BEE97001F8885F120585755E0806
:100E7000C2AF1205EC855D5B855D5CD2AF75A710D6
:100E800075C13075A70075A903756601C235303A82
:100E900003303A23203811203511C2AFD29575D4D2
:100EA0007F75D57ED2AF800F2035EFC2AFD2877568
:100EB000D4FF75D51FD2AFC3E55494014003020E91
:100EC000918000C2AF12075375240075250075A9E3
:100ED0001375A71075C10075A700756600D2AF1213
:100EE000056E12075378A4E66006D295D291D28798
:100EF0008129901A0D7820F172E520B4550AA3F1EA
:100F000072E520B4AA0280137567A57568F112070F
:100F100066F139756700756800801D901A03788046
:100F20007B0AF172A308DBFA901A0F788C7B1AF116
:100F300072A308DBFA901A2922C2AFF1B5F19290A0
:100F40001A007410F177A37407F177A37421F17775
:100F5000901A0378807B0AF176A308DBFA901A0FC7
:100F6000788C7B1AF176A308DBFAF1C8F1A6901A07
:100F70002922E493F622E6438F01538FFDFFC3E558
:100F800083941C400122EF8567B78568B7F0538FC3
:100F9000FE22438F02438F018567B78568B7901A99
:100FA0000DF0538FFC22901A0D7455F177901A0EA4
:100FB00074AAF177227A3079D07820901A40F172B1
:100FC000E520F709A3DAF7227A3079D0901A40E7C2
:100FD000F17709A3DAF9227C05120572DCFB22C243
:100FE000AF1206F01206F61206FC12070212056690
:100FF0001206F01206F61206FC120702120566121D
:1010000006F01206F61206FC120702D2AF22C2AF99
:101010001207021206FC1206F61206F012056612FC
:1010200007021206FC1206F61206F01205661207F7
:0D103000021206FC1206F61206F0D2AF22E4
:1019FD0002096A100721FFFFFFFFFFFF09FF01FF2B
:101A0D0055AA01FFFFFFFFFF03FFFFFF25D0FA508F
:0D1A1D0004FF02FF7AFF0701FFFF0000FF3A
:101A400023565F485F323023202020202020202092
:101A500023424C48454C492445464D3842323123B7
:101A60002020202020202020202020202020202076
:101C0000C2AFC2D37597DE7597AD7581C075A90057
:101C100043FF80752438752503B1DB7529A5752A26
:101C2000F143F12053A4DFD28575D4FF75E3407DE5
:101C3000FA780379E67C10752200752300901DE880
:101C40007B0675249875250130850281482085081A
:101C5000D8FBD9F9DCF781BA308508D8FBD9F9DC93
:101C6000F781BAB19BE493A3C39A6004DDC381BA40
:101C7000DBDBB18D600281317B08E493FAA3B16EA6
:101C8000DBF87A30B16E752200752300B18DEAFC65
:101C9000EBFDC3ED94FE400EB18D8A278B28ED300D
:101CA000E0048A828B83B18D7AC270D8C3ED94FE32
:101CB000601950CEBD0029EC600F7520007521FF22
:101CC000752900752A000200008100A827A92808AC
:101CD00009D804D90281DDB191EAF281D10D81A642
:101CE000C3ED94035051EDA2E092007AC5C3E582A2
:101CF0009400E583941C508C200010438F02438F86
:101D0000018529B7852AB7F0300027A827A9280818
:101D100009438F01538FFDD804D902A132C3E58353
:101D2000941C4003A3A117E28529B7852AB7F0A325
:101D3000A117538FFC81827AC1BD030CE493A3FAEF
:101D4000B152DCF8B14A81828184AA22AB23B16E00
:101D5000EBFAEA6222752608C3E52313F523E52290
:101D600013F52250066323A0632201D526EAB1DBD6
:101D7000B1DB75260AEAF4200102D285300102C2E5
:101D800085B1DBC3134002C201D526EB22B191EA33
:101D9000FB208502A191308502A196752608AE240C
:101DA000AF25C3EF13FFEE13FEB1DFB1DBC3EA13C0
:101DB0003085024480FA30E703632201C3E5231330
:101DC000F523E52213F52250066323A0632201D5F3
:101DD00026D9E52265236523F52222AE24AF250E00
:101DE0000FDEFEDFFCD20122424C48656C693437BD
:061DF0003164E8B20601B7
:00000001FF
