:020000040000FA
:060000000219FD0202FBE3
:03000B0002008D63
:030013000204FEE6
:03001B0002009050
:03002B000202B01E
:03005B0002050D8E
:030073000202E89E
:100080000406080C10182030406080A0C0054032E3
:10009000C2AFC2A853E6EFC28E856B8BC0D0D2D35D
:1000A000C0E0C0F0C2CAA8CCA9CDD2CAD2AF758A6E
:1000B00000C3E8956CF8E9956DF9C3E913F9E81305
:1000C000F8E5666007C3E913F9E813F8E97025E875
:1000D000956E4020956E501CE582B410177C007B15
:1000E000007A007908900000A86AE5667004C3E809
:1000F00013F801FD900000D2A8D2AA61C6E0FDC3AA
:100100009CC39840EF98EB33FB0582E0FCC39DC392
:100110009840E198EB33FB0582E0FDC39CC3984017
:10012000D398EB33FB0582E0FCC39DC39840C59890
:10013000EB33FB0582E0FDC39CC39840B798EB33DB
:10014000FB0582E0FCC39DC39840A998EB33FB05F7
:1001500082E0FDC39CC398409B98EB33FB0582E093
:10016000FCC39DC398408D98EB33FB0582217890AA
:100170000000D2A8D2AA61C6E0FDC39CC39840EF9C
:1001800098EA33FA0582E0FCC39DC39840E198EAFF
:1001900033FA0582E0FDC39CC39840D398EA33FA52
:1001A0000582E0FCC39DC39840C598EA33FA0582F6
:1001B000E0FDC39CC39840B798EA33FA0582E0FC9F
:1001C000C39DC39840A998EA33FA0582E0FDC39C19
:1001D000C398409B98EA33FA0582E0FCC39DC3981C
:1001E000408D98EA33FA0582EBC46B6A54F0F9EA61
:1001F000C454F0C3996009900000D2A8D2AA61C685
:10020000EBF4C454F0F9EAF4C4540F49FAEBF4C423
:10021000540FFBC3EAF99460FAEB9400FB5020C33F
:10022000E97B007A0079006016C3135006F9C39584
:1002300052600AE9F5527553007900800205533087
:100240003A27C3EA94D0F8EB9407F9400BE8FAE9AF
:10025000FB203509D235415D303502C235203902E7
:10026000B235C3EA33FAEB33FBEB2B3B3BF9C3EB81
:1002700013FBEA13FAEA29FAEB3400FB30E3047AC1
:10028000FF7BFFC3EA33C4540FF8EB33C454F04888
:10029000F87005EA60027801900000D2A8D2AAE5C1
:1002A000226002152281B3900000D2A8D2AA61C6B2
:1002B000C0D0C0E0C2CF0541E5666009E5656005D4
:1002C00075650041E3756501E52360021523C3E50B
:1002D00054600575550041E3E5552401F55550037B
:1002E0007555FFD0E0D0D032C2AF53E67F7592FA99
:1002F0007593FFC22053917FD2AF32C0E0E58A30C0
:100300003408856B8BF0A3D0E032D0E0C2AF53E667
:10031000EFC0D0C0E0C0F0D2D3D2AF5388EFA88AEC
:10032000A98CAA40308D010A758A00758C00754031
:1003300000438810E566700AC3E833F8E933F9EA48
:1003400033FA30331FE8C4540FFAE9C454F04AFAC0
:10035000C3132AFAC3E833F8E933F9E82AFAE9348F
:1003600006FB61B730320FC3E833E933FAE82AFA03
:10037000E93400FB61B7303115E875F056A4AAF0F6
:10038000E975F056A42AFAC5F03400FB61B7C3EA58
:1003900013FAE913F9E813F8E875F056A4AAF0E99E
:1003A00075F056A42AFAC5F03400C313FBEA13FA19
:1003B000C3EB13FBEA13FAC3EB94125009C3EA949C
:1003C00034EB940750160522E52270021522C3E58E
:1003D000229432500281F175540081F4E5226002CA
:1003E00015223036067C007D0861F6AC31AD323026
:1003F0003A04AC33AD34C3EA9CFAEB9DFB9208AEF1
:1004000060AF61303A425007203509D2358114304F
:100410003502C235303504AE62AF63203902B235E1
:10042000C3EA33FAEB33FBA208500AEAF42401FAD8
:10043000EBF43400FBC3EA9450FAEB9400FB501445
:1004400078007A007B008154A208500878007A0076
:100450007B0081B3E5255403601B202A18E55D333A
:10046000F9EB7007C3E99A4002E9FAE53CC4332A84
:10047000FAEB3400FBEA8EF0A4F9AAF0EB8EF0A4BC
:100480002AFAC5F03400FBC3EB13FDEA13F8C3ED01
:1004900013FDE813F80FEF146004C3E833F8C3E961
:1004A00033EA33FAEB33FBDFEDEB30E30678FF7A28
:1004B000FF7B078854D230E86003755500EAF4F8F2
:1004C000EBF45407F98856895775230AE55A30E248
:1004D00010D0F0D0E0D0D053F7DF43F74043E61020
:1004E00032D0F0D0E0D0D053D8FE43DA0143E6104A
:1004F0003275230AD0F0D0E0D0D043E61032C2AA41
:10050000D28EC2CA85CC6C85CD6DD2CA32C2AFC084
:10051000D0C0E0D2D38556FB8557FC85575A53F798
:10052000BF53DAFED2A8303402D2AA53E6EF53F713
:10053000DF53D8FED0E0D0D0D2AF32790180147929
:10054000038010790A800C791E8008796480047910
:10055000C880007817E4D5E0FDD8FAD9F62275E80E
:100560009022055EC3E55E9408405330EDF4A8BDCB
:10057000A9BE755E00E9FA79A0E76041EA7006E578
:100580005F6018800CC3E8955F600EE55F50056002
:100590000A1480070460FA8002E55FF55FC395697D
:1005A000401B755BC0C394044013755B80C3940407
:1005B000400B755B40C394044003755B0022E55B10
:1005C0002410500274FFF55B22743279A687F0A4E0
:1005D000C5F0A2F733F55D22203817C2AF53F2DF22
:1005E000C29643F24075D5EF43F210D2AF759F53D8
:1005F000C1FCC2AF53F2DFC29443F21075D5BF43C2
:10060000F240D2AF759F53C1FC203817C2AF53F2EE
:10061000EF75D5DF43F220C29643F240D2AF759F0B
:1006200063C1FCC2AF53F2BF75D5DF43F220C29461
:1006300043F210D2AF759F23C1FC203817C2AF53CD
:10064000F2BFC29443F21075D5DF43F220D2AF75EA
:100650009F23C1FCC2AF53F2EFC29643F24075D55F
:10066000DF43F220D2AF759F63C1FC203817C2AFC1
:1006700053F2DF75D5BF43F240C29443F210D2AFBC
:10068000759F538077C2AF53F2DF75D5EF43F210F9
:10069000C29643F240D2AF759F538060203817C294
:1006A000AF53F2EFC29543F22075D5BF43F240D26B
:1006B000AF759F638046C2AF53F2BFC29543F2202D
:1006C00075D5EF43F210D2AF759F23802F203817D6
:1006D000C2AF53F2BF75D5EF43F210C29543F2207B
:1006E000D2AF759F238015C2AF53F2EF75D5BF43CC
:1006F000F240C29543F220D2AF759F63227A147BF9
:100700007880127A107B8C800C7A0D7BB480067A0C
:100710000B7BC88000E564D5E001227902E453F246
:10072000DFD5E0FDD29543F220D5E0FD53F2DFD5D1
:10073000E0FDC29543F220D5E0FDE920E005D29628
:1007400043F24030E005D29443F210E564D5E0FD79
:10075000E920E00353F2BF30E00353F2EF7496D583
:10076000E0FDD9B9EAF8D5E0FDD8FBDBA853F2DF0C
:100770002253F28F53F28F75D5FF22788076FF08CF
:1007800076FF0876FF0876FF0876FF0876FF087682
:10079000090876FF087601788C76010876FF0876DE
:1007A000FF0876FF0876FF0876FF0876030876FFD5
:1007B0000876FF0876FF0876250876D00876FA08CE
:1007C00076500876040876FF0876020876FF0876E9
:1007D0007A0876FF0876070876010876FF0876FF24
:1007E00008760008760022FA75F00CA4ABF0EAC394
:1007F00033F8740133F9E8C333F8E933F9E8C32B6C
:10080000F8E93400F9E8C333F8E933F9227888E6E7
:10081000C39403D23A5002C23AC238E630E102D25F
:1008200038A23892397886E6149000809378A6F63C
:100830007886E6F53FC394025003753F02789CE644
:10084000753EFFB40203753EA0B40303753E827883
:10085000A0E6F8600674282409D8FCF5697896E6C5
:100860001207E788318932789EE61207E7883389D4
:10087000347897E61207E7883589361207712230F7
:1008800036117A007B007CFF7D007E0011E58B61D4
:100890008A6022303A227896E6FA7B00789EE6FC5F
:1008A0007D00C3EA33FAEB33FBC3EC33FCED33FDDD
:1008B0007E0A11E58B638A627896303A02789EE66A
:1008C000FA7B007897E6FC7D007E00303A10C3EAA0
:1008D00033FAEB33FBC3EC33FCED33FD7E0A11E559
:1008E0008B618A6022C3EC9EFCED9400FDC3EC9A00
:1008F000FCED9BFDC3EC9423ED940050047C237D20
:1009000000C3EC94FFED940140047CFF7D017BFF6C
:100910000B7A000AEA7009C3EC33FCED33FD2110B9
:10092000EC8AF0A4AEF0ED8AF0A42E947C40E4EAC8
:10093000F460DD22D236117F1205471205477A0096
:100940007B007C1012053FE5542AFA74003BFBDC67
:10095000F37C04C3EB13FBEA13FADCF7FFEB600252
:100960007FFFC236117F2278A5E6F954037000E9B3
:10097000540C7000E954307000E954C070002275C6
:1009800067007568007597DE7597AD7581C043FF88
:100990008075EF0675A9001207717580FF75F193D8
:1009A00075A4007580FF75D4FF75900075F28F7582
:1009B000A57075900075D5FF75A60175E34075E2C9
:1009C00002120771E4F8F6D8FD12077BF11578984A
:1009D0008664753001C2AF12054F1206FD1205473D
:1009E0001207031205471207091205473167C2AF04
:1009F00075670075680078FA79FA308707D9FBD8EF
:100A0000F7021C00110D117F78988664120771752A
:100A1000A91375A71075C10075A70075660075E468
:100A200007758811758E0475890975C80475910458
:100A300075D84075D90875F783759E007596007551
:100A4000DA4A75DB0075A82375E69075B801759BC9
:100A500080759D0075D10C75BCB975BB1075E880AB
:100A600075B20112053BD2AF753C00C23012054F82
:100A7000C231C232C233C23475520075530075227E
:100A80000012054BC3E522940A50026155D231751C
:100A9000220012054BC3E522940A50026155C2316F
:100AA000D23275220012054BC3E522940A5002612E
:100AB0005575E4F7758851758E017589AA758C0096
:100AC000758D00C2A9D2ABD2AA756B80756A1475F8
:100AD0006E50C232D23475220A12054B756A10C3A9
:100AE000E522940A7552007553004069758E0C75A5
:100AF0006B00756A28756E2875220A12054B756A97
:100B000020C3E522940A7552007553004047758E44
:100B10000C756B80756A14756E1475220A12054B7C
:100B2000756A10C3E522940A75520075530040257A
:100B300075E407758811758E04758909D2A9C2AB51
:100B4000C2AAC234D23375220012054BC3E52294E7
:100B50000A400221EE12053F2030030209EEC2AF27
:100B60001206FD1206FD1206FDD2AF12054F20340B
:100B700003303A03020C1812053F788CE6C3940147
:100B800050028118E530C39401500281187567A5A1
:100B90007568F17F02D236117F12054BC2AFC236A3
:100BA000117FC3E554947FD2AF406D12053BC2AFB5
:100BB00012070FD2AFDFDE3134C3EF7897F612059C
:100BC0004F1210027F0AD236117F12054BC2AFC2FC
:100BD00036117FC3E554947FD2AF50E812053BC273
:100BE000AF1206FD1205431206FDD2AFDFD8313435
:100BF000EF24037896F6F87997E7C3942340039897
:100C00005006E824237897F612054FF15C12103154
:100C100012054B117F0209EE756700756800120519
:100C20004BC3E55494014002616EC2AF12070F122C
:100C3000070F12070FD2AF12054F753000E4F537DA
:100C4000F5380537E537F4703F0538789AE67819B6
:100C5000146012783214600D787D14600878FA14EC
:100C60006003753800C3E53898401D1207711205FE
:100C70003B153875370078998664C2AF12070FD2DA
:100C8000AF7898866412054B120543E52370022164
:100C9000EEC3E5549401500AC3E552940150160284
:100CA0000C4212054BE52370030209EE75520075E4
:100CB0005300020E57C3E55294017017C2AF1207DA
:100CC00071789986641206FD78988664D2AF120511
:100CD0004BC149C3E55294027017C2AF1207717835
:100CE00099866412070378988664D2AF12054BC1C7
:100CF00049C3E55294037017C2AF12077178998601
:100D00006412070978988664D2AF12054BC149C3B3
:100D1000E55294047017C2AF120771789986641275
:100D2000070F78988664D2AF12054BC149C3E552CC
:100D300094057017C2AF1207717899866412070F75
:100D400078988664D2AF12054BC149C3E552940727
:100D50007019C3E5539406500281917401303A0230
:100D600074037888F6C238C239C149C3E552940881
:100D70007019C3E5539406500281917402303A020F
:100D800074047888F6D238D239C149C3E55294093F
:100D90007017C3E553940650028191303A0BC37823
:100DA00088E69402F6C23AC149C3E552940A701625
:100DB000C3E553940650028191203A0A7888E624CC
:100DC00002F6D23AC149C3E55294147025C3E553E3
:100DD000940650028191C2AF901A0B740093D2AF67
:100DE0007888F613C238C2394002D2384002D2396C
:100DF0008057C3E55294157038C3E5539406404FAD
:100E0000C2AF901A0B740093D2AFF8B8010274020B
:100E1000B802027401B803027404B80402740378BF
:100E200088F613C238C2394002D2384002D2398023
:100E300018C3E552940C70117567A57568F1C3E588
:100E4000539406400AF15CD2AF7552007553007599
:100E500067007568008191C2AF120771E4D2AFE4F8
:100E6000F55EF524F525F53D755E0812053B120586
:100E70005E30EDFDA8BDA9BEE97001F8885F1205DE
:100E800062755E08C2AF1205C9855D5B855D5CD287
:100E9000AF75A71075C13075A70075A903756601F8
:100EA000C235303A03303A29203814203514C2AF05
:100EB000C29443F21075D5DF43F220D2AF801220E6
:100EC00035ECC2AFC29543F22075D5EF43F210D294
:100ED000AFC3E55494014003020EA58000C2AF12D7
:100EE000077175240075250075A91375A71075C1C4
:100EF0000075A700756600D2AF12054B1207717816
:100F0000A4E6600FC29643F240C29543F220C29419
:100F100043F210813D901A0D7820F195E520B455EB
:100F20000AA3F195E520B4AA0280137567A5756838
:100F3000F112077BF15C756700756800801D901ADF
:100F40000378807B0AF195A308DBFA901A0F788C5E
:100F50007B1AF195A308DBFA901A2922C2AFF1D8C7
:100F6000F1B5901A007410F19AA37407F19AA37462
:100F700021F19A901A0378807B0AF199A308DBFA91
:100F8000901A0F788C7B1AF199A308DBFAF1EBF138
:100F9000C9901A2922E493F622E6438F01538FFD6C
:100FA000FFC3E583941C400122EF8567B78568B7CE
:100FB000F0538FFE22438F02438F018567B7856808
:100FC000B7901A0DF0538FFC22901A0D7455F19AB8
:100FD000901A0E74AAF19A227A3079D07820901A59
:100FE00040F195E520F709A3DAF7227A3079D0901D
:100FF0001A40E7F19A09A3DAF9227C0512054FDCC1
:10100000FB22C2AF1206FD12070312070912070FD7
:101010001205431206FD12070312070912070F12E9
:1010200005431206FD12070312070912070FD2AF7C
:1010300022C2AF12070F1207091207031206FD1290
:10104000054312070F1207091207031206FD1205C6
:101050004312070F1207091207031206FDD2AF222F
:1019FD0002097F100721FFFFFFFFFFFF09FF01FF16
:101A0D0055AA01FFFFFFFFFF03FFFFFF25D0FA508F
:0D1A1D0004FF02FF7AFF0701FFFF0000FF3A
:101A400023575F485F303023202020202020202093
:101A500023424C48454C492445464D3842323123B7
:101A60002020202020202020202020202020202076
:101C0000C2AFC2D37597DE7597AD7581C075A90057
:101C100043FF80752438752503B1DB7529A5752A26
:101C2000F143F18053A47FD28775D4FF75E3407DE3
:101C3000FA780379E67C10752200752300901DE880
:101C40007B06752498752501308702814820870816
:101C5000D8FBD9F9DCF781BA308708D8FBD9F9DC91
:101C6000F781BAB19BE493A3C39A6004DDC381BA40
:101C7000DBDBB18D600281317B08E493FAA3B16EA6
:101C8000DBF87A30B16E752200752300B18DEAFC65
:101C9000EBFDC3ED94FE400EB18D8A278B28ED300D
:101CA000E0048A828B83B18D7AC270D8C3ED94FE32
:101CB000601950CEBD0029EC600F7520007521FF22
:101CC000752900752A000200008100A827A92808AC
:101CD00009D804D90281DDB191EAF281D10D81A642
:101CE000C3ED94035051EDA2E092007AC5C3E582A2
:101CF0009400E583941C508C200010438F02438F86
:101D0000018529B7852AB7F0300027A827A9280818
:101D100009438F01538FFDD804D902A132C3E58353
:101D2000941C4003A3A117E28529B7852AB7F0A325
:101D3000A117538FFC81827AC1BD030CE493A3FAEF
:101D4000B152DCF8B14A81828184AA22AB23B16E00
:101D5000EBFAEA6222752608C3E52313F523E52290
:101D600013F52250066323A0632201D526EAB1DBD6
:101D7000B1DB75260AEAF4200102D287300102C2E3
:101D800087B1DBC3134002C201D526EB22B191EA31
:101D9000FB208702A191308702A196752608AE2408
:101DA000AF25C3EF13FFEE13FEB1DFB1DBC3EA13C0
:101DB0003087024480FA30E703632201C3E523132E
:101DC000F523E52213F52250066323A0632201D5F3
:101DD00026D9E52265236523F52222AE24AF250E00
:101DE0000FDEFEDFFCD20122424C48656C693437BD
:061DF0003164E8B20601B7
:00000001FF
