:020000040000FA
:060000000219FD0202FBE3
:03000B0002008D63
:030013000204FCE8
:03001B0002009050
:03002B000202B01E
:03005B0002050B90
:030073000202E89E
:100080000406080C10182030406080A0C0054032E3
:10009000C2AFC2A853E6EFC28E856B8BC0D0D2D35D
:1000A000C0E0C0F0C2CAA8CCA9CDD2CAD2AF758A6E
:1000B00000C3E8956CF8E9956DF9C3E913F9E81305
:1000C000F8E5666007C3E913F9E813F8E97025E875
:1000D000956E4020956E501CE582B410177C007B15
:1000E000007A007908900000A86AE5667004C3E809
:1000F00013F801FD900000D2A8D2AA61C6E0FDC3AA
:100100009CC39840EF98EB33FB0582E0FCC39DC392
:100110009840E198EB33FB0582E0FDC39CC3984017
:10012000D398EB33FB0582E0FCC39DC39840C59890
:10013000EB33FB0582E0FDC39CC39840B798EB33DB
:10014000FB0582E0FCC39DC39840A998EB33FB05F7
:1001500082E0FDC39CC398409B98EB33FB0582E093
:10016000FCC39DC398408D98EB33FB0582217890AA
:100170000000D2A8D2AA61C6E0FDC39CC39840EF9C
:1001800098EA33FA0582E0FCC39DC39840E198EAFF
:1001900033FA0582E0FDC39CC39840D398EA33FA52
:1001A0000582E0FCC39DC39840C598EA33FA0582F6
:1001B000E0FDC39CC39840B798EA33FA0582E0FC9F
:1001C000C39DC39840A998EA33FA0582E0FDC39C19
:1001D000C398409B98EA33FA0582E0FCC39DC3981C
:1001E000408D98EA33FA0582EBC46B6A54F0F9EA61
:1001F000C454F0C3996009900000D2A8D2AA61C685
:10020000EBF4C454F0F9EAF4C4540F49FAEBF4C423
:10021000540FFBC3EAF99460FAEB9400FB5020C33F
:10022000E97B007A0079006016C3135006F9C39584
:1002300052600AE9F5527553007900800205533087
:100240003A27C3EA94D0F8EB9407F9400BE8FAE9AF
:10025000FB203509D235415D303502C235203902E7
:10026000B235C3EA33FAEB33FBEB2B3B3BF9C3EB81
:1002700013FBEA13FAEA29FAEB3400FB30E3047AC1
:10028000FF7BFFC3EA33C4540FF8EB33C454F04888
:10029000F87005EA60027801900000D2A8D2AAE5C1
:1002A000226002152281B3900000D2A8D2AA61C6B2
:1002B000C0D0C0E0C2CF0541E5666009E5656005D4
:1002C00075650041E3756501E52360021523C3E50B
:1002D00054600575550041E3E5552401F55550037B
:1002E0007555FFD0E0D0D032C2AF53E67F7592FA99
:1002F0007593FFC22053917FD2AF32C0E0E58A30C0
:100300003408856B8BF0A3D0E032D0E0C2AF53E667
:10031000EFC0D0C0E0C0F0D2D3D2AF5388EFA88AEC
:10032000A98CAA40308D010A758A00758C00754031
:1003300000438810E566700AC3E833F8E933F9EA48
:1003400033FA30331FE8C4540FFAE9C454F04AFAC0
:10035000C3132AFAC3E833F8E933F9E82AFAE9348F
:1003600006FB61B730320FC3E833E933FAE82AFA03
:10037000E93400FB61B7303115E875F056A4AAF0F6
:10038000E975F056A42AFAC5F03400FB61B7C3EA58
:1003900013FAE913F9E813F8E875F056A4AAF0E99E
:1003A00075F056A42AFAC5F03400C313FBEA13FA19
:1003B000C3EB13FBEA13FAC3EB94125009C3EA949C
:1003C00034EB940750160522E52270021522C3E58E
:1003D000229432500281EF75540081F2E5226002CE
:1003E00015223036067C007D0861F6AC31AD323026
:1003F0003A04AC33AD34C3EA9CFAEB9DFB9208AEF1
:1004000060AF61303A425007203509D2358114304F
:100410003502C235303504AE62AF63203902B235E1
:10042000C3EA33FAEB33FBA208500AEAF42401FAD8
:10043000EBF43400FBC3EA9450FAEB9400FB501445
:1004400078007A007B008154A208500878007A0076
:100450007B0081B3E5255403601B202A18E55D333A
:10046000F9EB7007C3E99A4002E9FAE53CC4332A84
:10047000FAEB3400FBEA8EF0A4F9AAF0EB8EF0A4BC
:100480002AFAC5F03400FBC3EB13FDEA13F8C3ED01
:1004900013FDE813F80FEF146004C3E833F8C3E961
:1004A00033EA33FAEB33FBDFEDEB30E30678FF7A28
:1004B000FF7B078854D230E86003755500EAF4F8F2
:1004C000EBF45407F9C3E8943CFAE99400FB5004B8
:1004D0007A007B00885689578A588B5975230AD031
:1004E000F0D0E0D0D053F7DF43F74043E610327549
:1004F000230AD0F0D0E0D0D043E61032C2AAD28E88
:10050000C2CA85CC6C85CD6DD2CA32C2AFC0D0C054
:10051000E0D2D3A8F9E55A30E20AE5FA20E2352024
:10052000E132A12CE5FA30E22B20E128C3E5571394
:10053000F8E55613F5E988EAC3E55913F8E55813C9
:10054000F5FB88FC85575A53F7BFD2A8303402D246
:10055000AA53E6EF53F7DFD0E0D0D0D2AF32790123
:10056000801479038010790A800C791E80087964E0
:10057000800479C880007817E4D5E0FDD8FAD9F670
:100580002275E89022055EC3E55E9408405330ED85
:10059000F4A8BDA9BE755E00E9FA79A0E76041EA5A
:1005A0007006E55F6018800CC3E8955F600EE55F3C
:1005B0005005600A1480070460FA8002E55FF55F69
:1005C000C39569401B755BC0C394044013755B8081
:1005D000C39404400B755B40C394044003755B00F7
:1005E00022E55B2410500274FFF55B22743279A679
:1005F00087F0A4C5F0A2F733F55D22203817C2AF0B
:1006000053F2DFC29643F24075D5EF43F210D2AFFA
:10061000759F53E11FC2AF53F2DFC29443F21075CE
:10062000D5BF43F240D2AF759F53E11F203817C2A8
:10063000AF53F2EF75D5DF43F220C29643F240D2BA
:10064000AF759F63E11FC2AF53F2BF75D5DF43F2B1
:1006500020C29443F210D2AF759F23E11F203817B8
:10066000C2AF53F2BFC29443F21075D5DF43F220FC
:10067000D2AF759F23E11FC2AF53F2EFC29643F290
:100680004075D5DF43F220D2AF759F63E11F20385C
:1006900017C2AF53F2DF75D5BF43F240C29443F2A5
:1006A00010D2AF759F538077C2AF53F2DF75D5EF8D
:1006B00043F210C29643F240D2AF759F5380602040
:1006C0003817C2AF53F2EFC29543F22075D5BF433E
:1006D000F240D2AF759F638046C2AF53F2BFC2955E
:1006E00043F22075D5EF43F210D2AF759F23802FD0
:1006F000203817C2AF53F2BF75D5EF43F210C29541
:1007000043F220D2AF759F238015C2AF53F2EF752D
:10071000D5BF43F240C29543F220D2AF759F63220A
:100720007A147B7880127A107B8C800C7A0D7BB4E3
:1007300080067A0B7BC88000E564D5E0012279024F
:10074000E453F2DFD5E0FDD29543F220D5E0FD532E
:10075000F2DFD5E0FDC29543F220D5E0FDE920E0CF
:1007600005D29643F24030E005D29443F210E5649E
:10077000D5E0FDE920E00353F2BF30E00353F2EF90
:100780007496D5E0FDD9B9EAF8D5E0FDD8FBDBA831
:1007900053F2DF2253F28F53F28F75D5FF22788008
:1007A00076FF0876FF0876FF0876FF0876FF087662
:1007B000FF0876090876FF087601788C76010876BE
:1007C000FF0876FF0876FF0876FF0876FF087603B5
:1007D0000876FF0876FF0876FF0876250876D008A9
:1007E00076FA0876500876040876FF0876020876CE
:1007F000FF08767A0876FF0876070876010876FF04
:100800000876FF08760008760022FA75F00CA4AB93
:10081000F0EAC333F8740133F9E8C333F8E933F984
:10082000E8C32BF8E93400F9E8C333F8E933F922D7
:100830007888E6C39403D23A5002C23AC238E6300E
:10084000E102D238A23892397886E614900080937B
:1008500078A6F67886E6F53FC394025003753F020A
:10086000789CE6753EFFB40203753EA0B4030375A1
:100870003E8278A0E6F8600674282409D8FCF56961
:100880007896E6110A88318932789EE6110A883313
:1008900089347897E6110A88358936120794223010
:1008A00036117A007B007CFF7D007E0031058B6174
:1008B0008A6022303A227896E6FA7B00789EE6FC3F
:1008C0007D00C3EA33FAEB33FBC3EC33FCED33FDBD
:1008D0007E0A31058B638A627896303A02789EE60A
:1008E000FA7B007897E6FC7D007E00303A10C3EA80
:1008F00033FAEB33FBC3EC33FCED33FD7E0A3105F9
:100900008B618A6022C3EC9EFCED9400FDC3EC9ADF
:10091000FCED9BFDC3EC9423ED940050047C237DFF
:1009200000C3EC94FFED940140047CFF7D017BFF4C
:100930000B7A000AEA7009C3EC33FCED33FD213079
:10094000EC8AF0A4AEF0ED8AF0A42E947C40E4EAA8
:10095000F460DD22D236119F12056A12056A7A0010
:100960007B007C10120562E5542AFA74003BFBDC24
:10097000F37C04C3EB13FBEA13FADCF7FFEB600232
:100980007FFFC236119F2278A5E6F954037000E973
:10099000540C7000E954307000E954C070002275A6
:1009A00067007568007597DE7597AD7581C043FF68
:1009B0008075EF0675A9001207947580FF75F19395
:1009C00075A4007580FF75D4FF75900075F28F7562
:1009D000A57075900075D5FF75A60175E34075E2A9
:1009E00002120794E4F8F6D8FD12079EF1357898C4
:1009F0008664753001C2AF12057212072012056AB3
:100A000012072612056A12072C12056A3187C2AF37
:100A100075670075680078FA79FA308707D9FBD8CE
:100A2000F7021C001130119F7898866412079475A4
:100A3000A91375A71075C10075A70075660075E448
:100A400007758811758E0475890975C80475910438
:100A500075D84075D90875F782759E03759601752E
:100A6000DB4275DA4275A82375E69075B801759B6F
:100A700080759D0075D10C75BCB975BB1075E8808B
:100A800075B20112055ED2AF753C00C2301205721C
:100A9000C231C232C233C23475520075530075225E
:100AA0000012056EC3E522940A50026175D23175B9
:100AB000220012056EC3E522940A50026175C2310C
:100AC000D23275220012056EC3E522940A500261EB
:100AD0007575E4F7758851758E017589AA758C0056
:100AE000758D00C2A9D2ABD2AA756B80756A1475D8
:100AF0006E50C232D23475220A12056E756A10C366
:100B0000E522940A7552007553004069758E0C7584
:100B10006B00756A28756E2875220A12056E756A53
:100B200020C3E522940A7552007553004047758E24
:100B30000C756B80756A14756E1475220A12056E39
:100B4000756A10C3E522940A75520075530040255A
:100B500075E407758811758E04758909D2A9C2AB31
:100B6000C2AAC234D23375220012056EC3E52294A4
:100B70000A4002410E120562203003020A0EC2AF83
:100B8000120720120720120720D2AF12057220345C
:100B900003303A03020C38120562788CE6C39401E4
:100BA00050028138E530C39401500281387567A541
:100BB0007568F17F02D236119F12056EC2AFC23640
:100BC000119FC3E554947FD2AF406D12055EC2AF52
:100BD000120732D2AFDFDE3154C3EF7897F6120539
:100BE000721210267F0AD236119F12056EC2AFC252
:100BF00036119FC3E554947FD2AF50E812055EC210
:100C0000AF120720120566120720D2AFDFD8315489
:100C1000EF24037896F6F87997E7C3942340039876
:100C20005006E824237897F6120572F17C121055CD
:100C300012056E119F020A0E756700756800120595
:100C40006EC3E55494014002618EC2AF12073212A6
:100C50000732120732D2AF120572753000E4F53751
:100C6000F5380537E537F4703F0538789AE6781996
:100C7000146012783214600D787D14600878FA14CC
:100C80006003753800C3E53898401D1207941205BB
:100C90005E153875370078998664C2AF120732D274
:100CA000AF7898866412056E120566E523700241DE
:100CB0000EC3E5549401500AC3E552940150160244
:100CC0000C6212056EE5237003020A0E7552007560
:100CD0005300020E77C3E55294017017C2AF12079A
:100CE000947899866412072078988664D2AF1205AA
:100CF0006EC169C3E55294027017C2AF12079478AF
:100D000099866412072678988664D2AF12056EC160
:100D100069C3E55294037017C2AF1207947899869D
:100D20006412072C78988664D2AF12056EC169C32D
:100D3000E55294047017C2AF120794789986641232
:100D4000073278988664D2AF12056EC169C3E55246
:100D500094057017C2AF120794789986641207320F
:100D600078988664D2AF12056EC169C3E5529407C4
:100D70007019C3E5539406500281B17401303A02F0
:100D800074037888F6C238C239C169C3E552940841
:100D90007019C3E5539406500281B17402303A02CF
:100DA00074047888F6D238D239C169C3E5529409FF
:100DB0007017C3E5539406500281B1303A0BC378E3
:100DC00088E69402F6C23AC169C3E552940A7016E5
:100DD000C3E5539406500281B1203A0A7888E6248C
:100DE00002F6D23AC169C3E55294147025C3E553A3
:100DF0009406500281B1C2AF901A0B740093D2AF27
:100E00007888F613C238C2394002D2384002D2394B
:100E10008057C3E55294157038C3E5539406404F8C
:100E2000C2AF901A0B740093D2AFF8B801027402EB
:100E3000B802027401B803027404B804027403789F
:100E400088F613C238C2394002D2384002D2398003
:100E500018C3E552940C70117567A57568F1C3E568
:100E6000539406400AF17CD2AF7552007553007559
:100E7000670075680081B1C2AF120794E4D2AFE495
:100E8000F55EF524F525F53D755E0812055E120543
:100E90008130EDFDA8BDA9BEE97001F8885F12059B
:100EA00085755E08C2AF1205EC855D5B855D5CD221
:100EB000AF75A71075C13075A70075A903756601D8
:100EC000C235303A03303A29203814203514C2AFE5
:100ED000C29543F22075D5BF43F240D2AF801220B5
:100EE00035ECC2AFC29643F24075D5DF43F220D253
:100EF000AFC3E55494014003020EC58000C2AF1297
:100F0000079475240075250075A91375A71075C180
:100F10000075A700756600D2AF12056E12079478AF
:100F2000A4E6600FC29643F240C29543F220C294F9
:100F300043F210815D901A0D7820F1B7E520B45589
:100F40000AA3F1B7E520B4AA0280137567A57568F6
:100F5000F112079EF17C756700756800801D901A7C
:100F60000378807B0AF1B7A308DBFA901A0F788C1C
:100F70007B1AF1B7A308DBFA901A2922C2AF120F2D
:100F8000FAF1D7901A007410F1BCA37407F1BCA356
:100F90007421F1BC901A0378807B0AF1BBA308DBB3
:100FA000FA901A0F788C7B1AF1BBA308DBFA1210A7
:100FB0000EF1EB901A2922E493F622E6438F0153B7
:100FC0008FFDFFC3E583941C400122EF8567B78541
:100FD00068B7F0538FFE22438F02438F018567B7B6
:100FE0008568B7901A0DF0538FFC22901A0D745536
:100FF000F1BC901A0E74AAF1BC227A3079D0782014
:10100000901A40120FB7E520F709A3DAF6227A30DA
:1010100079D0901A40E7120FBC09A3DAF8227C05B8
:10102000120572DCFB22C2AF12072012072612073C
:101030002C12073212056612072012072612072CFF
:1010400012073212056612072012072612072C1209
:101050000732D2AF22C2AF12073212072C12072674
:1010600012072012056612073212072C12072612E9
:10107000072012056612073212072C1207261207E4
:0410800020D2AF22A9
:1019FD0002099F100721FFFFFFFFFFFF09FF01FFF6
:101A0D0055AA01FFFFFFFFFF03FFFFFF25D0FA508F
:0D1A1D0004FF02FF7AFF0701FFFF0000FF3A
:101A400023575F485F333023202020202020202090
:101A500023424C48454C492445464D3842323123B7
:101A60002020202020202020202020202020202076
:101C0000C2AFC2D37597DE7597AD7581C075A90057
:101C100043FF80752438752503B1DB7529A5752A26
:101C2000F143F18053A47FD28775D4FF75E3407DE3
:101C3000FA780379E67C10752200752300901DE880
:101C40007B06752498752501308702814820870816
:101C5000D8FBD9F9DCF781BA308708D8FBD9F9DC91
:101C6000F781BAB19BE493A3C39A6004DDC381BA40
:101C7000DBDBB18D600281317B08E493FAA3B16EA6
:101C8000DBF87A30B16E752200752300B18DEAFC65
:101C9000EBFDC3ED94FE400EB18D8A278B28ED300D
:101CA000E0048A828B83B18D7AC270D8C3ED94FE32
:101CB000601950CEBD0029EC600F7520007521FF22
:101CC000752900752A000200008100A827A92808AC
:101CD00009D804D90281DDB191EAF281D10D81A642
:101CE000C3ED94035051EDA2E092007AC5C3E582A2
:101CF0009400E583941C508C200010438F02438F86
:101D0000018529B7852AB7F0300027A827A9280818
:101D100009438F01538FFDD804D902A132C3E58353
:101D2000941C4003A3A117E28529B7852AB7F0A325
:101D3000A117538FFC81827AC1BD030CE493A3FAEF
:101D4000B152DCF8B14A81828184AA22AB23B16E00
:101D5000EBFAEA6222752608C3E52313F523E52290
:101D600013F52250066323A0632201D526EAB1DBD6
:101D7000B1DB75260AEAF4200102D287300102C2E3
:101D800087B1DBC3134002C201D526EB22B191EA31
:101D9000FB208702A191308702A196752608AE2408
:101DA000AF25C3EF13FFEE13FEB1DFB1DBC3EA13C0
:101DB0003087024480FA30E703632201C3E523132E
:101DC000F523E52213F52250066323A0632201D5F3
:101DD00026D9E52265236523F52222AE24AF250E00
:101DE0000FDEFEDFFCD20122424C48656C693437BD
:061DF0003164E8B20601B7
:00000001FF
